{
	"contracts/4_credit.sol": {
		"RBTCDebitCard": {
			"abi": [
				{
					"inputs": [
						{
							"internalType": "address",
							"name": "_rBTC",
							"type": "address"
						},
						{
							"internalType": "address",
							"name": "_usdrif",
							"type": "address"
						}
					],
					"stateMutability": "nonpayable",
					"type": "constructor"
				},
				{
					"inputs": [
						{
							"internalType": "address",
							"name": "owner",
							"type": "address"
						}
					],
					"name": "OwnableInvalidOwner",
					"type": "error"
				},
				{
					"inputs": [
						{
							"internalType": "address",
							"name": "account",
							"type": "address"
						}
					],
					"name": "OwnableUnauthorizedAccount",
					"type": "error"
				},
				{
					"anonymous": false,
					"inputs": [
						{
							"indexed": true,
							"internalType": "address",
							"name": "user",
							"type": "address"
						},
						{
							"indexed": false,
							"internalType": "uint256",
							"name": "collateral",
							"type": "uint256"
						},
						{
							"indexed": false,
							"internalType": "uint256",
							"name": "amount",
							"type": "uint256"
						},
						{
							"indexed": false,
							"internalType": "uint256",
							"name": "dueDate",
							"type": "uint256"
						}
					],
					"name": "Borrowed",
					"type": "event"
				},
				{
					"anonymous": false,
					"inputs": [
						{
							"indexed": true,
							"internalType": "address",
							"name": "user",
							"type": "address"
						},
						{
							"indexed": false,
							"internalType": "uint256",
							"name": "collateral",
							"type": "uint256"
						}
					],
					"name": "Liquidated",
					"type": "event"
				},
				{
					"anonymous": false,
					"inputs": [
						{
							"indexed": true,
							"internalType": "address",
							"name": "previousOwner",
							"type": "address"
						},
						{
							"indexed": true,
							"internalType": "address",
							"name": "newOwner",
							"type": "address"
						}
					],
					"name": "OwnershipTransferred",
					"type": "event"
				},
				{
					"anonymous": false,
					"inputs": [
						{
							"indexed": true,
							"internalType": "address",
							"name": "user",
							"type": "address"
						},
						{
							"indexed": false,
							"internalType": "uint256",
							"name": "amount",
							"type": "uint256"
						}
					],
					"name": "Repaid",
					"type": "event"
				},
				{
					"inputs": [],
					"name": "BP_DENOM",
					"outputs": [
						{
							"internalType": "uint256",
							"name": "",
							"type": "uint256"
						}
					],
					"stateMutability": "view",
					"type": "function"
				},
				{
					"inputs": [
						{
							"internalType": "uint256",
							"name": "collateralAmount",
							"type": "uint256"
						},
						{
							"internalType": "uint256",
							"name": "borrowAmount",
							"type": "uint256"
						}
					],
					"name": "borrow",
					"outputs": [],
					"stateMutability": "nonpayable",
					"type": "function"
				},
				{
					"inputs": [
						{
							"internalType": "address",
							"name": "user",
							"type": "address"
						}
					],
					"name": "liquidate",
					"outputs": [],
					"stateMutability": "nonpayable",
					"type": "function"
				},
				{
					"inputs": [
						{
							"internalType": "address",
							"name": "",
							"type": "address"
						}
					],
					"name": "loans",
					"outputs": [
						{
							"internalType": "uint256",
							"name": "collateral",
							"type": "uint256"
						},
						{
							"internalType": "uint256",
							"name": "debt",
							"type": "uint256"
						},
						{
							"internalType": "uint256",
							"name": "lastDueDate",
							"type": "uint256"
						},
						{
							"internalType": "bool",
							"name": "active",
							"type": "bool"
						}
					],
					"stateMutability": "view",
					"type": "function"
				},
				{
					"inputs": [],
					"name": "monthlyInterest",
					"outputs": [
						{
							"internalType": "uint256",
							"name": "",
							"type": "uint256"
						}
					],
					"stateMutability": "view",
					"type": "function"
				},
				{
					"inputs": [],
					"name": "owner",
					"outputs": [
						{
							"internalType": "address",
							"name": "",
							"type": "address"
						}
					],
					"stateMutability": "view",
					"type": "function"
				},
				{
					"inputs": [],
					"name": "rBTC",
					"outputs": [
						{
							"internalType": "contract IERC20",
							"name": "",
							"type": "address"
						}
					],
					"stateMutability": "view",
					"type": "function"
				},
				{
					"inputs": [],
					"name": "renounceOwnership",
					"outputs": [],
					"stateMutability": "nonpayable",
					"type": "function"
				},
				{
					"inputs": [
						{
							"internalType": "uint256",
							"name": "amount",
							"type": "uint256"
						}
					],
					"name": "repay",
					"outputs": [],
					"stateMutability": "nonpayable",
					"type": "function"
				},
				{
					"inputs": [
						{
							"internalType": "address",
							"name": "newOwner",
							"type": "address"
						}
					],
					"name": "transferOwnership",
					"outputs": [],
					"stateMutability": "nonpayable",
					"type": "function"
				},
				{
					"inputs": [],
					"name": "usdrif",
					"outputs": [
						{
							"internalType": "contract IERC20",
							"name": "",
							"type": "address"
						}
					],
					"stateMutability": "view",
					"type": "function"
				}
			],
			"devdoc": {
				"errors": {
					"OwnableInvalidOwner(address)": [
						{
							"details": "The owner is not a valid owner account. (eg. `address(0)`)"
						}
					],
					"OwnableUnauthorizedAccount(address)": [
						{
							"details": "The caller account is not authorized to perform an operation."
						}
					]
				},
				"kind": "dev",
				"methods": {
					"owner()": {
						"details": "Returns the address of the current owner."
					},
					"renounceOwnership()": {
						"details": "Leaves the contract without owner. It will not be possible to call `onlyOwner` functions. Can only be called by the current owner. NOTE: Renouncing ownership will leave the contract without an owner, thereby disabling any functionality that is only available to the owner."
					},
					"transferOwnership(address)": {
						"details": "Transfers ownership of the contract to a new account (`newOwner`). Can only be called by the current owner."
					}
				},
				"title": "rBTC-backed Debit Card with USDRIF Settlement",
				"version": 1
			},
			"evm": {
				"assembly": "    /* \"contracts/4_credit.sol\":381:4981  contract RBTCDebitCard is Ownable {... */\n  mstore(0x40, 0x80)\n    /* \"contracts/4_credit.sol\":551:554  300 */\n  0x012c\n    /* \"contracts/4_credit.sol\":518:554  uint256 public monthlyInterest = 300 */\n  0x03\n  sstore\n    /* \"contracts/4_credit.sol\":1064:1199  constructor(address _rBTC, address _usdrif) Ownable(msg.sender) {... */\n  callvalue\n  dup1\n  iszero\n  tag_1\n  jumpi\n  revert(0x00, 0x00)\ntag_1:\n  pop\n  mload(0x40)\n  sub(codesize, bytecodeSize)\n  dup1\n  bytecodeSize\n  dup4\n  codecopy\n  dup2\n  dup2\n  add\n  0x40\n  mstore\n  dup2\n  add\n  swap1\n  tag_2\n  swap2\n  swap1\n  tag_3\n  jump\t// in\ntag_2:\n    /* \"contracts/4_credit.sol\":1116:1126  msg.sender */\n  caller\n    /* \"@openzeppelin/contracts/access/Ownable.sol\":1297:1298  0 */\n  0x00\n    /* \"@openzeppelin/contracts/access/Ownable.sol\":1273:1299  initialOwner == address(0) */\n  0xffffffffffffffffffffffffffffffffffffffff\n  and\n    /* \"@openzeppelin/contracts/access/Ownable.sol\":1273:1285  initialOwner */\n  dup2\n    /* \"@openzeppelin/contracts/access/Ownable.sol\":1273:1299  initialOwner == address(0) */\n  0xffffffffffffffffffffffffffffffffffffffff\n  and\n  sub\n    /* \"@openzeppelin/contracts/access/Ownable.sol\":1269:1364  if (initialOwner == address(0)) {... */\n  tag_7\n  jumpi\n    /* \"@openzeppelin/contracts/access/Ownable.sol\":1350:1351  0 */\n  0x00\n    /* \"@openzeppelin/contracts/access/Ownable.sol\":1322:1353  OwnableInvalidOwner(address(0)) */\n  mload(0x40)\n  0x1e4fbdf700000000000000000000000000000000000000000000000000000000\n  dup2\n  mstore\n  0x04\n  add\n  tag_8\n  swap2\n  swap1\n  tag_9\n  jump\t// in\ntag_8:\n  mload(0x40)\n  dup1\n  swap2\n  sub\n  swap1\n  revert\n    /* \"@openzeppelin/contracts/access/Ownable.sol\":1269:1364  if (initialOwner == address(0)) {... */\ntag_7:\n    /* \"@openzeppelin/contracts/access/Ownable.sol\":1373:1405  _transferOwnership(initialOwner) */\n  tag_10\n    /* \"@openzeppelin/contracts/access/Ownable.sol\":1392:1404  initialOwner */\n  dup2\n    /* \"@openzeppelin/contracts/access/Ownable.sol\":1373:1391  _transferOwnership */\n  shl(0x20, tag_11)\n    /* \"@openzeppelin/contracts/access/Ownable.sol\":1373:1405  _transferOwnership(initialOwner) */\n  0x20\n  shr\n  jump\t// in\ntag_10:\n    /* \"@openzeppelin/contracts/access/Ownable.sol\":1225:1412  constructor(address initialOwner) {... */\n  pop\n    /* \"contracts/4_credit.sol\":1152:1157  _rBTC */\n  dup2\n    /* \"contracts/4_credit.sol\":1138:1142  rBTC */\n  0x01\n  0x00\n    /* \"contracts/4_credit.sol\":1138:1158  rBTC = IERC20(_rBTC) */\n  0x0100\n  exp\n  dup2\n  sload\n  dup2\n  0xffffffffffffffffffffffffffffffffffffffff\n  mul\n  not\n  and\n  swap1\n  dup4\n  0xffffffffffffffffffffffffffffffffffffffff\n  and\n  mul\n  or\n  swap1\n  sstore\n  pop\n    /* \"contracts/4_credit.sol\":1184:1191  _usdrif */\n  dup1\n    /* \"contracts/4_credit.sol\":1168:1174  usdrif */\n  0x02\n  0x00\n    /* \"contracts/4_credit.sol\":1168:1192  usdrif = IERC20(_usdrif) */\n  0x0100\n  exp\n  dup2\n  sload\n  dup2\n  0xffffffffffffffffffffffffffffffffffffffff\n  mul\n  not\n  and\n  swap1\n  dup4\n  0xffffffffffffffffffffffffffffffffffffffff\n  and\n  mul\n  or\n  swap1\n  sstore\n  pop\n    /* \"contracts/4_credit.sol\":1064:1199  constructor(address _rBTC, address _usdrif) Ownable(msg.sender) {... */\n  pop\n  pop\n    /* \"contracts/4_credit.sol\":381:4981  contract RBTCDebitCard is Ownable {... */\n  jump(tag_13)\n    /* \"@openzeppelin/contracts/access/Ownable.sol\":2912:3099  function _transferOwnership(address newOwner) internal virtual {... */\ntag_11:\n    /* \"@openzeppelin/contracts/access/Ownable.sol\":2985:3001  address oldOwner */\n  0x00\n    /* \"@openzeppelin/contracts/access/Ownable.sol\":3004:3010  _owner */\n  0x00\n  0x00\n  swap1\n  sload\n  swap1\n  0x0100\n  exp\n  swap1\n  div\n  0xffffffffffffffffffffffffffffffffffffffff\n  and\n    /* \"@openzeppelin/contracts/access/Ownable.sol\":2985:3010  address oldOwner = _owner */\n  swap1\n  pop\n    /* \"@openzeppelin/contracts/access/Ownable.sol\":3029:3037  newOwner */\n  dup2\n    /* \"@openzeppelin/contracts/access/Ownable.sol\":3020:3026  _owner */\n  0x00\n  0x00\n    /* \"@openzeppelin/contracts/access/Ownable.sol\":3020:3037  _owner = newOwner */\n  0x0100\n  exp\n  dup2\n  sload\n  dup2\n  0xffffffffffffffffffffffffffffffffffffffff\n  mul\n  not\n  and\n  swap1\n  dup4\n  0xffffffffffffffffffffffffffffffffffffffff\n  and\n  mul\n  or\n  swap1\n  sstore\n  pop\n    /* \"@openzeppelin/contracts/access/Ownable.sol\":3083:3091  newOwner */\n  dup2\n    /* \"@openzeppelin/contracts/access/Ownable.sol\":3052:3092  OwnershipTransferred(oldOwner, newOwner) */\n  0xffffffffffffffffffffffffffffffffffffffff\n  and\n    /* \"@openzeppelin/contracts/access/Ownable.sol\":3073:3081  oldOwner */\n  dup2\n    /* \"@openzeppelin/contracts/access/Ownable.sol\":3052:3092  OwnershipTransferred(oldOwner, newOwner) */\n  0xffffffffffffffffffffffffffffffffffffffff\n  and\n  0x8be0079c531659141344cd1fd0a4f28419497f9722a3daafe3b4186f6b6457e0\n  mload(0x40)\n  mload(0x40)\n  dup1\n  swap2\n  sub\n  swap1\n  log3\n    /* \"@openzeppelin/contracts/access/Ownable.sol\":2975:3099  {... */\n  pop\n    /* \"@openzeppelin/contracts/access/Ownable.sol\":2912:3099  function _transferOwnership(address newOwner) internal virtual {... */\n  pop\n  jump\t// out\n    /* \"#utility.yul\":88:205   */\ntag_16:\n    /* \"#utility.yul\":197:198   */\n  0x00\n    /* \"#utility.yul\":194:195   */\n  0x00\n    /* \"#utility.yul\":187:199   */\n  revert\n    /* \"#utility.yul\":334:460   */\ntag_18:\n    /* \"#utility.yul\":371:378   */\n  0x00\n    /* \"#utility.yul\":411:453   */\n  0xffffffffffffffffffffffffffffffffffffffff\n    /* \"#utility.yul\":404:409   */\n  dup3\n    /* \"#utility.yul\":400:454   */\n  and\n    /* \"#utility.yul\":389:454   */\n  swap1\n  pop\n    /* \"#utility.yul\":334:460   */\n  swap2\n  swap1\n  pop\n  jump\t// out\n    /* \"#utility.yul\":466:562   */\ntag_19:\n    /* \"#utility.yul\":503:510   */\n  0x00\n    /* \"#utility.yul\":532:556   */\n  tag_29\n    /* \"#utility.yul\":550:555   */\n  dup3\n    /* \"#utility.yul\":532:556   */\n  tag_18\n  jump\t// in\ntag_29:\n    /* \"#utility.yul\":521:556   */\n  swap1\n  pop\n    /* \"#utility.yul\":466:562   */\n  swap2\n  swap1\n  pop\n  jump\t// out\n    /* \"#utility.yul\":568:690   */\ntag_20:\n    /* \"#utility.yul\":641:665   */\n  tag_31\n    /* \"#utility.yul\":659:664   */\n  dup2\n    /* \"#utility.yul\":641:665   */\n  tag_19\n  jump\t// in\ntag_31:\n    /* \"#utility.yul\":634:639   */\n  dup2\n    /* \"#utility.yul\":631:666   */\n  eq\n    /* \"#utility.yul\":621:684   */\n  tag_32\n  jumpi\n    /* \"#utility.yul\":680:681   */\n  0x00\n    /* \"#utility.yul\":677:678   */\n  0x00\n    /* \"#utility.yul\":670:682   */\n  revert\n    /* \"#utility.yul\":621:684   */\ntag_32:\n    /* \"#utility.yul\":568:690   */\n  pop\n  jump\t// out\n    /* \"#utility.yul\":696:839   */\ntag_21:\n    /* \"#utility.yul\":753:758   */\n  0x00\n    /* \"#utility.yul\":784:790   */\n  dup2\n    /* \"#utility.yul\":778:791   */\n  mload\n    /* \"#utility.yul\":769:791   */\n  swap1\n  pop\n    /* \"#utility.yul\":800:833   */\n  tag_34\n    /* \"#utility.yul\":827:832   */\n  dup2\n    /* \"#utility.yul\":800:833   */\n  tag_20\n  jump\t// in\ntag_34:\n    /* \"#utility.yul\":696:839   */\n  swap3\n  swap2\n  pop\n  pop\n  jump\t// out\n    /* \"#utility.yul\":845:1352   */\ntag_3:\n    /* \"#utility.yul\":924:930   */\n  0x00\n    /* \"#utility.yul\":932:938   */\n  0x00\n    /* \"#utility.yul\":981:983   */\n  0x40\n    /* \"#utility.yul\":969:978   */\n  dup4\n    /* \"#utility.yul\":960:967   */\n  dup6\n    /* \"#utility.yul\":956:979   */\n  sub\n    /* \"#utility.yul\":952:984   */\n  slt\n    /* \"#utility.yul\":949:1068   */\n  iszero\n  tag_36\n  jumpi\n    /* \"#utility.yul\":987:1066   */\n  tag_37\n  tag_16\n  jump\t// in\ntag_37:\n    /* \"#utility.yul\":949:1068   */\ntag_36:\n    /* \"#utility.yul\":1107:1108   */\n  0x00\n    /* \"#utility.yul\":1132:1196   */\n  tag_38\n    /* \"#utility.yul\":1188:1195   */\n  dup6\n    /* \"#utility.yul\":1179:1185   */\n  dup3\n    /* \"#utility.yul\":1168:1177   */\n  dup7\n    /* \"#utility.yul\":1164:1186   */\n  add\n    /* \"#utility.yul\":1132:1196   */\n  tag_21\n  jump\t// in\ntag_38:\n    /* \"#utility.yul\":1122:1196   */\n  swap3\n  pop\n    /* \"#utility.yul\":1078:1206   */\n  pop\n    /* \"#utility.yul\":1245:1247   */\n  0x20\n    /* \"#utility.yul\":1271:1335   */\n  tag_39\n    /* \"#utility.yul\":1327:1334   */\n  dup6\n    /* \"#utility.yul\":1318:1324   */\n  dup3\n    /* \"#utility.yul\":1307:1316   */\n  dup7\n    /* \"#utility.yul\":1303:1325   */\n  add\n    /* \"#utility.yul\":1271:1335   */\n  tag_21\n  jump\t// in\ntag_39:\n    /* \"#utility.yul\":1261:1335   */\n  swap2\n  pop\n    /* \"#utility.yul\":1216:1345   */\n  pop\n    /* \"#utility.yul\":845:1352   */\n  swap3\n  pop\n  swap3\n  swap1\n  pop\n  jump\t// out\n    /* \"#utility.yul\":1358:1476   */\ntag_22:\n    /* \"#utility.yul\":1445:1469   */\n  tag_41\n    /* \"#utility.yul\":1463:1468   */\n  dup2\n    /* \"#utility.yul\":1445:1469   */\n  tag_19\n  jump\t// in\ntag_41:\n    /* \"#utility.yul\":1440:1443   */\n  dup3\n    /* \"#utility.yul\":1433:1470   */\n  mstore\n    /* \"#utility.yul\":1358:1476   */\n  pop\n  pop\n  jump\t// out\n    /* \"#utility.yul\":1482:1704   */\ntag_9:\n    /* \"#utility.yul\":1575:1579   */\n  0x00\n    /* \"#utility.yul\":1613:1615   */\n  0x20\n    /* \"#utility.yul\":1602:1611   */\n  dup3\n    /* \"#utility.yul\":1598:1616   */\n  add\n    /* \"#utility.yul\":1590:1616   */\n  swap1\n  pop\n    /* \"#utility.yul\":1626:1697   */\n  tag_43\n    /* \"#utility.yul\":1694:1695   */\n  0x00\n    /* \"#utility.yul\":1683:1692   */\n  dup4\n    /* \"#utility.yul\":1679:1696   */\n  add\n    /* \"#utility.yul\":1670:1676   */\n  dup5\n    /* \"#utility.yul\":1626:1697   */\n  tag_22\n  jump\t// in\ntag_43:\n    /* \"#utility.yul\":1482:1704   */\n  swap3\n  swap2\n  pop\n  pop\n  jump\t// out\n    /* \"contracts/4_credit.sol\":381:4981  contract RBTCDebitCard is Ownable {... */\ntag_13:\n  dataSize(sub_0)\n  dup1\n  dataOffset(sub_0)\n  0x00\n  codecopy\n  0x00\n  return\nstop\n\nsub_0: assembly {\n        /* \"contracts/4_credit.sol\":381:4981  contract RBTCDebitCard is Ownable {... */\n      mstore(0x40, 0x80)\n      callvalue\n      dup1\n      iszero\n      tag_1\n      jumpi\n      revert(0x00, 0x00)\n    tag_1:\n      pop\n      jumpi(tag_2, lt(calldatasize, 0x04))\n      shr(0xe0, calldataload(0x00))\n      dup1\n      0x73b4086b\n      gt\n      tag_14\n      jumpi\n      dup1\n      0x73b4086b\n      eq\n      tag_8\n      jumpi\n      dup1\n      0x84fc77e6\n      eq\n      tag_9\n      jumpi\n      dup1\n      0x8da5cb5b\n      eq\n      tag_10\n      jumpi\n      dup1\n      0xd37d937a\n      eq\n      tag_11\n      jumpi\n      dup1\n      0xd5a54a9e\n      eq\n      tag_12\n      jumpi\n      dup1\n      0xf2fde38b\n      eq\n      tag_13\n      jumpi\n      jump(tag_2)\n    tag_14:\n      dup1\n      0x0ecbcdab\n      eq\n      tag_3\n      jumpi\n      dup1\n      0x2f865568\n      eq\n      tag_4\n      jumpi\n      dup1\n      0x371fd8e6\n      eq\n      tag_5\n      jumpi\n      dup1\n      0x715018a6\n      eq\n      tag_6\n      jumpi\n      dup1\n      0x71bf8623\n      eq\n      tag_7\n      jumpi\n    tag_2:\n      revert(0x00, 0x00)\n        /* \"contracts/4_credit.sol\":1259:2159  function borrow(uint256 collateralAmount, uint256 borrowAmount) external {... */\n    tag_3:\n      tag_15\n      0x04\n      dup1\n      calldatasize\n      sub\n      dup2\n      add\n      swap1\n      tag_16\n      swap2\n      swap1\n      tag_17\n      jump\t// in\n    tag_16:\n      tag_18\n      jump\t// in\n    tag_15:\n      stop\n        /* \"contracts/4_credit.sol\":2912:3505  function liquidate(address user) external onlyOwner {... */\n    tag_4:\n      tag_19\n      0x04\n      dup1\n      calldatasize\n      sub\n      dup2\n      add\n      swap1\n      tag_20\n      swap2\n      swap1\n      tag_21\n      jump\t// in\n    tag_20:\n      tag_22\n      jump\t// in\n    tag_19:\n      stop\n        /* \"contracts/4_credit.sol\":2202:2867  function repay(uint256 amount) external {... */\n    tag_5:\n      tag_23\n      0x04\n      dup1\n      calldatasize\n      sub\n      dup2\n      add\n      swap1\n      tag_24\n      swap2\n      swap1\n      tag_25\n      jump\t// in\n    tag_24:\n      tag_26\n      jump\t// in\n    tag_23:\n      stop\n        /* \"@openzeppelin/contracts/access/Ownable.sol\":2293:2394  function renounceOwnership() public virtual onlyOwner {... */\n    tag_6:\n      tag_27\n      tag_28\n      jump\t// in\n    tag_27:\n      stop\n        /* \"contracts/4_credit.sol\":596:636  uint256 public constant BP_DENOM = 10000 */\n    tag_7:\n      tag_29\n      tag_30\n      jump\t// in\n    tag_29:\n      mload(0x40)\n      tag_31\n      swap2\n      swap1\n      tag_32\n      jump\t// in\n    tag_31:\n      mload(0x40)\n      dup1\n      swap2\n      sub\n      swap1\n      return\n        /* \"contracts/4_credit.sol\":804:841  mapping(address => Loan) public loans */\n    tag_8:\n      tag_33\n      0x04\n      dup1\n      calldatasize\n      sub\n      dup2\n      add\n      swap1\n      tag_34\n      swap2\n      swap1\n      tag_21\n      jump\t// in\n    tag_34:\n      tag_35\n      jump\t// in\n    tag_33:\n      mload(0x40)\n      tag_36\n      swap5\n      swap4\n      swap3\n      swap2\n      swap1\n      tag_37\n      jump\t// in\n    tag_36:\n      mload(0x40)\n      dup1\n      swap2\n      sub\n      swap1\n      return\n        /* \"contracts/4_credit.sol\":469:489  IERC20 public usdrif */\n    tag_9:\n      tag_38\n      tag_39\n      jump\t// in\n    tag_38:\n      mload(0x40)\n      tag_40\n      swap2\n      swap1\n      tag_41\n      jump\t// in\n    tag_40:\n      mload(0x40)\n      dup1\n      swap2\n      sub\n      swap1\n      return\n        /* \"@openzeppelin/contracts/access/Ownable.sol\":1638:1723  function owner() public view virtual returns (address) {... */\n    tag_10:\n      tag_42\n      tag_43\n      jump\t// in\n    tag_42:\n      mload(0x40)\n      tag_44\n      swap2\n      swap1\n      tag_45\n      jump\t// in\n    tag_44:\n      mload(0x40)\n      dup1\n      swap2\n      sub\n      swap1\n      return\n        /* \"contracts/4_credit.sol\":421:439  IERC20 public rBTC */\n    tag_11:\n      tag_46\n      tag_47\n      jump\t// in\n    tag_46:\n      mload(0x40)\n      tag_48\n      swap2\n      swap1\n      tag_41\n      jump\t// in\n    tag_48:\n      mload(0x40)\n      dup1\n      swap2\n      sub\n      swap1\n      return\n        /* \"contracts/4_credit.sol\":518:554  uint256 public monthlyInterest = 300 */\n    tag_12:\n      tag_49\n      tag_50\n      jump\t// in\n    tag_49:\n      mload(0x40)\n      tag_51\n      swap2\n      swap1\n      tag_32\n      jump\t// in\n    tag_51:\n      mload(0x40)\n      dup1\n      swap2\n      sub\n      swap1\n      return\n        /* \"@openzeppelin/contracts/access/Ownable.sol\":2543:2758  function transferOwnership(address newOwner) public virtual onlyOwner {... */\n    tag_13:\n      tag_52\n      0x04\n      dup1\n      calldatasize\n      sub\n      dup2\n      add\n      swap1\n      tag_53\n      swap2\n      swap1\n      tag_21\n      jump\t// in\n    tag_53:\n      tag_54\n      jump\t// in\n    tag_52:\n      stop\n        /* \"contracts/4_credit.sol\":1259:2159  function borrow(uint256 collateralAmount, uint256 borrowAmount) external {... */\n    tag_18:\n        /* \"contracts/4_credit.sol\":1369:1370  0 */\n      0x00\n        /* \"contracts/4_credit.sol\":1350:1366  collateralAmount */\n      dup3\n        /* \"contracts/4_credit.sol\":1350:1370  collateralAmount > 0 */\n      gt\n        /* \"contracts/4_credit.sol\":1350:1390  collateralAmount > 0 && borrowAmount > 0 */\n      dup1\n      iszero\n      tag_56\n      jumpi\n      pop\n        /* \"contracts/4_credit.sol\":1389:1390  0 */\n      0x00\n        /* \"contracts/4_credit.sol\":1374:1386  borrowAmount */\n      dup2\n        /* \"contracts/4_credit.sol\":1374:1390  borrowAmount > 0 */\n      gt\n        /* \"contracts/4_credit.sol\":1350:1390  collateralAmount > 0 && borrowAmount > 0 */\n    tag_56:\n        /* \"contracts/4_credit.sol\":1342:1410  require(collateralAmount > 0 && borrowAmount > 0, \"Invalid amounts\") */\n      tag_57\n      jumpi\n      mload(0x40)\n      0x08c379a000000000000000000000000000000000000000000000000000000000\n      dup2\n      mstore\n      0x04\n      add\n      tag_58\n      swap1\n      tag_59\n      jump\t// in\n    tag_58:\n      mload(0x40)\n      dup1\n      swap2\n      sub\n      swap1\n      revert\n    tag_57:\n        /* \"contracts/4_credit.sol\":1429:1434  loans */\n      0x04\n        /* \"contracts/4_credit.sol\":1429:1446  loans[msg.sender] */\n      0x00\n        /* \"contracts/4_credit.sol\":1435:1445  msg.sender */\n      caller\n        /* \"contracts/4_credit.sol\":1429:1446  loans[msg.sender] */\n      0xffffffffffffffffffffffffffffffffffffffff\n      and\n      0xffffffffffffffffffffffffffffffffffffffff\n      and\n      dup2\n      mstore\n      0x20\n      add\n      swap1\n      dup2\n      mstore\n      0x20\n      add\n      0x00\n      keccak256\n        /* \"contracts/4_credit.sol\":1429:1453  loans[msg.sender].active */\n      0x03\n      add\n      0x00\n      swap1\n      sload\n      swap1\n      0x0100\n      exp\n      swap1\n      div\n      0xff\n      and\n        /* \"contracts/4_credit.sol\":1428:1453  !loans[msg.sender].active */\n      iszero\n        /* \"contracts/4_credit.sol\":1420:1469  require(!loans[msg.sender].active, \"Loan exists\") */\n      tag_60\n      jumpi\n      mload(0x40)\n      0x08c379a000000000000000000000000000000000000000000000000000000000\n      dup2\n      mstore\n      0x04\n      add\n      tag_61\n      swap1\n      tag_62\n      jump\t// in\n    tag_61:\n      mload(0x40)\n      dup1\n      swap2\n      sub\n      swap1\n      revert\n    tag_60:\n        /* \"contracts/4_credit.sol\":1511:1515  rBTC */\n      0x01\n      0x00\n      swap1\n      sload\n      swap1\n      0x0100\n      exp\n      swap1\n      div\n      0xffffffffffffffffffffffffffffffffffffffff\n      and\n        /* \"contracts/4_credit.sol\":1511:1528  rBTC.transferFrom */\n      0xffffffffffffffffffffffffffffffffffffffff\n      and\n      0x23b872dd\n        /* \"contracts/4_credit.sol\":1529:1539  msg.sender */\n      caller\n        /* \"contracts/4_credit.sol\":1549:1553  this */\n      address\n        /* \"contracts/4_credit.sol\":1556:1572  collateralAmount */\n      dup6\n        /* \"contracts/4_credit.sol\":1511:1573  rBTC.transferFrom(msg.sender, address(this), collateralAmount) */\n      mload(0x40)\n      dup5\n      0xffffffff\n      and\n      0xe0\n      shl\n      dup2\n      mstore\n      0x04\n      add\n      tag_63\n      swap4\n      swap3\n      swap2\n      swap1\n      tag_64\n      jump\t// in\n    tag_63:\n      0x20\n      mload(0x40)\n      dup1\n      dup4\n      sub\n      dup2\n      0x00\n      dup8\n      gas\n      call\n      iszero\n      dup1\n      iszero\n      tag_66\n      jumpi\n      returndatacopy(0x00, 0x00, returndatasize)\n      revert(0x00, returndatasize)\n    tag_66:\n      pop\n      pop\n      pop\n      pop\n      mload(0x40)\n      returndatasize\n      not(0x1f)\n      0x1f\n      dup3\n      add\n      and\n      dup3\n      add\n      dup1\n      0x40\n      mstore\n      pop\n      dup2\n      add\n      swap1\n      tag_67\n      swap2\n      swap1\n      tag_68\n      jump\t// in\n    tag_67:\n      pop\n        /* \"contracts/4_credit.sol\":1700:1712  borrowAmount */\n      dup1\n        /* \"contracts/4_credit.sol\":1665:1671  usdrif */\n      0x02\n      0x00\n      swap1\n      sload\n      swap1\n      0x0100\n      exp\n      swap1\n      div\n      0xffffffffffffffffffffffffffffffffffffffff\n      and\n        /* \"contracts/4_credit.sol\":1665:1681  usdrif.balanceOf */\n      0xffffffffffffffffffffffffffffffffffffffff\n      and\n      0x70a08231\n        /* \"contracts/4_credit.sol\":1690:1694  this */\n      address\n        /* \"contracts/4_credit.sol\":1665:1696  usdrif.balanceOf(address(this)) */\n      mload(0x40)\n      dup3\n      0xffffffff\n      and\n      0xe0\n      shl\n      dup2\n      mstore\n      0x04\n      add\n      tag_69\n      swap2\n      swap1\n      tag_45\n      jump\t// in\n    tag_69:\n      0x20\n      mload(0x40)\n      dup1\n      dup4\n      sub\n      dup2\n      dup7\n      gas\n      staticcall\n      iszero\n      dup1\n      iszero\n      tag_71\n      jumpi\n      returndatacopy(0x00, 0x00, returndatasize)\n      revert(0x00, returndatasize)\n    tag_71:\n      pop\n      pop\n      pop\n      pop\n      mload(0x40)\n      returndatasize\n      not(0x1f)\n      0x1f\n      dup3\n      add\n      and\n      dup3\n      add\n      dup1\n      0x40\n      mstore\n      pop\n      dup2\n      add\n      swap1\n      tag_72\n      swap2\n      swap1\n      tag_73\n      jump\t// in\n    tag_72:\n        /* \"contracts/4_credit.sol\":1665:1712  usdrif.balanceOf(address(this)) >= borrowAmount */\n      lt\n      iszero\n        /* \"contracts/4_credit.sol\":1657:1746  require(usdrif.balanceOf(address(this)) >= borrowAmount, \"Insufficient USDRIF liquidity\") */\n      tag_74\n      jumpi\n      mload(0x40)\n      0x08c379a000000000000000000000000000000000000000000000000000000000\n      dup2\n      mstore\n      0x04\n      add\n      tag_75\n      swap1\n      tag_76\n      jump\t// in\n    tag_75:\n      mload(0x40)\n      dup1\n      swap2\n      sub\n      swap1\n      revert\n    tag_74:\n        /* \"contracts/4_credit.sol\":1756:1762  usdrif */\n      0x02\n      0x00\n      swap1\n      sload\n      swap1\n      0x0100\n      exp\n      swap1\n      div\n      0xffffffffffffffffffffffffffffffffffffffff\n      and\n        /* \"contracts/4_credit.sol\":1756:1771  usdrif.transfer */\n      0xffffffffffffffffffffffffffffffffffffffff\n      and\n      0xa9059cbb\n        /* \"contracts/4_credit.sol\":1772:1782  msg.sender */\n      caller\n        /* \"contracts/4_credit.sol\":1784:1796  borrowAmount */\n      dup4\n        /* \"contracts/4_credit.sol\":1756:1797  usdrif.transfer(msg.sender, borrowAmount) */\n      mload(0x40)\n      dup4\n      0xffffffff\n      and\n      0xe0\n      shl\n      dup2\n      mstore\n      0x04\n      add\n      tag_77\n      swap3\n      swap2\n      swap1\n      tag_78\n      jump\t// in\n    tag_77:\n      0x20\n      mload(0x40)\n      dup1\n      dup4\n      sub\n      dup2\n      0x00\n      dup8\n      gas\n      call\n      iszero\n      dup1\n      iszero\n      tag_80\n      jumpi\n      returndatacopy(0x00, 0x00, returndatasize)\n      revert(0x00, returndatasize)\n    tag_80:\n      pop\n      pop\n      pop\n      pop\n      mload(0x40)\n      returndatasize\n      not(0x1f)\n      0x1f\n      dup3\n      add\n      and\n      dup3\n      add\n      dup1\n      0x40\n      mstore\n      pop\n      dup2\n      add\n      swap1\n      tag_81\n      swap2\n      swap1\n      tag_68\n      jump\t// in\n    tag_81:\n      pop\n        /* \"contracts/4_credit.sol\":1859:1874  uint256 dueDate */\n      0x00\n        /* \"contracts/4_credit.sol\":1877:1894  _getNextDueDate() */\n      tag_82\n        /* \"contracts/4_credit.sol\":1877:1892  _getNextDueDate */\n      tag_83\n        /* \"contracts/4_credit.sol\":1877:1894  _getNextDueDate() */\n      jump\t// in\n    tag_82:\n        /* \"contracts/4_credit.sol\":1859:1894  uint256 dueDate = _getNextDueDate() */\n      swap1\n      pop\n        /* \"contracts/4_credit.sol\":1925:2075  Loan({... */\n      mload(0x40)\n      dup1\n      0x80\n      add\n      0x40\n      mstore\n      dup1\n        /* \"contracts/4_credit.sol\":1956:1972  collateralAmount */\n      dup5\n        /* \"contracts/4_credit.sol\":1925:2075  Loan({... */\n      dup2\n      mstore\n      0x20\n      add\n        /* \"contracts/4_credit.sol\":1992:2004  borrowAmount */\n      dup4\n        /* \"contracts/4_credit.sol\":1925:2075  Loan({... */\n      dup2\n      mstore\n      0x20\n      add\n        /* \"contracts/4_credit.sol\":2031:2038  dueDate */\n      dup3\n        /* \"contracts/4_credit.sol\":1925:2075  Loan({... */\n      dup2\n      mstore\n      0x20\n      add\n        /* \"contracts/4_credit.sol\":2060:2064  true */\n      0x01\n        /* \"contracts/4_credit.sol\":1925:2075  Loan({... */\n      iszero\n      iszero\n      dup2\n      mstore\n      pop\n        /* \"contracts/4_credit.sol\":1905:1910  loans */\n      0x04\n        /* \"contracts/4_credit.sol\":1905:1922  loans[msg.sender] */\n      0x00\n        /* \"contracts/4_credit.sol\":1911:1921  msg.sender */\n      caller\n        /* \"contracts/4_credit.sol\":1905:1922  loans[msg.sender] */\n      0xffffffffffffffffffffffffffffffffffffffff\n      and\n      0xffffffffffffffffffffffffffffffffffffffff\n      and\n      dup2\n      mstore\n      0x20\n      add\n      swap1\n      dup2\n      mstore\n      0x20\n      add\n      0x00\n      keccak256\n        /* \"contracts/4_credit.sol\":1905:2075  loans[msg.sender] = Loan({... */\n      0x00\n      dup3\n      add\n      mload\n      dup2\n      0x00\n      add\n      sstore\n      0x20\n      dup3\n      add\n      mload\n      dup2\n      0x01\n      add\n      sstore\n      0x40\n      dup3\n      add\n      mload\n      dup2\n      0x02\n      add\n      sstore\n      0x60\n      dup3\n      add\n      mload\n      dup2\n      0x03\n      add\n      exp(0x0100, 0x00)\n      dup2\n      sload\n      dup2\n      0xff\n      mul\n      not\n      and\n      swap1\n      dup4\n      iszero\n      iszero\n      mul\n      or\n      swap1\n      sstore\n      pop\n      swap1\n      pop\n      pop\n        /* \"contracts/4_credit.sol\":2100:2110  msg.sender */\n      caller\n        /* \"contracts/4_credit.sol\":2091:2152  Borrowed(msg.sender, collateralAmount, borrowAmount, dueDate) */\n      0xffffffffffffffffffffffffffffffffffffffff\n      and\n      0xc4381c9c7b508979896c55381c1cb8c2aef28d753cff7661f9cd87b9a14584f8\n        /* \"contracts/4_credit.sol\":2112:2128  collateralAmount */\n      dup5\n        /* \"contracts/4_credit.sol\":2130:2142  borrowAmount */\n      dup5\n        /* \"contracts/4_credit.sol\":2144:2151  dueDate */\n      dup5\n        /* \"contracts/4_credit.sol\":2091:2152  Borrowed(msg.sender, collateralAmount, borrowAmount, dueDate) */\n      mload(0x40)\n      tag_84\n      swap4\n      swap3\n      swap2\n      swap1\n      tag_85\n      jump\t// in\n    tag_84:\n      mload(0x40)\n      dup1\n      swap2\n      sub\n      swap1\n      log2\n        /* \"contracts/4_credit.sol\":1332:2159  {... */\n      pop\n        /* \"contracts/4_credit.sol\":1259:2159  function borrow(uint256 collateralAmount, uint256 borrowAmount) external {... */\n      pop\n      pop\n      jump\t// out\n        /* \"contracts/4_credit.sol\":2912:3505  function liquidate(address user) external onlyOwner {... */\n    tag_22:\n        /* \"@openzeppelin/contracts/access/Ownable.sol\":1531:1544  _checkOwner() */\n      tag_87\n        /* \"@openzeppelin/contracts/access/Ownable.sol\":1531:1542  _checkOwner */\n      tag_88\n        /* \"@openzeppelin/contracts/access/Ownable.sol\":1531:1544  _checkOwner() */\n      jump\t// in\n    tag_87:\n        /* \"contracts/4_credit.sol\":2974:2991  Loan storage loan */\n      0x00\n        /* \"contracts/4_credit.sol\":2994:2999  loans */\n      0x04\n        /* \"contracts/4_credit.sol\":2994:3005  loans[user] */\n      0x00\n        /* \"contracts/4_credit.sol\":3000:3004  user */\n      dup4\n        /* \"contracts/4_credit.sol\":2994:3005  loans[user] */\n      0xffffffffffffffffffffffffffffffffffffffff\n      and\n      0xffffffffffffffffffffffffffffffffffffffff\n      and\n      dup2\n      mstore\n      0x20\n      add\n      swap1\n      dup2\n      mstore\n      0x20\n      add\n      0x00\n      keccak256\n        /* \"contracts/4_credit.sol\":2974:3005  Loan storage loan = loans[user] */\n      swap1\n      pop\n        /* \"contracts/4_credit.sol\":3023:3027  loan */\n      dup1\n        /* \"contracts/4_credit.sol\":3023:3034  loan.active */\n      0x03\n      add\n      0x00\n      swap1\n      sload\n      swap1\n      0x0100\n      exp\n      swap1\n      div\n      0xff\n      and\n        /* \"contracts/4_credit.sol\":3015:3053  require(loan.active, \"No active loan\") */\n      tag_90\n      jumpi\n      mload(0x40)\n      0x08c379a000000000000000000000000000000000000000000000000000000000\n      dup2\n      mstore\n      0x04\n      add\n      tag_91\n      swap1\n      tag_92\n      jump\t// in\n    tag_91:\n      mload(0x40)\n      dup1\n      swap2\n      sub\n      swap1\n      revert\n    tag_90:\n        /* \"contracts/4_credit.sol\":3064:3084  _applyInterest(user) */\n      tag_93\n        /* \"contracts/4_credit.sol\":3079:3083  user */\n      dup3\n        /* \"contracts/4_credit.sol\":3064:3078  _applyInterest */\n      tag_94\n        /* \"contracts/4_credit.sol\":3064:3084  _applyInterest(user) */\n      jump\t// in\n    tag_93:\n        /* \"contracts/4_credit.sol\":3181:3185  loan */\n      dup1\n        /* \"contracts/4_credit.sol\":3181:3197  loan.lastDueDate */\n      0x02\n      add\n      sload\n        /* \"contracts/4_credit.sol\":3163:3178  block.timestamp */\n      timestamp\n        /* \"contracts/4_credit.sol\":3163:3197  block.timestamp > loan.lastDueDate */\n      gt\n        /* \"contracts/4_credit.sol\":3163:3214  block.timestamp > loan.lastDueDate && loan.debt > 0 */\n      dup1\n      iszero\n      tag_95\n      jumpi\n      pop\n        /* \"contracts/4_credit.sol\":3213:3214  0 */\n      0x00\n        /* \"contracts/4_credit.sol\":3201:3205  loan */\n      dup2\n        /* \"contracts/4_credit.sol\":3201:3210  loan.debt */\n      0x01\n      add\n      sload\n        /* \"contracts/4_credit.sol\":3201:3214  loan.debt > 0 */\n      gt\n        /* \"contracts/4_credit.sol\":3163:3214  block.timestamp > loan.lastDueDate && loan.debt > 0 */\n    tag_95:\n        /* \"contracts/4_credit.sol\":3159:3499  if (block.timestamp > loan.lastDueDate && loan.debt > 0) {... */\n      iszero\n      tag_96\n      jumpi\n        /* \"contracts/4_credit.sol\":3230:3248  uint256 collateral */\n      0x00\n        /* \"contracts/4_credit.sol\":3251:3255  loan */\n      dup2\n        /* \"contracts/4_credit.sol\":3251:3266  loan.collateral */\n      0x00\n      add\n      sload\n        /* \"contracts/4_credit.sol\":3230:3266  uint256 collateral = loan.collateral */\n      swap1\n      pop\n        /* \"contracts/4_credit.sol\":3294:3299  false */\n      0x00\n        /* \"contracts/4_credit.sol\":3280:3284  loan */\n      dup3\n        /* \"contracts/4_credit.sol\":3280:3291  loan.active */\n      0x03\n      add\n      0x00\n        /* \"contracts/4_credit.sol\":3280:3299  loan.active = false */\n      0x0100\n      exp\n      dup2\n      sload\n      dup2\n      0xff\n      mul\n      not\n      and\n      swap1\n      dup4\n      iszero\n      iszero\n      mul\n      or\n      swap1\n      sstore\n      pop\n        /* \"contracts/4_credit.sol\":3331:3332  0 */\n      0x00\n        /* \"contracts/4_credit.sol\":3313:3317  loan */\n      dup3\n        /* \"contracts/4_credit.sol\":3313:3328  loan.collateral */\n      0x00\n      add\n        /* \"contracts/4_credit.sol\":3313:3332  loan.collateral = 0 */\n      dup2\n      swap1\n      sstore\n      pop\n        /* \"contracts/4_credit.sol\":3406:3410  rBTC */\n      0x01\n      0x00\n      swap1\n      sload\n      swap1\n      0x0100\n      exp\n      swap1\n      div\n      0xffffffffffffffffffffffffffffffffffffffff\n      and\n        /* \"contracts/4_credit.sol\":3406:3419  rBTC.transfer */\n      0xffffffffffffffffffffffffffffffffffffffff\n      and\n      0xa9059cbb\n        /* \"contracts/4_credit.sol\":3420:3427  owner() */\n      tag_97\n        /* \"contracts/4_credit.sol\":3420:3425  owner */\n      tag_43\n        /* \"contracts/4_credit.sol\":3420:3427  owner() */\n      jump\t// in\n    tag_97:\n        /* \"contracts/4_credit.sol\":3429:3439  collateral */\n      dup4\n        /* \"contracts/4_credit.sol\":3406:3440  rBTC.transfer(owner(), collateral) */\n      mload(0x40)\n      dup4\n      0xffffffff\n      and\n      0xe0\n      shl\n      dup2\n      mstore\n      0x04\n      add\n      tag_98\n      swap3\n      swap2\n      swap1\n      tag_78\n      jump\t// in\n    tag_98:\n      0x20\n      mload(0x40)\n      dup1\n      dup4\n      sub\n      dup2\n      0x00\n      dup8\n      gas\n      call\n      iszero\n      dup1\n      iszero\n      tag_100\n      jumpi\n      returndatacopy(0x00, 0x00, returndatasize)\n      revert(0x00, returndatasize)\n    tag_100:\n      pop\n      pop\n      pop\n      pop\n      mload(0x40)\n      returndatasize\n      not(0x1f)\n      0x1f\n      dup3\n      add\n      and\n      dup3\n      add\n      dup1\n      0x40\n      mstore\n      pop\n      dup2\n      add\n      swap1\n      tag_101\n      swap2\n      swap1\n      tag_68\n      jump\t// in\n    tag_101:\n      pop\n        /* \"contracts/4_credit.sol\":3471:3475  user */\n      dup3\n        /* \"contracts/4_credit.sol\":3460:3488  Liquidated(user, collateral) */\n      0xffffffffffffffffffffffffffffffffffffffff\n      and\n      0xa5ee7a2b0254fce91deed604506790ed7fa072d0b14cba4859c3bc8955b9caac\n        /* \"contracts/4_credit.sol\":3477:3487  collateral */\n      dup3\n        /* \"contracts/4_credit.sol\":3460:3488  Liquidated(user, collateral) */\n      mload(0x40)\n      tag_102\n      swap2\n      swap1\n      tag_32\n      jump\t// in\n    tag_102:\n      mload(0x40)\n      dup1\n      swap2\n      sub\n      swap1\n      log2\n        /* \"contracts/4_credit.sol\":3216:3499  {... */\n      pop\n        /* \"contracts/4_credit.sol\":3159:3499  if (block.timestamp > loan.lastDueDate && loan.debt > 0) {... */\n    tag_96:\n        /* \"contracts/4_credit.sol\":2964:3505  {... */\n      pop\n        /* \"contracts/4_credit.sol\":2912:3505  function liquidate(address user) external onlyOwner {... */\n      pop\n      jump\t// out\n        /* \"contracts/4_credit.sol\":2202:2867  function repay(uint256 amount) external {... */\n    tag_26:\n        /* \"contracts/4_credit.sol\":2252:2269  Loan storage loan */\n      0x00\n        /* \"contracts/4_credit.sol\":2272:2277  loans */\n      0x04\n        /* \"contracts/4_credit.sol\":2272:2289  loans[msg.sender] */\n      0x00\n        /* \"contracts/4_credit.sol\":2278:2288  msg.sender */\n      caller\n        /* \"contracts/4_credit.sol\":2272:2289  loans[msg.sender] */\n      0xffffffffffffffffffffffffffffffffffffffff\n      and\n      0xffffffffffffffffffffffffffffffffffffffff\n      and\n      dup2\n      mstore\n      0x20\n      add\n      swap1\n      dup2\n      mstore\n      0x20\n      add\n      0x00\n      keccak256\n        /* \"contracts/4_credit.sol\":2252:2289  Loan storage loan = loans[msg.sender] */\n      swap1\n      pop\n        /* \"contracts/4_credit.sol\":2307:2311  loan */\n      dup1\n        /* \"contracts/4_credit.sol\":2307:2318  loan.active */\n      0x03\n      add\n      0x00\n      swap1\n      sload\n      swap1\n      0x0100\n      exp\n      swap1\n      div\n      0xff\n      and\n        /* \"contracts/4_credit.sol\":2299:2337  require(loan.active, \"No active loan\") */\n      tag_104\n      jumpi\n      mload(0x40)\n      0x08c379a000000000000000000000000000000000000000000000000000000000\n      dup2\n      mstore\n      0x04\n      add\n      tag_105\n      swap1\n      tag_92\n      jump\t// in\n    tag_105:\n      mload(0x40)\n      dup1\n      swap2\n      sub\n      swap1\n      revert\n    tag_104:\n        /* \"contracts/4_credit.sol\":2386:2412  _applyInterest(msg.sender) */\n      tag_106\n        /* \"contracts/4_credit.sol\":2401:2411  msg.sender */\n      caller\n        /* \"contracts/4_credit.sol\":2386:2400  _applyInterest */\n      tag_94\n        /* \"contracts/4_credit.sol\":2386:2412  _applyInterest(msg.sender) */\n      jump\t// in\n    tag_106:\n        /* \"contracts/4_credit.sol\":2440:2441  0 */\n      0x00\n        /* \"contracts/4_credit.sol\":2431:2437  amount */\n      dup3\n        /* \"contracts/4_credit.sol\":2431:2441  amount > 0 */\n      gt\n        /* \"contracts/4_credit.sol\":2431:2464  amount > 0 && amount <= loan.debt */\n      dup1\n      iszero\n      tag_107\n      jumpi\n      pop\n        /* \"contracts/4_credit.sol\":2455:2459  loan */\n      dup1\n        /* \"contracts/4_credit.sol\":2455:2464  loan.debt */\n      0x01\n      add\n      sload\n        /* \"contracts/4_credit.sol\":2445:2451  amount */\n      dup3\n        /* \"contracts/4_credit.sol\":2445:2464  amount <= loan.debt */\n      gt\n      iszero\n        /* \"contracts/4_credit.sol\":2431:2464  amount > 0 && amount <= loan.debt */\n    tag_107:\n        /* \"contracts/4_credit.sol\":2423:2493  require(amount > 0 && amount <= loan.debt, \"Invalid repayment amount\") */\n      tag_108\n      jumpi\n      mload(0x40)\n      0x08c379a000000000000000000000000000000000000000000000000000000000\n      dup2\n      mstore\n      0x04\n      add\n      tag_109\n      swap1\n      tag_110\n      jump\t// in\n    tag_109:\n      mload(0x40)\n      dup1\n      swap2\n      sub\n      swap1\n      revert\n    tag_108:\n        /* \"contracts/4_credit.sol\":2503:2509  usdrif */\n      0x02\n      0x00\n      swap1\n      sload\n      swap1\n      0x0100\n      exp\n      swap1\n      div\n      0xffffffffffffffffffffffffffffffffffffffff\n      and\n        /* \"contracts/4_credit.sol\":2503:2522  usdrif.transferFrom */\n      0xffffffffffffffffffffffffffffffffffffffff\n      and\n      0x23b872dd\n        /* \"contracts/4_credit.sol\":2523:2533  msg.sender */\n      caller\n        /* \"contracts/4_credit.sol\":2543:2547  this */\n      address\n        /* \"contracts/4_credit.sol\":2550:2556  amount */\n      dup6\n        /* \"contracts/4_credit.sol\":2503:2557  usdrif.transferFrom(msg.sender, address(this), amount) */\n      mload(0x40)\n      dup5\n      0xffffffff\n      and\n      0xe0\n      shl\n      dup2\n      mstore\n      0x04\n      add\n      tag_111\n      swap4\n      swap3\n      swap2\n      swap1\n      tag_64\n      jump\t// in\n    tag_111:\n      0x20\n      mload(0x40)\n      dup1\n      dup4\n      sub\n      dup2\n      0x00\n      dup8\n      gas\n      call\n      iszero\n      dup1\n      iszero\n      tag_113\n      jumpi\n      returndatacopy(0x00, 0x00, returndatasize)\n      revert(0x00, returndatasize)\n    tag_113:\n      pop\n      pop\n      pop\n      pop\n      mload(0x40)\n      returndatasize\n      not(0x1f)\n      0x1f\n      dup3\n      add\n      and\n      dup3\n      add\n      dup1\n      0x40\n      mstore\n      pop\n      dup2\n      add\n      swap1\n      tag_114\n      swap2\n      swap1\n      tag_68\n      jump\t// in\n    tag_114:\n      pop\n        /* \"contracts/4_credit.sol\":2581:2587  amount */\n      dup2\n        /* \"contracts/4_credit.sol\":2568:2572  loan */\n      dup2\n        /* \"contracts/4_credit.sol\":2568:2577  loan.debt */\n      0x01\n      add\n      0x00\n        /* \"contracts/4_credit.sol\":2568:2587  loan.debt -= amount */\n      dup3\n      dup3\n      sload\n      tag_115\n      swap2\n      swap1\n      tag_116\n      jump\t// in\n    tag_115:\n      swap3\n      pop\n      pop\n      dup2\n      swap1\n      sstore\n      pop\n        /* \"contracts/4_credit.sol\":2638:2639  0 */\n      0x00\n        /* \"contracts/4_credit.sol\":2625:2629  loan */\n      dup2\n        /* \"contracts/4_credit.sol\":2625:2634  loan.debt */\n      0x01\n      add\n      sload\n        /* \"contracts/4_credit.sol\":2625:2639  loan.debt == 0 */\n      sub\n        /* \"contracts/4_credit.sol\":2621:2819  if (loan.debt == 0) {... */\n      tag_117\n      jumpi\n        /* \"contracts/4_credit.sol\":2655:2673  uint256 collateral */\n      0x00\n        /* \"contracts/4_credit.sol\":2676:2680  loan */\n      dup2\n        /* \"contracts/4_credit.sol\":2676:2691  loan.collateral */\n      0x00\n      add\n      sload\n        /* \"contracts/4_credit.sol\":2655:2691  uint256 collateral = loan.collateral */\n      swap1\n      pop\n        /* \"contracts/4_credit.sol\":2719:2724  false */\n      0x00\n        /* \"contracts/4_credit.sol\":2705:2709  loan */\n      dup3\n        /* \"contracts/4_credit.sol\":2705:2716  loan.active */\n      0x03\n      add\n      0x00\n        /* \"contracts/4_credit.sol\":2705:2724  loan.active = false */\n      0x0100\n      exp\n      dup2\n      sload\n      dup2\n      0xff\n      mul\n      not\n      and\n      swap1\n      dup4\n      iszero\n      iszero\n      mul\n      or\n      swap1\n      sstore\n      pop\n        /* \"contracts/4_credit.sol\":2756:2757  0 */\n      0x00\n        /* \"contracts/4_credit.sol\":2738:2742  loan */\n      dup3\n        /* \"contracts/4_credit.sol\":2738:2753  loan.collateral */\n      0x00\n      add\n        /* \"contracts/4_credit.sol\":2738:2757  loan.collateral = 0 */\n      dup2\n      swap1\n      sstore\n      pop\n        /* \"contracts/4_credit.sol\":2771:2775  rBTC */\n      0x01\n      0x00\n      swap1\n      sload\n      swap1\n      0x0100\n      exp\n      swap1\n      div\n      0xffffffffffffffffffffffffffffffffffffffff\n      and\n        /* \"contracts/4_credit.sol\":2771:2784  rBTC.transfer */\n      0xffffffffffffffffffffffffffffffffffffffff\n      and\n      0xa9059cbb\n        /* \"contracts/4_credit.sol\":2785:2795  msg.sender */\n      caller\n        /* \"contracts/4_credit.sol\":2797:2807  collateral */\n      dup4\n        /* \"contracts/4_credit.sol\":2771:2808  rBTC.transfer(msg.sender, collateral) */\n      mload(0x40)\n      dup4\n      0xffffffff\n      and\n      0xe0\n      shl\n      dup2\n      mstore\n      0x04\n      add\n      tag_118\n      swap3\n      swap2\n      swap1\n      tag_78\n      jump\t// in\n    tag_118:\n      0x20\n      mload(0x40)\n      dup1\n      dup4\n      sub\n      dup2\n      0x00\n      dup8\n      gas\n      call\n      iszero\n      dup1\n      iszero\n      tag_120\n      jumpi\n      returndatacopy(0x00, 0x00, returndatasize)\n      revert(0x00, returndatasize)\n    tag_120:\n      pop\n      pop\n      pop\n      pop\n      mload(0x40)\n      returndatasize\n      not(0x1f)\n      0x1f\n      dup3\n      add\n      and\n      dup3\n      add\n      dup1\n      0x40\n      mstore\n      pop\n      dup2\n      add\n      swap1\n      tag_121\n      swap2\n      swap1\n      tag_68\n      jump\t// in\n    tag_121:\n      pop\n        /* \"contracts/4_credit.sol\":2641:2819  {... */\n      pop\n        /* \"contracts/4_credit.sol\":2621:2819  if (loan.debt == 0) {... */\n    tag_117:\n        /* \"contracts/4_credit.sol\":2841:2851  msg.sender */\n      caller\n        /* \"contracts/4_credit.sol\":2834:2860  Repaid(msg.sender, amount) */\n      0xffffffffffffffffffffffffffffffffffffffff\n      and\n      0x0516911bcc3a0a7412a44601057c0a0a1ec628bde049a84284bc428866534488\n        /* \"contracts/4_credit.sol\":2853:2859  amount */\n      dup4\n        /* \"contracts/4_credit.sol\":2834:2860  Repaid(msg.sender, amount) */\n      mload(0x40)\n      tag_122\n      swap2\n      swap1\n      tag_32\n      jump\t// in\n    tag_122:\n      mload(0x40)\n      dup1\n      swap2\n      sub\n      swap1\n      log2\n        /* \"contracts/4_credit.sol\":2242:2867  {... */\n      pop\n        /* \"contracts/4_credit.sol\":2202:2867  function repay(uint256 amount) external {... */\n      pop\n      jump\t// out\n        /* \"@openzeppelin/contracts/access/Ownable.sol\":2293:2394  function renounceOwnership() public virtual onlyOwner {... */\n    tag_28:\n        /* \"@openzeppelin/contracts/access/Ownable.sol\":1531:1544  _checkOwner() */\n      tag_124\n        /* \"@openzeppelin/contracts/access/Ownable.sol\":1531:1542  _checkOwner */\n      tag_88\n        /* \"@openzeppelin/contracts/access/Ownable.sol\":1531:1544  _checkOwner() */\n      jump\t// in\n    tag_124:\n        /* \"@openzeppelin/contracts/access/Ownable.sol\":2357:2387  _transferOwnership(address(0)) */\n      tag_126\n        /* \"@openzeppelin/contracts/access/Ownable.sol\":2384:2385  0 */\n      0x00\n        /* \"@openzeppelin/contracts/access/Ownable.sol\":2357:2375  _transferOwnership */\n      tag_127\n        /* \"@openzeppelin/contracts/access/Ownable.sol\":2357:2387  _transferOwnership(address(0)) */\n      jump\t// in\n    tag_126:\n        /* \"@openzeppelin/contracts/access/Ownable.sol\":2293:2394  function renounceOwnership() public virtual onlyOwner {... */\n      jump\t// out\n        /* \"contracts/4_credit.sol\":596:636  uint256 public constant BP_DENOM = 10000 */\n    tag_30:\n        /* \"contracts/4_credit.sol\":631:636  10000 */\n      0x2710\n        /* \"contracts/4_credit.sol\":596:636  uint256 public constant BP_DENOM = 10000 */\n      dup2\n      jump\t// out\n        /* \"contracts/4_credit.sol\":804:841  mapping(address => Loan) public loans */\n    tag_35:\n      mstore(0x20, 0x04)\n      dup1\n      0x00\n      mstore\n      keccak256(0x00, 0x40)\n      0x00\n      swap2\n      pop\n      swap1\n      pop\n      dup1\n      0x00\n      add\n      sload\n      swap1\n      dup1\n      0x01\n      add\n      sload\n      swap1\n      dup1\n      0x02\n      add\n      sload\n      swap1\n      dup1\n      0x03\n      add\n      0x00\n      swap1\n      sload\n      swap1\n      0x0100\n      exp\n      swap1\n      div\n      0xff\n      and\n      swap1\n      pop\n      dup5\n      jump\t// out\n        /* \"contracts/4_credit.sol\":469:489  IERC20 public usdrif */\n    tag_39:\n      0x02\n      0x00\n      swap1\n      sload\n      swap1\n      0x0100\n      exp\n      swap1\n      div\n      0xffffffffffffffffffffffffffffffffffffffff\n      and\n      dup2\n      jump\t// out\n        /* \"@openzeppelin/contracts/access/Ownable.sol\":1638:1723  function owner() public view virtual returns (address) {... */\n    tag_43:\n        /* \"@openzeppelin/contracts/access/Ownable.sol\":1684:1691  address */\n      0x00\n        /* \"@openzeppelin/contracts/access/Ownable.sol\":1710:1716  _owner */\n      0x00\n      0x00\n      swap1\n      sload\n      swap1\n      0x0100\n      exp\n      swap1\n      div\n      0xffffffffffffffffffffffffffffffffffffffff\n      and\n        /* \"@openzeppelin/contracts/access/Ownable.sol\":1703:1716  return _owner */\n      swap1\n      pop\n        /* \"@openzeppelin/contracts/access/Ownable.sol\":1638:1723  function owner() public view virtual returns (address) {... */\n      swap1\n      jump\t// out\n        /* \"contracts/4_credit.sol\":421:439  IERC20 public rBTC */\n    tag_47:\n      0x01\n      0x00\n      swap1\n      sload\n      swap1\n      0x0100\n      exp\n      swap1\n      div\n      0xffffffffffffffffffffffffffffffffffffffff\n      and\n      dup2\n      jump\t// out\n        /* \"contracts/4_credit.sol\":518:554  uint256 public monthlyInterest = 300 */\n    tag_50:\n      sload(0x03)\n      dup2\n      jump\t// out\n        /* \"@openzeppelin/contracts/access/Ownable.sol\":2543:2758  function transferOwnership(address newOwner) public virtual onlyOwner {... */\n    tag_54:\n        /* \"@openzeppelin/contracts/access/Ownable.sol\":1531:1544  _checkOwner() */\n      tag_130\n        /* \"@openzeppelin/contracts/access/Ownable.sol\":1531:1542  _checkOwner */\n      tag_88\n        /* \"@openzeppelin/contracts/access/Ownable.sol\":1531:1544  _checkOwner() */\n      jump\t// in\n    tag_130:\n        /* \"@openzeppelin/contracts/access/Ownable.sol\":2647:2648  0 */\n      0x00\n        /* \"@openzeppelin/contracts/access/Ownable.sol\":2627:2649  newOwner == address(0) */\n      0xffffffffffffffffffffffffffffffffffffffff\n      and\n        /* \"@openzeppelin/contracts/access/Ownable.sol\":2627:2635  newOwner */\n      dup2\n        /* \"@openzeppelin/contracts/access/Ownable.sol\":2627:2649  newOwner == address(0) */\n      0xffffffffffffffffffffffffffffffffffffffff\n      and\n      sub\n        /* \"@openzeppelin/contracts/access/Ownable.sol\":2623:2714  if (newOwner == address(0)) {... */\n      tag_132\n      jumpi\n        /* \"@openzeppelin/contracts/access/Ownable.sol\":2700:2701  0 */\n      0x00\n        /* \"@openzeppelin/contracts/access/Ownable.sol\":2672:2703  OwnableInvalidOwner(address(0)) */\n      mload(0x40)\n      0x1e4fbdf700000000000000000000000000000000000000000000000000000000\n      dup2\n      mstore\n      0x04\n      add\n      tag_133\n      swap2\n      swap1\n      tag_45\n      jump\t// in\n    tag_133:\n      mload(0x40)\n      dup1\n      swap2\n      sub\n      swap1\n      revert\n        /* \"@openzeppelin/contracts/access/Ownable.sol\":2623:2714  if (newOwner == address(0)) {... */\n    tag_132:\n        /* \"@openzeppelin/contracts/access/Ownable.sol\":2723:2751  _transferOwnership(newOwner) */\n      tag_134\n        /* \"@openzeppelin/contracts/access/Ownable.sol\":2742:2750  newOwner */\n      dup2\n        /* \"@openzeppelin/contracts/access/Ownable.sol\":2723:2741  _transferOwnership */\n      tag_127\n        /* \"@openzeppelin/contracts/access/Ownable.sol\":2723:2751  _transferOwnership(newOwner) */\n      jump\t// in\n    tag_134:\n        /* \"@openzeppelin/contracts/access/Ownable.sol\":2543:2758  function transferOwnership(address newOwner) public virtual onlyOwner {... */\n      pop\n      jump\t// out\n        /* \"contracts/4_credit.sol\":4026:4453  function _getNextDueDate() internal view returns (uint256) {... */\n    tag_83:\n        /* \"contracts/4_credit.sol\":4076:4083  uint256 */\n      0x00\n        /* \"contracts/4_credit.sol\":4166:4178  uint256 year */\n      0x00\n        /* \"contracts/4_credit.sol\":4180:4193  uint256 month */\n      0x00\n        /* \"contracts/4_credit.sol\":4195:4206  uint256 day */\n      0x00\n        /* \"contracts/4_credit.sol\":4210:4243  _timestampToDate(block.timestamp) */\n      tag_136\n        /* \"contracts/4_credit.sol\":4227:4242  block.timestamp */\n      timestamp\n        /* \"contracts/4_credit.sol\":4210:4226  _timestampToDate */\n      tag_137\n        /* \"contracts/4_credit.sol\":4210:4243  _timestampToDate(block.timestamp) */\n      jump\t// in\n    tag_136:\n        /* \"contracts/4_credit.sol\":4165:4243  (uint256 year, uint256 month, uint256 day) = _timestampToDate(block.timestamp) */\n      swap3\n      pop\n      swap3\n      pop\n      swap3\n      pop\n        /* \"contracts/4_credit.sol\":4264:4266  25 */\n      0x19\n        /* \"contracts/4_credit.sol\":4257:4260  day */\n      dup2\n        /* \"contracts/4_credit.sol\":4257:4266  day >= 25 */\n      lt\n        /* \"contracts/4_credit.sol\":4253:4401  if (day >= 25) {... */\n      tag_138\n      jumpi\n        /* \"contracts/4_credit.sol\":4291:4292  1 */\n      0x01\n        /* \"contracts/4_credit.sol\":4282:4292  month += 1 */\n      dup3\n      tag_139\n      swap2\n      swap1\n      tag_140\n      jump\t// in\n    tag_139:\n      swap2\n      pop\n        /* \"contracts/4_credit.sol\":4318:4320  12 */\n      0x0c\n        /* \"contracts/4_credit.sol\":4310:4315  month */\n      dup3\n        /* \"contracts/4_credit.sol\":4310:4320  month > 12 */\n      gt\n        /* \"contracts/4_credit.sol\":4306:4391  if (month > 12) {... */\n      iszero\n      tag_141\n      jumpi\n        /* \"contracts/4_credit.sol\":4348:4349  1 */\n      0x01\n        /* \"contracts/4_credit.sol\":4340:4349  month = 1 */\n      swap2\n      pop\n        /* \"contracts/4_credit.sol\":4375:4376  1 */\n      0x01\n        /* \"contracts/4_credit.sol\":4367:4376  year += 1 */\n      dup4\n      tag_142\n      swap2\n      swap1\n      tag_140\n      jump\t// in\n    tag_142:\n      swap3\n      pop\n        /* \"contracts/4_credit.sol\":4306:4391  if (month > 12) {... */\n    tag_141:\n        /* \"contracts/4_credit.sol\":4253:4401  if (day >= 25) {... */\n    tag_138:\n        /* \"contracts/4_credit.sol\":4417:4446  _toTimestamp(year, month, 25) */\n      tag_143\n        /* \"contracts/4_credit.sol\":4430:4434  year */\n      dup4\n        /* \"contracts/4_credit.sol\":4436:4441  month */\n      dup4\n        /* \"contracts/4_credit.sol\":4443:4445  25 */\n      0x19\n        /* \"contracts/4_credit.sol\":4417:4429  _toTimestamp */\n      tag_144\n        /* \"contracts/4_credit.sol\":4417:4446  _toTimestamp(year, month, 25) */\n      jump\t// in\n    tag_143:\n        /* \"contracts/4_credit.sol\":4410:4446  return _toTimestamp(year, month, 25) */\n      swap4\n      pop\n      pop\n      pop\n      pop\n        /* \"contracts/4_credit.sol\":4026:4453  function _getNextDueDate() internal view returns (uint256) {... */\n      swap1\n      jump\t// out\n        /* \"@openzeppelin/contracts/access/Ownable.sol\":1796:1958  function _checkOwner() internal view virtual {... */\n    tag_88:\n        /* \"@openzeppelin/contracts/access/Ownable.sol\":1866:1878  _msgSender() */\n      tag_146\n        /* \"@openzeppelin/contracts/access/Ownable.sol\":1866:1876  _msgSender */\n      tag_147\n        /* \"@openzeppelin/contracts/access/Ownable.sol\":1866:1878  _msgSender() */\n      jump\t// in\n    tag_146:\n        /* \"@openzeppelin/contracts/access/Ownable.sol\":1855:1878  owner() != _msgSender() */\n      0xffffffffffffffffffffffffffffffffffffffff\n      and\n        /* \"@openzeppelin/contracts/access/Ownable.sol\":1855:1862  owner() */\n      tag_148\n        /* \"@openzeppelin/contracts/access/Ownable.sol\":1855:1860  owner */\n      tag_43\n        /* \"@openzeppelin/contracts/access/Ownable.sol\":1855:1862  owner() */\n      jump\t// in\n    tag_148:\n        /* \"@openzeppelin/contracts/access/Ownable.sol\":1855:1878  owner() != _msgSender() */\n      0xffffffffffffffffffffffffffffffffffffffff\n      and\n      eq\n        /* \"@openzeppelin/contracts/access/Ownable.sol\":1851:1952  if (owner() != _msgSender()) {... */\n      tag_149\n      jumpi\n        /* \"@openzeppelin/contracts/access/Ownable.sol\":1928:1940  _msgSender() */\n      tag_150\n        /* \"@openzeppelin/contracts/access/Ownable.sol\":1928:1938  _msgSender */\n      tag_147\n        /* \"@openzeppelin/contracts/access/Ownable.sol\":1928:1940  _msgSender() */\n      jump\t// in\n    tag_150:\n        /* \"@openzeppelin/contracts/access/Ownable.sol\":1901:1941  OwnableUnauthorizedAccount(_msgSender()) */\n      mload(0x40)\n      0x118cdaa700000000000000000000000000000000000000000000000000000000\n      dup2\n      mstore\n      0x04\n      add\n      tag_151\n      swap2\n      swap1\n      tag_45\n      jump\t// in\n    tag_151:\n      mload(0x40)\n      dup1\n      swap2\n      sub\n      swap1\n      revert\n        /* \"@openzeppelin/contracts/access/Ownable.sol\":1851:1952  if (owner() != _msgSender()) {... */\n    tag_149:\n        /* \"@openzeppelin/contracts/access/Ownable.sol\":1796:1958  function _checkOwner() internal view virtual {... */\n      jump\t// out\n        /* \"contracts/4_credit.sol\":3549:3981  function _applyInterest(address user) internal {... */\n    tag_94:\n        /* \"contracts/4_credit.sol\":3606:3623  Loan storage loan */\n      0x00\n        /* \"contracts/4_credit.sol\":3626:3631  loans */\n      0x04\n        /* \"contracts/4_credit.sol\":3626:3637  loans[user] */\n      0x00\n        /* \"contracts/4_credit.sol\":3632:3636  user */\n      dup4\n        /* \"contracts/4_credit.sol\":3626:3637  loans[user] */\n      0xffffffffffffffffffffffffffffffffffffffff\n      and\n      0xffffffffffffffffffffffffffffffffffffffff\n      and\n      dup2\n      mstore\n      0x20\n      add\n      swap1\n      dup2\n      mstore\n      0x20\n      add\n      0x00\n      keccak256\n        /* \"contracts/4_credit.sol\":3606:3637  Loan storage loan = loans[user] */\n      swap1\n      pop\n        /* \"contracts/4_credit.sol\":3651:3655  loan */\n      dup1\n        /* \"contracts/4_credit.sol\":3651:3662  loan.active */\n      0x03\n      add\n      0x00\n      swap1\n      sload\n      swap1\n      0x0100\n      exp\n      swap1\n      div\n      0xff\n      and\n        /* \"contracts/4_credit.sol\":3651:3700  loan.active && block.timestamp > loan.lastDueDate */\n      dup1\n      iszero\n      tag_153\n      jumpi\n      pop\n        /* \"contracts/4_credit.sol\":3684:3688  loan */\n      dup1\n        /* \"contracts/4_credit.sol\":3684:3700  loan.lastDueDate */\n      0x02\n      add\n      sload\n        /* \"contracts/4_credit.sol\":3666:3681  block.timestamp */\n      timestamp\n        /* \"contracts/4_credit.sol\":3666:3700  block.timestamp > loan.lastDueDate */\n      gt\n        /* \"contracts/4_credit.sol\":3651:3700  loan.active && block.timestamp > loan.lastDueDate */\n    tag_153:\n        /* \"contracts/4_credit.sol\":3647:3975  if (loan.active && block.timestamp > loan.lastDueDate) {... */\n      iszero\n      tag_154\n      jumpi\n        /* \"contracts/4_credit.sol\":3716:3737  uint256 monthsOverdue */\n      0x00\n        /* \"contracts/4_credit.sol\":3789:3790  1 */\n      0x01\n        /* \"contracts/4_credit.sol\":3779:3786  30 days */\n      0x278d00\n        /* \"contracts/4_credit.sol\":3759:3763  loan */\n      dup4\n        /* \"contracts/4_credit.sol\":3759:3775  loan.lastDueDate */\n      0x02\n      add\n      sload\n        /* \"contracts/4_credit.sol\":3741:3756  block.timestamp */\n      timestamp\n        /* \"contracts/4_credit.sol\":3741:3775  block.timestamp - loan.lastDueDate */\n      tag_155\n      swap2\n      swap1\n      tag_116\n      jump\t// in\n    tag_155:\n        /* \"contracts/4_credit.sol\":3740:3786  (block.timestamp - loan.lastDueDate) / 30 days */\n      tag_156\n      swap2\n      swap1\n      tag_157\n      jump\t// in\n    tag_156:\n        /* \"contracts/4_credit.sol\":3740:3790  (block.timestamp - loan.lastDueDate) / 30 days + 1 */\n      tag_158\n      swap2\n      swap1\n      tag_140\n      jump\t// in\n    tag_158:\n        /* \"contracts/4_credit.sol\":3716:3790  uint256 monthsOverdue = (block.timestamp - loan.lastDueDate) / 30 days + 1 */\n      swap1\n      pop\n        /* \"contracts/4_credit.sol\":3804:3820  uint256 interest */\n      0x00\n        /* \"contracts/4_credit.sol\":631:636  10000 */\n      0x2710\n        /* \"contracts/4_credit.sol\":3854:3867  monthsOverdue */\n      dup3\n        /* \"contracts/4_credit.sol\":3836:3851  monthlyInterest */\n      sload(0x03)\n        /* \"contracts/4_credit.sol\":3824:3828  loan */\n      dup6\n        /* \"contracts/4_credit.sol\":3824:3833  loan.debt */\n      0x01\n      add\n      sload\n        /* \"contracts/4_credit.sol\":3824:3851  loan.debt * monthlyInterest */\n      tag_159\n      swap2\n      swap1\n      tag_160\n      jump\t// in\n    tag_159:\n        /* \"contracts/4_credit.sol\":3824:3867  loan.debt * monthlyInterest * monthsOverdue */\n      tag_161\n      swap2\n      swap1\n      tag_160\n      jump\t// in\n    tag_161:\n        /* \"contracts/4_credit.sol\":3823:3879  (loan.debt * monthlyInterest * monthsOverdue) / BP_DENOM */\n      tag_162\n      swap2\n      swap1\n      tag_157\n      jump\t// in\n    tag_162:\n        /* \"contracts/4_credit.sol\":3804:3879  uint256 interest = (loan.debt * monthlyInterest * monthsOverdue) / BP_DENOM */\n      swap1\n      pop\n        /* \"contracts/4_credit.sol\":3906:3914  interest */\n      dup1\n        /* \"contracts/4_credit.sol\":3893:3897  loan */\n      dup4\n        /* \"contracts/4_credit.sol\":3893:3902  loan.debt */\n      0x01\n      add\n      0x00\n        /* \"contracts/4_credit.sol\":3893:3914  loan.debt += interest */\n      dup3\n      dup3\n      sload\n      tag_163\n      swap2\n      swap1\n      tag_140\n      jump\t// in\n    tag_163:\n      swap3\n      pop\n      pop\n      dup2\n      swap1\n      sstore\n      pop\n        /* \"contracts/4_credit.sol\":3947:3964  _getNextDueDate() */\n      tag_164\n        /* \"contracts/4_credit.sol\":3947:3962  _getNextDueDate */\n      tag_83\n        /* \"contracts/4_credit.sol\":3947:3964  _getNextDueDate() */\n      jump\t// in\n    tag_164:\n        /* \"contracts/4_credit.sol\":3928:3932  loan */\n      dup4\n        /* \"contracts/4_credit.sol\":3928:3944  loan.lastDueDate */\n      0x02\n      add\n        /* \"contracts/4_credit.sol\":3928:3964  loan.lastDueDate = _getNextDueDate() */\n      dup2\n      swap1\n      sstore\n      pop\n        /* \"contracts/4_credit.sol\":3702:3975  {... */\n      pop\n      pop\n        /* \"contracts/4_credit.sol\":3647:3975  if (loan.active && block.timestamp > loan.lastDueDate) {... */\n    tag_154:\n        /* \"contracts/4_credit.sol\":3596:3981  {... */\n      pop\n        /* \"contracts/4_credit.sol\":3549:3981  function _applyInterest(address user) internal {... */\n      pop\n      jump\t// out\n        /* \"@openzeppelin/contracts/access/Ownable.sol\":2912:3099  function _transferOwnership(address newOwner) internal virtual {... */\n    tag_127:\n        /* \"@openzeppelin/contracts/access/Ownable.sol\":2985:3001  address oldOwner */\n      0x00\n        /* \"@openzeppelin/contracts/access/Ownable.sol\":3004:3010  _owner */\n      0x00\n      0x00\n      swap1\n      sload\n      swap1\n      0x0100\n      exp\n      swap1\n      div\n      0xffffffffffffffffffffffffffffffffffffffff\n      and\n        /* \"@openzeppelin/contracts/access/Ownable.sol\":2985:3010  address oldOwner = _owner */\n      swap1\n      pop\n        /* \"@openzeppelin/contracts/access/Ownable.sol\":3029:3037  newOwner */\n      dup2\n        /* \"@openzeppelin/contracts/access/Ownable.sol\":3020:3026  _owner */\n      0x00\n      0x00\n        /* \"@openzeppelin/contracts/access/Ownable.sol\":3020:3037  _owner = newOwner */\n      0x0100\n      exp\n      dup2\n      sload\n      dup2\n      0xffffffffffffffffffffffffffffffffffffffff\n      mul\n      not\n      and\n      swap1\n      dup4\n      0xffffffffffffffffffffffffffffffffffffffff\n      and\n      mul\n      or\n      swap1\n      sstore\n      pop\n        /* \"@openzeppelin/contracts/access/Ownable.sol\":3083:3091  newOwner */\n      dup2\n        /* \"@openzeppelin/contracts/access/Ownable.sol\":3052:3092  OwnershipTransferred(oldOwner, newOwner) */\n      0xffffffffffffffffffffffffffffffffffffffff\n      and\n        /* \"@openzeppelin/contracts/access/Ownable.sol\":3073:3081  oldOwner */\n      dup2\n        /* \"@openzeppelin/contracts/access/Ownable.sol\":3052:3092  OwnershipTransferred(oldOwner, newOwner) */\n      0xffffffffffffffffffffffffffffffffffffffff\n      and\n      0x8be0079c531659141344cd1fd0a4f28419497f9722a3daafe3b4186f6b6457e0\n      mload(0x40)\n      mload(0x40)\n      dup1\n      swap2\n      sub\n      swap1\n      log3\n        /* \"@openzeppelin/contracts/access/Ownable.sol\":2975:3099  {... */\n      pop\n        /* \"@openzeppelin/contracts/access/Ownable.sol\":2912:3099  function _transferOwnership(address newOwner) internal virtual {... */\n      pop\n      jump\t// out\n        /* \"contracts/4_credit.sol\":4541:4785  function _timestampToDate(uint256 ts) internal pure returns (uint256 year, uint256 month, uint256 day) {... */\n    tag_137:\n        /* \"contracts/4_credit.sol\":4602:4614  uint256 year */\n      0x00\n        /* \"contracts/4_credit.sol\":4616:4629  uint256 month */\n      0x00\n        /* \"contracts/4_credit.sol\":4631:4642  uint256 day */\n      0x00\n        /* \"contracts/4_credit.sol\":4673:4681  31556952 */\n      0x01e18558\n        /* \"contracts/4_credit.sol\":4668:4670  ts */\n      dup5\n        /* \"contracts/4_credit.sol\":4668:4681  ts / 31556952 */\n      tag_167\n      swap2\n      swap1\n      tag_157\n      jump\t// in\n    tag_167:\n        /* \"contracts/4_credit.sol\":4661:4665  1970 */\n      0x07b2\n        /* \"contracts/4_credit.sol\":4661:4681  1970 + ts / 31556952 */\n      tag_168\n      swap2\n      swap1\n      tag_140\n      jump\t// in\n    tag_168:\n        /* \"contracts/4_credit.sol\":4654:4681  year = 1970 + ts / 31556952 */\n      swap3\n      pop\n        /* \"contracts/4_credit.sol\":4738:4739  1 */\n      0x01\n        /* \"contracts/4_credit.sol\":4732:4734  12 */\n      0x0c\n        /* \"contracts/4_credit.sol\":4721:4728  2629746 */\n      0x282072\n        /* \"contracts/4_credit.sol\":4716:4718  ts */\n      dup7\n        /* \"contracts/4_credit.sol\":4716:4728  ts / 2629746 */\n      tag_169\n      swap2\n      swap1\n      tag_157\n      jump\t// in\n    tag_169:\n        /* \"contracts/4_credit.sol\":4715:4734  (ts / 2629746) % 12 */\n      tag_170\n      swap2\n      swap1\n      tag_171\n      jump\t// in\n    tag_170:\n        /* \"contracts/4_credit.sol\":4714:4739  ((ts / 2629746) % 12) + 1 */\n      tag_172\n      swap2\n      swap1\n      tag_140\n      jump\t// in\n    tag_172:\n        /* \"contracts/4_credit.sol\":4706:4739  month = ((ts / 2629746) % 12) + 1 */\n      swap2\n      pop\n        /* \"contracts/4_credit.sol\":4777:4778  1 */\n      0x01\n        /* \"contracts/4_credit.sol\":4771:4773  30 */\n      0x1e\n        /* \"contracts/4_credit.sol\":4762:4767  86400 */\n      0x015180\n        /* \"contracts/4_credit.sol\":4757:4759  ts */\n      dup7\n        /* \"contracts/4_credit.sol\":4757:4767  ts / 86400 */\n      tag_173\n      swap2\n      swap1\n      tag_157\n      jump\t// in\n    tag_173:\n        /* \"contracts/4_credit.sol\":4756:4773  (ts / 86400) % 30 */\n      tag_174\n      swap2\n      swap1\n      tag_171\n      jump\t// in\n    tag_174:\n        /* \"contracts/4_credit.sol\":4755:4778  ((ts / 86400) % 30) + 1 */\n      tag_175\n      swap2\n      swap1\n      tag_140\n      jump\t// in\n    tag_175:\n        /* \"contracts/4_credit.sol\":4749:4778  day = ((ts / 86400) % 30) + 1 */\n      swap1\n      pop\n        /* \"contracts/4_credit.sol\":4541:4785  function _timestampToDate(uint256 ts) internal pure returns (uint256 year, uint256 month, uint256 day) {... */\n      swap2\n      swap4\n      swap1\n      swap3\n      pop\n      jump\t// out\n        /* \"contracts/4_credit.sol\":4791:4979  function _toTimestamp(uint256 year, uint256 month, uint256 day) internal pure returns (uint256) {... */\n    tag_144:\n        /* \"contracts/4_credit.sol\":4878:4885  uint256 */\n      0x00\n        /* \"contracts/4_credit.sol\":4967:4972  86400 */\n      0x015180\n        /* \"contracts/4_credit.sol\":4962:4963  1 */\n      0x01\n        /* \"contracts/4_credit.sol\":4956:4959  day */\n      dup4\n        /* \"contracts/4_credit.sol\":4956:4963  day - 1 */\n      tag_177\n      swap2\n      swap1\n      tag_116\n      jump\t// in\n    tag_177:\n        /* \"contracts/4_credit.sol\":4955:4972  (day - 1) * 86400 */\n      tag_178\n      swap2\n      swap1\n      tag_160\n      jump\t// in\n    tag_178:\n        /* \"contracts/4_credit.sol\":4945:4952  2629746 */\n      0x282072\n        /* \"contracts/4_credit.sol\":4940:4941  1 */\n      0x01\n        /* \"contracts/4_credit.sol\":4932:4937  month */\n      dup6\n        /* \"contracts/4_credit.sol\":4932:4941  month - 1 */\n      tag_179\n      swap2\n      swap1\n      tag_116\n      jump\t// in\n    tag_179:\n        /* \"contracts/4_credit.sol\":4931:4952  (month - 1) * 2629746 */\n      tag_180\n      swap2\n      swap1\n      tag_160\n      jump\t// in\n    tag_180:\n        /* \"contracts/4_credit.sol\":4920:4928  31556952 */\n      0x01e18558\n        /* \"contracts/4_credit.sol\":4912:4916  1970 */\n      0x07b2\n        /* \"contracts/4_credit.sol\":4905:4909  year */\n      dup8\n        /* \"contracts/4_credit.sol\":4905:4916  year - 1970 */\n      tag_181\n      swap2\n      swap1\n      tag_116\n      jump\t// in\n    tag_181:\n        /* \"contracts/4_credit.sol\":4904:4928  (year - 1970) * 31556952 */\n      tag_182\n      swap2\n      swap1\n      tag_160\n      jump\t// in\n    tag_182:\n        /* \"contracts/4_credit.sol\":4904:4952  (year - 1970) * 31556952 + (month - 1) * 2629746 */\n      tag_183\n      swap2\n      swap1\n      tag_140\n      jump\t// in\n    tag_183:\n        /* \"contracts/4_credit.sol\":4904:4972  (year - 1970) * 31556952 + (month - 1) * 2629746 + (day - 1) * 86400 */\n      tag_184\n      swap2\n      swap1\n      tag_140\n      jump\t// in\n    tag_184:\n        /* \"contracts/4_credit.sol\":4897:4972  return (year - 1970) * 31556952 + (month - 1) * 2629746 + (day - 1) * 86400 */\n      swap1\n      pop\n        /* \"contracts/4_credit.sol\":4791:4979  function _toTimestamp(uint256 year, uint256 month, uint256 day) internal pure returns (uint256) {... */\n      swap4\n      swap3\n      pop\n      pop\n      pop\n      jump\t// out\n        /* \"@openzeppelin/contracts/utils/Context.sol\":656:752  function _msgSender() internal view virtual returns (address) {... */\n    tag_147:\n        /* \"@openzeppelin/contracts/utils/Context.sol\":709:716  address */\n      0x00\n        /* \"@openzeppelin/contracts/utils/Context.sol\":735:745  msg.sender */\n      caller\n        /* \"@openzeppelin/contracts/utils/Context.sol\":728:745  return msg.sender */\n      swap1\n      pop\n        /* \"@openzeppelin/contracts/utils/Context.sol\":656:752  function _msgSender() internal view virtual returns (address) {... */\n      swap1\n      jump\t// out\n        /* \"#utility.yul\":88:205   */\n    tag_187:\n        /* \"#utility.yul\":197:198   */\n      0x00\n        /* \"#utility.yul\":194:195   */\n      0x00\n        /* \"#utility.yul\":187:199   */\n      revert\n        /* \"#utility.yul\":334:411   */\n    tag_189:\n        /* \"#utility.yul\":371:378   */\n      0x00\n        /* \"#utility.yul\":400:405   */\n      dup2\n        /* \"#utility.yul\":389:405   */\n      swap1\n      pop\n        /* \"#utility.yul\":334:411   */\n      swap2\n      swap1\n      pop\n      jump\t// out\n        /* \"#utility.yul\":417:539   */\n    tag_190:\n        /* \"#utility.yul\":490:514   */\n      tag_227\n        /* \"#utility.yul\":508:513   */\n      dup2\n        /* \"#utility.yul\":490:514   */\n      tag_189\n      jump\t// in\n    tag_227:\n        /* \"#utility.yul\":483:488   */\n      dup2\n        /* \"#utility.yul\":480:515   */\n      eq\n        /* \"#utility.yul\":470:533   */\n      tag_228\n      jumpi\n        /* \"#utility.yul\":529:530   */\n      0x00\n        /* \"#utility.yul\":526:527   */\n      0x00\n        /* \"#utility.yul\":519:531   */\n      revert\n        /* \"#utility.yul\":470:533   */\n    tag_228:\n        /* \"#utility.yul\":417:539   */\n      pop\n      jump\t// out\n        /* \"#utility.yul\":545:684   */\n    tag_191:\n        /* \"#utility.yul\":591:596   */\n      0x00\n        /* \"#utility.yul\":629:635   */\n      dup2\n        /* \"#utility.yul\":616:636   */\n      calldataload\n        /* \"#utility.yul\":607:636   */\n      swap1\n      pop\n        /* \"#utility.yul\":645:678   */\n      tag_230\n        /* \"#utility.yul\":672:677   */\n      dup2\n        /* \"#utility.yul\":645:678   */\n      tag_190\n      jump\t// in\n    tag_230:\n        /* \"#utility.yul\":545:684   */\n      swap3\n      swap2\n      pop\n      pop\n      jump\t// out\n        /* \"#utility.yul\":690:1164   */\n    tag_17:\n        /* \"#utility.yul\":758:764   */\n      0x00\n        /* \"#utility.yul\":766:772   */\n      0x00\n        /* \"#utility.yul\":815:817   */\n      0x40\n        /* \"#utility.yul\":803:812   */\n      dup4\n        /* \"#utility.yul\":794:801   */\n      dup6\n        /* \"#utility.yul\":790:813   */\n      sub\n        /* \"#utility.yul\":786:818   */\n      slt\n        /* \"#utility.yul\":783:902   */\n      iszero\n      tag_232\n      jumpi\n        /* \"#utility.yul\":821:900   */\n      tag_233\n      tag_187\n      jump\t// in\n    tag_233:\n        /* \"#utility.yul\":783:902   */\n    tag_232:\n        /* \"#utility.yul\":941:942   */\n      0x00\n        /* \"#utility.yul\":966:1019   */\n      tag_234\n        /* \"#utility.yul\":1011:1018   */\n      dup6\n        /* \"#utility.yul\":1002:1008   */\n      dup3\n        /* \"#utility.yul\":991:1000   */\n      dup7\n        /* \"#utility.yul\":987:1009   */\n      add\n        /* \"#utility.yul\":966:1019   */\n      tag_191\n      jump\t// in\n    tag_234:\n        /* \"#utility.yul\":956:1019   */\n      swap3\n      pop\n        /* \"#utility.yul\":912:1029   */\n      pop\n        /* \"#utility.yul\":1068:1070   */\n      0x20\n        /* \"#utility.yul\":1094:1147   */\n      tag_235\n        /* \"#utility.yul\":1139:1146   */\n      dup6\n        /* \"#utility.yul\":1130:1136   */\n      dup3\n        /* \"#utility.yul\":1119:1128   */\n      dup7\n        /* \"#utility.yul\":1115:1137   */\n      add\n        /* \"#utility.yul\":1094:1147   */\n      tag_191\n      jump\t// in\n    tag_235:\n        /* \"#utility.yul\":1084:1147   */\n      swap2\n      pop\n        /* \"#utility.yul\":1039:1157   */\n      pop\n        /* \"#utility.yul\":690:1164   */\n      swap3\n      pop\n      swap3\n      swap1\n      pop\n      jump\t// out\n        /* \"#utility.yul\":1170:1296   */\n    tag_192:\n        /* \"#utility.yul\":1207:1214   */\n      0x00\n        /* \"#utility.yul\":1247:1289   */\n      0xffffffffffffffffffffffffffffffffffffffff\n        /* \"#utility.yul\":1240:1245   */\n      dup3\n        /* \"#utility.yul\":1236:1290   */\n      and\n        /* \"#utility.yul\":1225:1290   */\n      swap1\n      pop\n        /* \"#utility.yul\":1170:1296   */\n      swap2\n      swap1\n      pop\n      jump\t// out\n        /* \"#utility.yul\":1302:1398   */\n    tag_193:\n        /* \"#utility.yul\":1339:1346   */\n      0x00\n        /* \"#utility.yul\":1368:1392   */\n      tag_238\n        /* \"#utility.yul\":1386:1391   */\n      dup3\n        /* \"#utility.yul\":1368:1392   */\n      tag_192\n      jump\t// in\n    tag_238:\n        /* \"#utility.yul\":1357:1392   */\n      swap1\n      pop\n        /* \"#utility.yul\":1302:1398   */\n      swap2\n      swap1\n      pop\n      jump\t// out\n        /* \"#utility.yul\":1404:1526   */\n    tag_194:\n        /* \"#utility.yul\":1477:1501   */\n      tag_240\n        /* \"#utility.yul\":1495:1500   */\n      dup2\n        /* \"#utility.yul\":1477:1501   */\n      tag_193\n      jump\t// in\n    tag_240:\n        /* \"#utility.yul\":1470:1475   */\n      dup2\n        /* \"#utility.yul\":1467:1502   */\n      eq\n        /* \"#utility.yul\":1457:1520   */\n      tag_241\n      jumpi\n        /* \"#utility.yul\":1516:1517   */\n      0x00\n        /* \"#utility.yul\":1513:1514   */\n      0x00\n        /* \"#utility.yul\":1506:1518   */\n      revert\n        /* \"#utility.yul\":1457:1520   */\n    tag_241:\n        /* \"#utility.yul\":1404:1526   */\n      pop\n      jump\t// out\n        /* \"#utility.yul\":1532:1671   */\n    tag_195:\n        /* \"#utility.yul\":1578:1583   */\n      0x00\n        /* \"#utility.yul\":1616:1622   */\n      dup2\n        /* \"#utility.yul\":1603:1623   */\n      calldataload\n        /* \"#utility.yul\":1594:1623   */\n      swap1\n      pop\n        /* \"#utility.yul\":1632:1665   */\n      tag_243\n        /* \"#utility.yul\":1659:1664   */\n      dup2\n        /* \"#utility.yul\":1632:1665   */\n      tag_194\n      jump\t// in\n    tag_243:\n        /* \"#utility.yul\":1532:1671   */\n      swap3\n      swap2\n      pop\n      pop\n      jump\t// out\n        /* \"#utility.yul\":1677:2006   */\n    tag_21:\n        /* \"#utility.yul\":1736:1742   */\n      0x00\n        /* \"#utility.yul\":1785:1787   */\n      0x20\n        /* \"#utility.yul\":1773:1782   */\n      dup3\n        /* \"#utility.yul\":1764:1771   */\n      dup5\n        /* \"#utility.yul\":1760:1783   */\n      sub\n        /* \"#utility.yul\":1756:1788   */\n      slt\n        /* \"#utility.yul\":1753:1872   */\n      iszero\n      tag_245\n      jumpi\n        /* \"#utility.yul\":1791:1870   */\n      tag_246\n      tag_187\n      jump\t// in\n    tag_246:\n        /* \"#utility.yul\":1753:1872   */\n    tag_245:\n        /* \"#utility.yul\":1911:1912   */\n      0x00\n        /* \"#utility.yul\":1936:1989   */\n      tag_247\n        /* \"#utility.yul\":1981:1988   */\n      dup5\n        /* \"#utility.yul\":1972:1978   */\n      dup3\n        /* \"#utility.yul\":1961:1970   */\n      dup6\n        /* \"#utility.yul\":1957:1979   */\n      add\n        /* \"#utility.yul\":1936:1989   */\n      tag_195\n      jump\t// in\n    tag_247:\n        /* \"#utility.yul\":1926:1989   */\n      swap2\n      pop\n        /* \"#utility.yul\":1882:1999   */\n      pop\n        /* \"#utility.yul\":1677:2006   */\n      swap3\n      swap2\n      pop\n      pop\n      jump\t// out\n        /* \"#utility.yul\":2012:2341   */\n    tag_25:\n        /* \"#utility.yul\":2071:2077   */\n      0x00\n        /* \"#utility.yul\":2120:2122   */\n      0x20\n        /* \"#utility.yul\":2108:2117   */\n      dup3\n        /* \"#utility.yul\":2099:2106   */\n      dup5\n        /* \"#utility.yul\":2095:2118   */\n      sub\n        /* \"#utility.yul\":2091:2123   */\n      slt\n        /* \"#utility.yul\":2088:2207   */\n      iszero\n      tag_249\n      jumpi\n        /* \"#utility.yul\":2126:2205   */\n      tag_250\n      tag_187\n      jump\t// in\n    tag_250:\n        /* \"#utility.yul\":2088:2207   */\n    tag_249:\n        /* \"#utility.yul\":2246:2247   */\n      0x00\n        /* \"#utility.yul\":2271:2324   */\n      tag_251\n        /* \"#utility.yul\":2316:2323   */\n      dup5\n        /* \"#utility.yul\":2307:2313   */\n      dup3\n        /* \"#utility.yul\":2296:2305   */\n      dup6\n        /* \"#utility.yul\":2292:2314   */\n      add\n        /* \"#utility.yul\":2271:2324   */\n      tag_191\n      jump\t// in\n    tag_251:\n        /* \"#utility.yul\":2261:2324   */\n      swap2\n      pop\n        /* \"#utility.yul\":2217:2334   */\n      pop\n        /* \"#utility.yul\":2012:2341   */\n      swap3\n      swap2\n      pop\n      pop\n      jump\t// out\n        /* \"#utility.yul\":2347:2465   */\n    tag_196:\n        /* \"#utility.yul\":2434:2458   */\n      tag_253\n        /* \"#utility.yul\":2452:2457   */\n      dup2\n        /* \"#utility.yul\":2434:2458   */\n      tag_189\n      jump\t// in\n    tag_253:\n        /* \"#utility.yul\":2429:2432   */\n      dup3\n        /* \"#utility.yul\":2422:2459   */\n      mstore\n        /* \"#utility.yul\":2347:2465   */\n      pop\n      pop\n      jump\t// out\n        /* \"#utility.yul\":2471:2693   */\n    tag_32:\n        /* \"#utility.yul\":2564:2568   */\n      0x00\n        /* \"#utility.yul\":2602:2604   */\n      0x20\n        /* \"#utility.yul\":2591:2600   */\n      dup3\n        /* \"#utility.yul\":2587:2605   */\n      add\n        /* \"#utility.yul\":2579:2605   */\n      swap1\n      pop\n        /* \"#utility.yul\":2615:2686   */\n      tag_255\n        /* \"#utility.yul\":2683:2684   */\n      0x00\n        /* \"#utility.yul\":2672:2681   */\n      dup4\n        /* \"#utility.yul\":2668:2685   */\n      add\n        /* \"#utility.yul\":2659:2665   */\n      dup5\n        /* \"#utility.yul\":2615:2686   */\n      tag_196\n      jump\t// in\n    tag_255:\n        /* \"#utility.yul\":2471:2693   */\n      swap3\n      swap2\n      pop\n      pop\n      jump\t// out\n        /* \"#utility.yul\":2699:2789   */\n    tag_197:\n        /* \"#utility.yul\":2733:2740   */\n      0x00\n        /* \"#utility.yul\":2776:2781   */\n      dup2\n        /* \"#utility.yul\":2769:2782   */\n      iszero\n        /* \"#utility.yul\":2762:2783   */\n      iszero\n        /* \"#utility.yul\":2751:2783   */\n      swap1\n      pop\n        /* \"#utility.yul\":2699:2789   */\n      swap2\n      swap1\n      pop\n      jump\t// out\n        /* \"#utility.yul\":2795:2904   */\n    tag_198:\n        /* \"#utility.yul\":2876:2897   */\n      tag_258\n        /* \"#utility.yul\":2891:2896   */\n      dup2\n        /* \"#utility.yul\":2876:2897   */\n      tag_197\n      jump\t// in\n    tag_258:\n        /* \"#utility.yul\":2871:2874   */\n      dup3\n        /* \"#utility.yul\":2864:2898   */\n      mstore\n        /* \"#utility.yul\":2795:2904   */\n      pop\n      pop\n      jump\t// out\n        /* \"#utility.yul\":2910:3451   */\n    tag_37:\n        /* \"#utility.yul\":3081:3085   */\n      0x00\n        /* \"#utility.yul\":3119:3122   */\n      0x80\n        /* \"#utility.yul\":3108:3117   */\n      dup3\n        /* \"#utility.yul\":3104:3123   */\n      add\n        /* \"#utility.yul\":3096:3123   */\n      swap1\n      pop\n        /* \"#utility.yul\":3133:3204   */\n      tag_260\n        /* \"#utility.yul\":3201:3202   */\n      0x00\n        /* \"#utility.yul\":3190:3199   */\n      dup4\n        /* \"#utility.yul\":3186:3203   */\n      add\n        /* \"#utility.yul\":3177:3183   */\n      dup8\n        /* \"#utility.yul\":3133:3204   */\n      tag_196\n      jump\t// in\n    tag_260:\n        /* \"#utility.yul\":3214:3286   */\n      tag_261\n        /* \"#utility.yul\":3282:3284   */\n      0x20\n        /* \"#utility.yul\":3271:3280   */\n      dup4\n        /* \"#utility.yul\":3267:3285   */\n      add\n        /* \"#utility.yul\":3258:3264   */\n      dup7\n        /* \"#utility.yul\":3214:3286   */\n      tag_196\n      jump\t// in\n    tag_261:\n        /* \"#utility.yul\":3296:3368   */\n      tag_262\n        /* \"#utility.yul\":3364:3366   */\n      0x40\n        /* \"#utility.yul\":3353:3362   */\n      dup4\n        /* \"#utility.yul\":3349:3367   */\n      add\n        /* \"#utility.yul\":3340:3346   */\n      dup6\n        /* \"#utility.yul\":3296:3368   */\n      tag_196\n      jump\t// in\n    tag_262:\n        /* \"#utility.yul\":3378:3444   */\n      tag_263\n        /* \"#utility.yul\":3440:3442   */\n      0x60\n        /* \"#utility.yul\":3429:3438   */\n      dup4\n        /* \"#utility.yul\":3425:3443   */\n      add\n        /* \"#utility.yul\":3416:3422   */\n      dup5\n        /* \"#utility.yul\":3378:3444   */\n      tag_198\n      jump\t// in\n    tag_263:\n        /* \"#utility.yul\":2910:3451   */\n      swap6\n      swap5\n      pop\n      pop\n      pop\n      pop\n      pop\n      jump\t// out\n        /* \"#utility.yul\":3457:3517   */\n    tag_199:\n        /* \"#utility.yul\":3485:3488   */\n      0x00\n        /* \"#utility.yul\":3506:3511   */\n      dup2\n        /* \"#utility.yul\":3499:3511   */\n      swap1\n      pop\n        /* \"#utility.yul\":3457:3517   */\n      swap2\n      swap1\n      pop\n      jump\t// out\n        /* \"#utility.yul\":3523:3665   */\n    tag_200:\n        /* \"#utility.yul\":3573:3582   */\n      0x00\n        /* \"#utility.yul\":3606:3659   */\n      tag_266\n        /* \"#utility.yul\":3624:3658   */\n      tag_267\n        /* \"#utility.yul\":3633:3657   */\n      tag_268\n        /* \"#utility.yul\":3651:3656   */\n      dup5\n        /* \"#utility.yul\":3633:3657   */\n      tag_192\n      jump\t// in\n    tag_268:\n        /* \"#utility.yul\":3624:3658   */\n      tag_199\n      jump\t// in\n    tag_267:\n        /* \"#utility.yul\":3606:3659   */\n      tag_192\n      jump\t// in\n    tag_266:\n        /* \"#utility.yul\":3593:3659   */\n      swap1\n      pop\n        /* \"#utility.yul\":3523:3665   */\n      swap2\n      swap1\n      pop\n      jump\t// out\n        /* \"#utility.yul\":3671:3797   */\n    tag_201:\n        /* \"#utility.yul\":3721:3730   */\n      0x00\n        /* \"#utility.yul\":3754:3791   */\n      tag_270\n        /* \"#utility.yul\":3785:3790   */\n      dup3\n        /* \"#utility.yul\":3754:3791   */\n      tag_200\n      jump\t// in\n    tag_270:\n        /* \"#utility.yul\":3741:3791   */\n      swap1\n      pop\n        /* \"#utility.yul\":3671:3797   */\n      swap2\n      swap1\n      pop\n      jump\t// out\n        /* \"#utility.yul\":3803:3943   */\n    tag_202:\n        /* \"#utility.yul\":3867:3876   */\n      0x00\n        /* \"#utility.yul\":3900:3937   */\n      tag_272\n        /* \"#utility.yul\":3931:3936   */\n      dup3\n        /* \"#utility.yul\":3900:3937   */\n      tag_201\n      jump\t// in\n    tag_272:\n        /* \"#utility.yul\":3887:3937   */\n      swap1\n      pop\n        /* \"#utility.yul\":3803:3943   */\n      swap2\n      swap1\n      pop\n      jump\t// out\n        /* \"#utility.yul\":3949:4108   */\n    tag_203:\n        /* \"#utility.yul\":4050:4101   */\n      tag_274\n        /* \"#utility.yul\":4095:4100   */\n      dup2\n        /* \"#utility.yul\":4050:4101   */\n      tag_202\n      jump\t// in\n    tag_274:\n        /* \"#utility.yul\":4045:4048   */\n      dup3\n        /* \"#utility.yul\":4038:4102   */\n      mstore\n        /* \"#utility.yul\":3949:4108   */\n      pop\n      pop\n      jump\t// out\n        /* \"#utility.yul\":4114:4364   */\n    tag_41:\n        /* \"#utility.yul\":4221:4225   */\n      0x00\n        /* \"#utility.yul\":4259:4261   */\n      0x20\n        /* \"#utility.yul\":4248:4257   */\n      dup3\n        /* \"#utility.yul\":4244:4262   */\n      add\n        /* \"#utility.yul\":4236:4262   */\n      swap1\n      pop\n        /* \"#utility.yul\":4272:4357   */\n      tag_276\n        /* \"#utility.yul\":4354:4355   */\n      0x00\n        /* \"#utility.yul\":4343:4352   */\n      dup4\n        /* \"#utility.yul\":4339:4356   */\n      add\n        /* \"#utility.yul\":4330:4336   */\n      dup5\n        /* \"#utility.yul\":4272:4357   */\n      tag_203\n      jump\t// in\n    tag_276:\n        /* \"#utility.yul\":4114:4364   */\n      swap3\n      swap2\n      pop\n      pop\n      jump\t// out\n        /* \"#utility.yul\":4370:4488   */\n    tag_204:\n        /* \"#utility.yul\":4457:4481   */\n      tag_278\n        /* \"#utility.yul\":4475:4480   */\n      dup2\n        /* \"#utility.yul\":4457:4481   */\n      tag_193\n      jump\t// in\n    tag_278:\n        /* \"#utility.yul\":4452:4455   */\n      dup3\n        /* \"#utility.yul\":4445:4482   */\n      mstore\n        /* \"#utility.yul\":4370:4488   */\n      pop\n      pop\n      jump\t// out\n        /* \"#utility.yul\":4494:4716   */\n    tag_45:\n        /* \"#utility.yul\":4587:4591   */\n      0x00\n        /* \"#utility.yul\":4625:4627   */\n      0x20\n        /* \"#utility.yul\":4614:4623   */\n      dup3\n        /* \"#utility.yul\":4610:4628   */\n      add\n        /* \"#utility.yul\":4602:4628   */\n      swap1\n      pop\n        /* \"#utility.yul\":4638:4709   */\n      tag_280\n        /* \"#utility.yul\":4706:4707   */\n      0x00\n        /* \"#utility.yul\":4695:4704   */\n      dup4\n        /* \"#utility.yul\":4691:4708   */\n      add\n        /* \"#utility.yul\":4682:4688   */\n      dup5\n        /* \"#utility.yul\":4638:4709   */\n      tag_204\n      jump\t// in\n    tag_280:\n        /* \"#utility.yul\":4494:4716   */\n      swap3\n      swap2\n      pop\n      pop\n      jump\t// out\n        /* \"#utility.yul\":4722:4891   */\n    tag_205:\n        /* \"#utility.yul\":4806:4817   */\n      0x00\n        /* \"#utility.yul\":4840:4846   */\n      dup3\n        /* \"#utility.yul\":4835:4838   */\n      dup3\n        /* \"#utility.yul\":4828:4847   */\n      mstore\n        /* \"#utility.yul\":4880:4884   */\n      0x20\n        /* \"#utility.yul\":4875:4878   */\n      dup3\n        /* \"#utility.yul\":4871:4885   */\n      add\n        /* \"#utility.yul\":4856:4885   */\n      swap1\n      pop\n        /* \"#utility.yul\":4722:4891   */\n      swap3\n      swap2\n      pop\n      pop\n      jump\t// out\n        /* \"#utility.yul\":4897:5062   */\n    tag_206:\n        /* \"#utility.yul\":5037:5054   */\n      0x496e76616c696420616d6f756e74730000000000000000000000000000000000\n        /* \"#utility.yul\":5033:5034   */\n      0x00\n        /* \"#utility.yul\":5025:5031   */\n      dup3\n        /* \"#utility.yul\":5021:5035   */\n      add\n        /* \"#utility.yul\":5014:5055   */\n      mstore\n        /* \"#utility.yul\":4897:5062   */\n      pop\n      jump\t// out\n        /* \"#utility.yul\":5068:5434   */\n    tag_207:\n        /* \"#utility.yul\":5210:5213   */\n      0x00\n        /* \"#utility.yul\":5231:5298   */\n      tag_284\n        /* \"#utility.yul\":5295:5297   */\n      0x0f\n        /* \"#utility.yul\":5290:5293   */\n      dup4\n        /* \"#utility.yul\":5231:5298   */\n      tag_205\n      jump\t// in\n    tag_284:\n        /* \"#utility.yul\":5224:5298   */\n      swap2\n      pop\n        /* \"#utility.yul\":5307:5400   */\n      tag_285\n        /* \"#utility.yul\":5396:5399   */\n      dup3\n        /* \"#utility.yul\":5307:5400   */\n      tag_206\n      jump\t// in\n    tag_285:\n        /* \"#utility.yul\":5425:5427   */\n      0x20\n        /* \"#utility.yul\":5420:5423   */\n      dup3\n        /* \"#utility.yul\":5416:5428   */\n      add\n        /* \"#utility.yul\":5409:5428   */\n      swap1\n      pop\n        /* \"#utility.yul\":5068:5434   */\n      swap2\n      swap1\n      pop\n      jump\t// out\n        /* \"#utility.yul\":5440:5859   */\n    tag_59:\n        /* \"#utility.yul\":5606:5610   */\n      0x00\n        /* \"#utility.yul\":5644:5646   */\n      0x20\n        /* \"#utility.yul\":5633:5642   */\n      dup3\n        /* \"#utility.yul\":5629:5647   */\n      add\n        /* \"#utility.yul\":5621:5647   */\n      swap1\n      pop\n        /* \"#utility.yul\":5693:5702   */\n      dup2\n        /* \"#utility.yul\":5687:5691   */\n      dup2\n        /* \"#utility.yul\":5683:5703   */\n      sub\n        /* \"#utility.yul\":5679:5680   */\n      0x00\n        /* \"#utility.yul\":5668:5677   */\n      dup4\n        /* \"#utility.yul\":5664:5681   */\n      add\n        /* \"#utility.yul\":5657:5704   */\n      mstore\n        /* \"#utility.yul\":5721:5852   */\n      tag_287\n        /* \"#utility.yul\":5847:5851   */\n      dup2\n        /* \"#utility.yul\":5721:5852   */\n      tag_207\n      jump\t// in\n    tag_287:\n        /* \"#utility.yul\":5713:5852   */\n      swap1\n      pop\n        /* \"#utility.yul\":5440:5859   */\n      swap2\n      swap1\n      pop\n      jump\t// out\n        /* \"#utility.yul\":5865:6026   */\n    tag_208:\n        /* \"#utility.yul\":6005:6018   */\n      0x4c6f616e20657869737473000000000000000000000000000000000000000000\n        /* \"#utility.yul\":6001:6002   */\n      0x00\n        /* \"#utility.yul\":5993:5999   */\n      dup3\n        /* \"#utility.yul\":5989:6003   */\n      add\n        /* \"#utility.yul\":5982:6019   */\n      mstore\n        /* \"#utility.yul\":5865:6026   */\n      pop\n      jump\t// out\n        /* \"#utility.yul\":6032:6398   */\n    tag_209:\n        /* \"#utility.yul\":6174:6177   */\n      0x00\n        /* \"#utility.yul\":6195:6262   */\n      tag_290\n        /* \"#utility.yul\":6259:6261   */\n      0x0b\n        /* \"#utility.yul\":6254:6257   */\n      dup4\n        /* \"#utility.yul\":6195:6262   */\n      tag_205\n      jump\t// in\n    tag_290:\n        /* \"#utility.yul\":6188:6262   */\n      swap2\n      pop\n        /* \"#utility.yul\":6271:6364   */\n      tag_291\n        /* \"#utility.yul\":6360:6363   */\n      dup3\n        /* \"#utility.yul\":6271:6364   */\n      tag_208\n      jump\t// in\n    tag_291:\n        /* \"#utility.yul\":6389:6391   */\n      0x20\n        /* \"#utility.yul\":6384:6387   */\n      dup3\n        /* \"#utility.yul\":6380:6392   */\n      add\n        /* \"#utility.yul\":6373:6392   */\n      swap1\n      pop\n        /* \"#utility.yul\":6032:6398   */\n      swap2\n      swap1\n      pop\n      jump\t// out\n        /* \"#utility.yul\":6404:6823   */\n    tag_62:\n        /* \"#utility.yul\":6570:6574   */\n      0x00\n        /* \"#utility.yul\":6608:6610   */\n      0x20\n        /* \"#utility.yul\":6597:6606   */\n      dup3\n        /* \"#utility.yul\":6593:6611   */\n      add\n        /* \"#utility.yul\":6585:6611   */\n      swap1\n      pop\n        /* \"#utility.yul\":6657:6666   */\n      dup2\n        /* \"#utility.yul\":6651:6655   */\n      dup2\n        /* \"#utility.yul\":6647:6667   */\n      sub\n        /* \"#utility.yul\":6643:6644   */\n      0x00\n        /* \"#utility.yul\":6632:6641   */\n      dup4\n        /* \"#utility.yul\":6628:6645   */\n      add\n        /* \"#utility.yul\":6621:6668   */\n      mstore\n        /* \"#utility.yul\":6685:6816   */\n      tag_293\n        /* \"#utility.yul\":6811:6815   */\n      dup2\n        /* \"#utility.yul\":6685:6816   */\n      tag_209\n      jump\t// in\n    tag_293:\n        /* \"#utility.yul\":6677:6816   */\n      swap1\n      pop\n        /* \"#utility.yul\":6404:6823   */\n      swap2\n      swap1\n      pop\n      jump\t// out\n        /* \"#utility.yul\":6829:7271   */\n    tag_64:\n        /* \"#utility.yul\":6978:6982   */\n      0x00\n        /* \"#utility.yul\":7016:7018   */\n      0x60\n        /* \"#utility.yul\":7005:7014   */\n      dup3\n        /* \"#utility.yul\":7001:7019   */\n      add\n        /* \"#utility.yul\":6993:7019   */\n      swap1\n      pop\n        /* \"#utility.yul\":7029:7100   */\n      tag_295\n        /* \"#utility.yul\":7097:7098   */\n      0x00\n        /* \"#utility.yul\":7086:7095   */\n      dup4\n        /* \"#utility.yul\":7082:7099   */\n      add\n        /* \"#utility.yul\":7073:7079   */\n      dup7\n        /* \"#utility.yul\":7029:7100   */\n      tag_204\n      jump\t// in\n    tag_295:\n        /* \"#utility.yul\":7110:7182   */\n      tag_296\n        /* \"#utility.yul\":7178:7180   */\n      0x20\n        /* \"#utility.yul\":7167:7176   */\n      dup4\n        /* \"#utility.yul\":7163:7181   */\n      add\n        /* \"#utility.yul\":7154:7160   */\n      dup6\n        /* \"#utility.yul\":7110:7182   */\n      tag_204\n      jump\t// in\n    tag_296:\n        /* \"#utility.yul\":7192:7264   */\n      tag_297\n        /* \"#utility.yul\":7260:7262   */\n      0x40\n        /* \"#utility.yul\":7249:7258   */\n      dup4\n        /* \"#utility.yul\":7245:7263   */\n      add\n        /* \"#utility.yul\":7236:7242   */\n      dup5\n        /* \"#utility.yul\":7192:7264   */\n      tag_196\n      jump\t// in\n    tag_297:\n        /* \"#utility.yul\":6829:7271   */\n      swap5\n      swap4\n      pop\n      pop\n      pop\n      pop\n      jump\t// out\n        /* \"#utility.yul\":7277:7393   */\n    tag_210:\n        /* \"#utility.yul\":7347:7368   */\n      tag_299\n        /* \"#utility.yul\":7362:7367   */\n      dup2\n        /* \"#utility.yul\":7347:7368   */\n      tag_197\n      jump\t// in\n    tag_299:\n        /* \"#utility.yul\":7340:7345   */\n      dup2\n        /* \"#utility.yul\":7337:7369   */\n      eq\n        /* \"#utility.yul\":7327:7387   */\n      tag_300\n      jumpi\n        /* \"#utility.yul\":7383:7384   */\n      0x00\n        /* \"#utility.yul\":7380:7381   */\n      0x00\n        /* \"#utility.yul\":7373:7385   */\n      revert\n        /* \"#utility.yul\":7327:7387   */\n    tag_300:\n        /* \"#utility.yul\":7277:7393   */\n      pop\n      jump\t// out\n        /* \"#utility.yul\":7399:7536   */\n    tag_211:\n        /* \"#utility.yul\":7453:7458   */\n      0x00\n        /* \"#utility.yul\":7484:7490   */\n      dup2\n        /* \"#utility.yul\":7478:7491   */\n      mload\n        /* \"#utility.yul\":7469:7491   */\n      swap1\n      pop\n        /* \"#utility.yul\":7500:7530   */\n      tag_302\n        /* \"#utility.yul\":7524:7529   */\n      dup2\n        /* \"#utility.yul\":7500:7530   */\n      tag_210\n      jump\t// in\n    tag_302:\n        /* \"#utility.yul\":7399:7536   */\n      swap3\n      swap2\n      pop\n      pop\n      jump\t// out\n        /* \"#utility.yul\":7542:7887   */\n    tag_68:\n        /* \"#utility.yul\":7609:7615   */\n      0x00\n        /* \"#utility.yul\":7658:7660   */\n      0x20\n        /* \"#utility.yul\":7646:7655   */\n      dup3\n        /* \"#utility.yul\":7637:7644   */\n      dup5\n        /* \"#utility.yul\":7633:7656   */\n      sub\n        /* \"#utility.yul\":7629:7661   */\n      slt\n        /* \"#utility.yul\":7626:7745   */\n      iszero\n      tag_304\n      jumpi\n        /* \"#utility.yul\":7664:7743   */\n      tag_305\n      tag_187\n      jump\t// in\n    tag_305:\n        /* \"#utility.yul\":7626:7745   */\n    tag_304:\n        /* \"#utility.yul\":7784:7785   */\n      0x00\n        /* \"#utility.yul\":7809:7870   */\n      tag_306\n        /* \"#utility.yul\":7862:7869   */\n      dup5\n        /* \"#utility.yul\":7853:7859   */\n      dup3\n        /* \"#utility.yul\":7842:7851   */\n      dup6\n        /* \"#utility.yul\":7838:7860   */\n      add\n        /* \"#utility.yul\":7809:7870   */\n      tag_211\n      jump\t// in\n    tag_306:\n        /* \"#utility.yul\":7799:7870   */\n      swap2\n      pop\n        /* \"#utility.yul\":7755:7880   */\n      pop\n        /* \"#utility.yul\":7542:7887   */\n      swap3\n      swap2\n      pop\n      pop\n      jump\t// out\n        /* \"#utility.yul\":7893:8036   */\n    tag_212:\n        /* \"#utility.yul\":7950:7955   */\n      0x00\n        /* \"#utility.yul\":7981:7987   */\n      dup2\n        /* \"#utility.yul\":7975:7988   */\n      mload\n        /* \"#utility.yul\":7966:7988   */\n      swap1\n      pop\n        /* \"#utility.yul\":7997:8030   */\n      tag_308\n        /* \"#utility.yul\":8024:8029   */\n      dup2\n        /* \"#utility.yul\":7997:8030   */\n      tag_190\n      jump\t// in\n    tag_308:\n        /* \"#utility.yul\":7893:8036   */\n      swap3\n      swap2\n      pop\n      pop\n      jump\t// out\n        /* \"#utility.yul\":8042:8393   */\n    tag_73:\n        /* \"#utility.yul\":8112:8118   */\n      0x00\n        /* \"#utility.yul\":8161:8163   */\n      0x20\n        /* \"#utility.yul\":8149:8158   */\n      dup3\n        /* \"#utility.yul\":8140:8147   */\n      dup5\n        /* \"#utility.yul\":8136:8159   */\n      sub\n        /* \"#utility.yul\":8132:8164   */\n      slt\n        /* \"#utility.yul\":8129:8248   */\n      iszero\n      tag_310\n      jumpi\n        /* \"#utility.yul\":8167:8246   */\n      tag_311\n      tag_187\n      jump\t// in\n    tag_311:\n        /* \"#utility.yul\":8129:8248   */\n    tag_310:\n        /* \"#utility.yul\":8287:8288   */\n      0x00\n        /* \"#utility.yul\":8312:8376   */\n      tag_312\n        /* \"#utility.yul\":8368:8375   */\n      dup5\n        /* \"#utility.yul\":8359:8365   */\n      dup3\n        /* \"#utility.yul\":8348:8357   */\n      dup6\n        /* \"#utility.yul\":8344:8366   */\n      add\n        /* \"#utility.yul\":8312:8376   */\n      tag_212\n      jump\t// in\n    tag_312:\n        /* \"#utility.yul\":8302:8376   */\n      swap2\n      pop\n        /* \"#utility.yul\":8258:8386   */\n      pop\n        /* \"#utility.yul\":8042:8393   */\n      swap3\n      swap2\n      pop\n      pop\n      jump\t// out\n        /* \"#utility.yul\":8399:8578   */\n    tag_213:\n        /* \"#utility.yul\":8539:8570   */\n      0x496e73756666696369656e7420555344524946206c6971756964697479000000\n        /* \"#utility.yul\":8535:8536   */\n      0x00\n        /* \"#utility.yul\":8527:8533   */\n      dup3\n        /* \"#utility.yul\":8523:8537   */\n      add\n        /* \"#utility.yul\":8516:8571   */\n      mstore\n        /* \"#utility.yul\":8399:8578   */\n      pop\n      jump\t// out\n        /* \"#utility.yul\":8584:8950   */\n    tag_214:\n        /* \"#utility.yul\":8726:8729   */\n      0x00\n        /* \"#utility.yul\":8747:8814   */\n      tag_315\n        /* \"#utility.yul\":8811:8813   */\n      0x1d\n        /* \"#utility.yul\":8806:8809   */\n      dup4\n        /* \"#utility.yul\":8747:8814   */\n      tag_205\n      jump\t// in\n    tag_315:\n        /* \"#utility.yul\":8740:8814   */\n      swap2\n      pop\n        /* \"#utility.yul\":8823:8916   */\n      tag_316\n        /* \"#utility.yul\":8912:8915   */\n      dup3\n        /* \"#utility.yul\":8823:8916   */\n      tag_213\n      jump\t// in\n    tag_316:\n        /* \"#utility.yul\":8941:8943   */\n      0x20\n        /* \"#utility.yul\":8936:8939   */\n      dup3\n        /* \"#utility.yul\":8932:8944   */\n      add\n        /* \"#utility.yul\":8925:8944   */\n      swap1\n      pop\n        /* \"#utility.yul\":8584:8950   */\n      swap2\n      swap1\n      pop\n      jump\t// out\n        /* \"#utility.yul\":8956:9375   */\n    tag_76:\n        /* \"#utility.yul\":9122:9126   */\n      0x00\n        /* \"#utility.yul\":9160:9162   */\n      0x20\n        /* \"#utility.yul\":9149:9158   */\n      dup3\n        /* \"#utility.yul\":9145:9163   */\n      add\n        /* \"#utility.yul\":9137:9163   */\n      swap1\n      pop\n        /* \"#utility.yul\":9209:9218   */\n      dup2\n        /* \"#utility.yul\":9203:9207   */\n      dup2\n        /* \"#utility.yul\":9199:9219   */\n      sub\n        /* \"#utility.yul\":9195:9196   */\n      0x00\n        /* \"#utility.yul\":9184:9193   */\n      dup4\n        /* \"#utility.yul\":9180:9197   */\n      add\n        /* \"#utility.yul\":9173:9220   */\n      mstore\n        /* \"#utility.yul\":9237:9368   */\n      tag_318\n        /* \"#utility.yul\":9363:9367   */\n      dup2\n        /* \"#utility.yul\":9237:9368   */\n      tag_214\n      jump\t// in\n    tag_318:\n        /* \"#utility.yul\":9229:9368   */\n      swap1\n      pop\n        /* \"#utility.yul\":8956:9375   */\n      swap2\n      swap1\n      pop\n      jump\t// out\n        /* \"#utility.yul\":9381:9713   */\n    tag_78:\n        /* \"#utility.yul\":9502:9506   */\n      0x00\n        /* \"#utility.yul\":9540:9542   */\n      0x40\n        /* \"#utility.yul\":9529:9538   */\n      dup3\n        /* \"#utility.yul\":9525:9543   */\n      add\n        /* \"#utility.yul\":9517:9543   */\n      swap1\n      pop\n        /* \"#utility.yul\":9553:9624   */\n      tag_320\n        /* \"#utility.yul\":9621:9622   */\n      0x00\n        /* \"#utility.yul\":9610:9619   */\n      dup4\n        /* \"#utility.yul\":9606:9623   */\n      add\n        /* \"#utility.yul\":9597:9603   */\n      dup6\n        /* \"#utility.yul\":9553:9624   */\n      tag_204\n      jump\t// in\n    tag_320:\n        /* \"#utility.yul\":9634:9706   */\n      tag_321\n        /* \"#utility.yul\":9702:9704   */\n      0x20\n        /* \"#utility.yul\":9691:9700   */\n      dup4\n        /* \"#utility.yul\":9687:9705   */\n      add\n        /* \"#utility.yul\":9678:9684   */\n      dup5\n        /* \"#utility.yul\":9634:9706   */\n      tag_196\n      jump\t// in\n    tag_321:\n        /* \"#utility.yul\":9381:9713   */\n      swap4\n      swap3\n      pop\n      pop\n      pop\n      jump\t// out\n        /* \"#utility.yul\":9719:10161   */\n    tag_85:\n        /* \"#utility.yul\":9868:9872   */\n      0x00\n        /* \"#utility.yul\":9906:9908   */\n      0x60\n        /* \"#utility.yul\":9895:9904   */\n      dup3\n        /* \"#utility.yul\":9891:9909   */\n      add\n        /* \"#utility.yul\":9883:9909   */\n      swap1\n      pop\n        /* \"#utility.yul\":9919:9990   */\n      tag_323\n        /* \"#utility.yul\":9987:9988   */\n      0x00\n        /* \"#utility.yul\":9976:9985   */\n      dup4\n        /* \"#utility.yul\":9972:9989   */\n      add\n        /* \"#utility.yul\":9963:9969   */\n      dup7\n        /* \"#utility.yul\":9919:9990   */\n      tag_196\n      jump\t// in\n    tag_323:\n        /* \"#utility.yul\":10000:10072   */\n      tag_324\n        /* \"#utility.yul\":10068:10070   */\n      0x20\n        /* \"#utility.yul\":10057:10066   */\n      dup4\n        /* \"#utility.yul\":10053:10071   */\n      add\n        /* \"#utility.yul\":10044:10050   */\n      dup6\n        /* \"#utility.yul\":10000:10072   */\n      tag_196\n      jump\t// in\n    tag_324:\n        /* \"#utility.yul\":10082:10154   */\n      tag_325\n        /* \"#utility.yul\":10150:10152   */\n      0x40\n        /* \"#utility.yul\":10139:10148   */\n      dup4\n        /* \"#utility.yul\":10135:10153   */\n      add\n        /* \"#utility.yul\":10126:10132   */\n      dup5\n        /* \"#utility.yul\":10082:10154   */\n      tag_196\n      jump\t// in\n    tag_325:\n        /* \"#utility.yul\":9719:10161   */\n      swap5\n      swap4\n      pop\n      pop\n      pop\n      pop\n      jump\t// out\n        /* \"#utility.yul\":10167:10331   */\n    tag_215:\n        /* \"#utility.yul\":10307:10323   */\n      0x4e6f20616374697665206c6f616e000000000000000000000000000000000000\n        /* \"#utility.yul\":10303:10304   */\n      0x00\n        /* \"#utility.yul\":10295:10301   */\n      dup3\n        /* \"#utility.yul\":10291:10305   */\n      add\n        /* \"#utility.yul\":10284:10324   */\n      mstore\n        /* \"#utility.yul\":10167:10331   */\n      pop\n      jump\t// out\n        /* \"#utility.yul\":10337:10703   */\n    tag_216:\n        /* \"#utility.yul\":10479:10482   */\n      0x00\n        /* \"#utility.yul\":10500:10567   */\n      tag_328\n        /* \"#utility.yul\":10564:10566   */\n      0x0e\n        /* \"#utility.yul\":10559:10562   */\n      dup4\n        /* \"#utility.yul\":10500:10567   */\n      tag_205\n      jump\t// in\n    tag_328:\n        /* \"#utility.yul\":10493:10567   */\n      swap2\n      pop\n        /* \"#utility.yul\":10576:10669   */\n      tag_329\n        /* \"#utility.yul\":10665:10668   */\n      dup3\n        /* \"#utility.yul\":10576:10669   */\n      tag_215\n      jump\t// in\n    tag_329:\n        /* \"#utility.yul\":10694:10696   */\n      0x20\n        /* \"#utility.yul\":10689:10692   */\n      dup3\n        /* \"#utility.yul\":10685:10697   */\n      add\n        /* \"#utility.yul\":10678:10697   */\n      swap1\n      pop\n        /* \"#utility.yul\":10337:10703   */\n      swap2\n      swap1\n      pop\n      jump\t// out\n        /* \"#utility.yul\":10709:11128   */\n    tag_92:\n        /* \"#utility.yul\":10875:10879   */\n      0x00\n        /* \"#utility.yul\":10913:10915   */\n      0x20\n        /* \"#utility.yul\":10902:10911   */\n      dup3\n        /* \"#utility.yul\":10898:10916   */\n      add\n        /* \"#utility.yul\":10890:10916   */\n      swap1\n      pop\n        /* \"#utility.yul\":10962:10971   */\n      dup2\n        /* \"#utility.yul\":10956:10960   */\n      dup2\n        /* \"#utility.yul\":10952:10972   */\n      sub\n        /* \"#utility.yul\":10948:10949   */\n      0x00\n        /* \"#utility.yul\":10937:10946   */\n      dup4\n        /* \"#utility.yul\":10933:10950   */\n      add\n        /* \"#utility.yul\":10926:10973   */\n      mstore\n        /* \"#utility.yul\":10990:11121   */\n      tag_331\n        /* \"#utility.yul\":11116:11120   */\n      dup2\n        /* \"#utility.yul\":10990:11121   */\n      tag_216\n      jump\t// in\n    tag_331:\n        /* \"#utility.yul\":10982:11121   */\n      swap1\n      pop\n        /* \"#utility.yul\":10709:11128   */\n      swap2\n      swap1\n      pop\n      jump\t// out\n        /* \"#utility.yul\":11134:11308   */\n    tag_217:\n        /* \"#utility.yul\":11274:11300   */\n      0x496e76616c69642072657061796d656e7420616d6f756e740000000000000000\n        /* \"#utility.yul\":11270:11271   */\n      0x00\n        /* \"#utility.yul\":11262:11268   */\n      dup3\n        /* \"#utility.yul\":11258:11272   */\n      add\n        /* \"#utility.yul\":11251:11301   */\n      mstore\n        /* \"#utility.yul\":11134:11308   */\n      pop\n      jump\t// out\n        /* \"#utility.yul\":11314:11680   */\n    tag_218:\n        /* \"#utility.yul\":11456:11459   */\n      0x00\n        /* \"#utility.yul\":11477:11544   */\n      tag_334\n        /* \"#utility.yul\":11541:11543   */\n      0x18\n        /* \"#utility.yul\":11536:11539   */\n      dup4\n        /* \"#utility.yul\":11477:11544   */\n      tag_205\n      jump\t// in\n    tag_334:\n        /* \"#utility.yul\":11470:11544   */\n      swap2\n      pop\n        /* \"#utility.yul\":11553:11646   */\n      tag_335\n        /* \"#utility.yul\":11642:11645   */\n      dup3\n        /* \"#utility.yul\":11553:11646   */\n      tag_217\n      jump\t// in\n    tag_335:\n        /* \"#utility.yul\":11671:11673   */\n      0x20\n        /* \"#utility.yul\":11666:11669   */\n      dup3\n        /* \"#utility.yul\":11662:11674   */\n      add\n        /* \"#utility.yul\":11655:11674   */\n      swap1\n      pop\n        /* \"#utility.yul\":11314:11680   */\n      swap2\n      swap1\n      pop\n      jump\t// out\n        /* \"#utility.yul\":11686:12105   */\n    tag_110:\n        /* \"#utility.yul\":11852:11856   */\n      0x00\n        /* \"#utility.yul\":11890:11892   */\n      0x20\n        /* \"#utility.yul\":11879:11888   */\n      dup3\n        /* \"#utility.yul\":11875:11893   */\n      add\n        /* \"#utility.yul\":11867:11893   */\n      swap1\n      pop\n        /* \"#utility.yul\":11939:11948   */\n      dup2\n        /* \"#utility.yul\":11933:11937   */\n      dup2\n        /* \"#utility.yul\":11929:11949   */\n      sub\n        /* \"#utility.yul\":11925:11926   */\n      0x00\n        /* \"#utility.yul\":11914:11923   */\n      dup4\n        /* \"#utility.yul\":11910:11927   */\n      add\n        /* \"#utility.yul\":11903:11950   */\n      mstore\n        /* \"#utility.yul\":11967:12098   */\n      tag_337\n        /* \"#utility.yul\":12093:12097   */\n      dup2\n        /* \"#utility.yul\":11967:12098   */\n      tag_218\n      jump\t// in\n    tag_337:\n        /* \"#utility.yul\":11959:12098   */\n      swap1\n      pop\n        /* \"#utility.yul\":11686:12105   */\n      swap2\n      swap1\n      pop\n      jump\t// out\n        /* \"#utility.yul\":12111:12291   */\n    tag_219:\n        /* \"#utility.yul\":12159:12236   */\n      0x4e487b7100000000000000000000000000000000000000000000000000000000\n        /* \"#utility.yul\":12156:12157   */\n      0x00\n        /* \"#utility.yul\":12149:12237   */\n      mstore\n        /* \"#utility.yul\":12256:12260   */\n      0x11\n        /* \"#utility.yul\":12253:12254   */\n      0x04\n        /* \"#utility.yul\":12246:12261   */\n      mstore\n        /* \"#utility.yul\":12280:12284   */\n      0x24\n        /* \"#utility.yul\":12277:12278   */\n      0x00\n        /* \"#utility.yul\":12270:12285   */\n      revert\n        /* \"#utility.yul\":12297:12491   */\n    tag_116:\n        /* \"#utility.yul\":12337:12341   */\n      0x00\n        /* \"#utility.yul\":12357:12377   */\n      tag_340\n        /* \"#utility.yul\":12375:12376   */\n      dup3\n        /* \"#utility.yul\":12357:12377   */\n      tag_189\n      jump\t// in\n    tag_340:\n        /* \"#utility.yul\":12352:12377   */\n      swap2\n      pop\n        /* \"#utility.yul\":12391:12411   */\n      tag_341\n        /* \"#utility.yul\":12409:12410   */\n      dup4\n        /* \"#utility.yul\":12391:12411   */\n      tag_189\n      jump\t// in\n    tag_341:\n        /* \"#utility.yul\":12386:12411   */\n      swap3\n      pop\n        /* \"#utility.yul\":12435:12436   */\n      dup3\n        /* \"#utility.yul\":12432:12433   */\n      dup3\n        /* \"#utility.yul\":12428:12437   */\n      sub\n        /* \"#utility.yul\":12420:12437   */\n      swap1\n      pop\n        /* \"#utility.yul\":12459:12460   */\n      dup2\n        /* \"#utility.yul\":12453:12457   */\n      dup2\n        /* \"#utility.yul\":12450:12461   */\n      gt\n        /* \"#utility.yul\":12447:12484   */\n      iszero\n      tag_342\n      jumpi\n        /* \"#utility.yul\":12464:12482   */\n      tag_343\n      tag_219\n      jump\t// in\n    tag_343:\n        /* \"#utility.yul\":12447:12484   */\n    tag_342:\n        /* \"#utility.yul\":12297:12491   */\n      swap3\n      swap2\n      pop\n      pop\n      jump\t// out\n        /* \"#utility.yul\":12497:12688   */\n    tag_140:\n        /* \"#utility.yul\":12537:12540   */\n      0x00\n        /* \"#utility.yul\":12556:12576   */\n      tag_345\n        /* \"#utility.yul\":12574:12575   */\n      dup3\n        /* \"#utility.yul\":12556:12576   */\n      tag_189\n      jump\t// in\n    tag_345:\n        /* \"#utility.yul\":12551:12576   */\n      swap2\n      pop\n        /* \"#utility.yul\":12590:12610   */\n      tag_346\n        /* \"#utility.yul\":12608:12609   */\n      dup4\n        /* \"#utility.yul\":12590:12610   */\n      tag_189\n      jump\t// in\n    tag_346:\n        /* \"#utility.yul\":12585:12610   */\n      swap3\n      pop\n        /* \"#utility.yul\":12633:12634   */\n      dup3\n        /* \"#utility.yul\":12630:12631   */\n      dup3\n        /* \"#utility.yul\":12626:12635   */\n      add\n        /* \"#utility.yul\":12619:12635   */\n      swap1\n      pop\n        /* \"#utility.yul\":12654:12657   */\n      dup1\n        /* \"#utility.yul\":12651:12652   */\n      dup3\n        /* \"#utility.yul\":12648:12658   */\n      gt\n        /* \"#utility.yul\":12645:12681   */\n      iszero\n      tag_347\n      jumpi\n        /* \"#utility.yul\":12661:12679   */\n      tag_348\n      tag_219\n      jump\t// in\n    tag_348:\n        /* \"#utility.yul\":12645:12681   */\n    tag_347:\n        /* \"#utility.yul\":12497:12688   */\n      swap3\n      swap2\n      pop\n      pop\n      jump\t// out\n        /* \"#utility.yul\":12694:12874   */\n    tag_220:\n        /* \"#utility.yul\":12742:12819   */\n      0x4e487b7100000000000000000000000000000000000000000000000000000000\n        /* \"#utility.yul\":12739:12740   */\n      0x00\n        /* \"#utility.yul\":12732:12820   */\n      mstore\n        /* \"#utility.yul\":12839:12843   */\n      0x12\n        /* \"#utility.yul\":12836:12837   */\n      0x04\n        /* \"#utility.yul\":12829:12844   */\n      mstore\n        /* \"#utility.yul\":12863:12867   */\n      0x24\n        /* \"#utility.yul\":12860:12861   */\n      0x00\n        /* \"#utility.yul\":12853:12868   */\n      revert\n        /* \"#utility.yul\":12880:13065   */\n    tag_157:\n        /* \"#utility.yul\":12920:12921   */\n      0x00\n        /* \"#utility.yul\":12937:12957   */\n      tag_351\n        /* \"#utility.yul\":12955:12956   */\n      dup3\n        /* \"#utility.yul\":12937:12957   */\n      tag_189\n      jump\t// in\n    tag_351:\n        /* \"#utility.yul\":12932:12957   */\n      swap2\n      pop\n        /* \"#utility.yul\":12971:12991   */\n      tag_352\n        /* \"#utility.yul\":12989:12990   */\n      dup4\n        /* \"#utility.yul\":12971:12991   */\n      tag_189\n      jump\t// in\n    tag_352:\n        /* \"#utility.yul\":12966:12991   */\n      swap3\n      pop\n        /* \"#utility.yul\":13010:13011   */\n      dup3\n        /* \"#utility.yul\":13000:13035   */\n      tag_353\n      jumpi\n        /* \"#utility.yul\":13015:13033   */\n      tag_354\n      tag_220\n      jump\t// in\n    tag_354:\n        /* \"#utility.yul\":13000:13035   */\n    tag_353:\n        /* \"#utility.yul\":13057:13058   */\n      dup3\n        /* \"#utility.yul\":13054:13055   */\n      dup3\n        /* \"#utility.yul\":13050:13059   */\n      div\n        /* \"#utility.yul\":13045:13059   */\n      swap1\n      pop\n        /* \"#utility.yul\":12880:13065   */\n      swap3\n      swap2\n      pop\n      pop\n      jump\t// out\n        /* \"#utility.yul\":13071:13481   */\n    tag_160:\n        /* \"#utility.yul\":13111:13118   */\n      0x00\n        /* \"#utility.yul\":13134:13154   */\n      tag_356\n        /* \"#utility.yul\":13152:13153   */\n      dup3\n        /* \"#utility.yul\":13134:13154   */\n      tag_189\n      jump\t// in\n    tag_356:\n        /* \"#utility.yul\":13129:13154   */\n      swap2\n      pop\n        /* \"#utility.yul\":13168:13188   */\n      tag_357\n        /* \"#utility.yul\":13186:13187   */\n      dup4\n        /* \"#utility.yul\":13168:13188   */\n      tag_189\n      jump\t// in\n    tag_357:\n        /* \"#utility.yul\":13163:13188   */\n      swap3\n      pop\n        /* \"#utility.yul\":13223:13224   */\n      dup3\n        /* \"#utility.yul\":13220:13221   */\n      dup3\n        /* \"#utility.yul\":13216:13225   */\n      mul\n        /* \"#utility.yul\":13245:13275   */\n      tag_358\n        /* \"#utility.yul\":13263:13274   */\n      dup2\n        /* \"#utility.yul\":13245:13275   */\n      tag_189\n      jump\t// in\n    tag_358:\n        /* \"#utility.yul\":13234:13275   */\n      swap2\n      pop\n        /* \"#utility.yul\":13424:13425   */\n      dup3\n        /* \"#utility.yul\":13415:13422   */\n      dup3\n        /* \"#utility.yul\":13411:13426   */\n      div\n        /* \"#utility.yul\":13408:13409   */\n      dup5\n        /* \"#utility.yul\":13405:13427   */\n      eq\n        /* \"#utility.yul\":13385:13386   */\n      dup4\n        /* \"#utility.yul\":13378:13387   */\n      iszero\n        /* \"#utility.yul\":13358:13441   */\n      or\n        /* \"#utility.yul\":13335:13474   */\n      tag_359\n      jumpi\n        /* \"#utility.yul\":13454:13472   */\n      tag_360\n      tag_219\n      jump\t// in\n    tag_360:\n        /* \"#utility.yul\":13335:13474   */\n    tag_359:\n        /* \"#utility.yul\":13119:13481   */\n      pop\n        /* \"#utility.yul\":13071:13481   */\n      swap3\n      swap2\n      pop\n      pop\n      jump\t// out\n        /* \"#utility.yul\":13487:13663   */\n    tag_171:\n        /* \"#utility.yul\":13519:13520   */\n      0x00\n        /* \"#utility.yul\":13536:13556   */\n      tag_362\n        /* \"#utility.yul\":13554:13555   */\n      dup3\n        /* \"#utility.yul\":13536:13556   */\n      tag_189\n      jump\t// in\n    tag_362:\n        /* \"#utility.yul\":13531:13556   */\n      swap2\n      pop\n        /* \"#utility.yul\":13570:13590   */\n      tag_363\n        /* \"#utility.yul\":13588:13589   */\n      dup4\n        /* \"#utility.yul\":13570:13590   */\n      tag_189\n      jump\t// in\n    tag_363:\n        /* \"#utility.yul\":13565:13590   */\n      swap3\n      pop\n        /* \"#utility.yul\":13609:13610   */\n      dup3\n        /* \"#utility.yul\":13599:13634   */\n      tag_364\n      jumpi\n        /* \"#utility.yul\":13614:13632   */\n      tag_365\n      tag_220\n      jump\t// in\n    tag_365:\n        /* \"#utility.yul\":13599:13634   */\n    tag_364:\n        /* \"#utility.yul\":13655:13656   */\n      dup3\n        /* \"#utility.yul\":13652:13653   */\n      dup3\n        /* \"#utility.yul\":13648:13657   */\n      mod\n        /* \"#utility.yul\":13643:13657   */\n      swap1\n      pop\n        /* \"#utility.yul\":13487:13663   */\n      swap3\n      swap2\n      pop\n      pop\n      jump\t// out\n\n    auxdata: 0xa26469706673582212204bd7037ccc0bf5b64636ec807c3730a558a602a59007e0dd2c65397778a53c0664736f6c634300081e0033\n}\n",
				"bytecode": {
					"linkReferences": {},
					"object": "608060405261012c600355348015610015575f5ffd5b506040516119463803806119468339818101604052810190610037919061025e565b335f73ffffffffffffffffffffffffffffffffffffffff168173ffffffffffffffffffffffffffffffffffffffff16036100a8575f6040517f1e4fbdf700000000000000000000000000000000000000000000000000000000815260040161009f91906102ab565b60405180910390fd5b6100b78161013f60201b60201c565b508160015f6101000a81548173ffffffffffffffffffffffffffffffffffffffff021916908373ffffffffffffffffffffffffffffffffffffffff1602179055508060025f6101000a81548173ffffffffffffffffffffffffffffffffffffffff021916908373ffffffffffffffffffffffffffffffffffffffff16021790555050506102c4565b5f5f5f9054906101000a900473ffffffffffffffffffffffffffffffffffffffff169050815f5f6101000a81548173ffffffffffffffffffffffffffffffffffffffff021916908373ffffffffffffffffffffffffffffffffffffffff1602179055508173ffffffffffffffffffffffffffffffffffffffff168173ffffffffffffffffffffffffffffffffffffffff167f8be0079c531659141344cd1fd0a4f28419497f9722a3daafe3b4186f6b6457e060405160405180910390a35050565b5f5ffd5b5f73ffffffffffffffffffffffffffffffffffffffff82169050919050565b5f61022d82610204565b9050919050565b61023d81610223565b8114610247575f5ffd5b50565b5f8151905061025881610234565b92915050565b5f5f6040838503121561027457610273610200565b5b5f6102818582860161024a565b92505060206102928582860161024a565b9150509250929050565b6102a581610223565b82525050565b5f6020820190506102be5f83018461029c565b92915050565b611675806102d15f395ff3fe608060405234801561000f575f5ffd5b50600436106100a7575f3560e01c806373b4086b1161006f57806373b4086b1461012757806384fc77e61461015a5780638da5cb5b14610178578063d37d937a14610196578063d5a54a9e146101b4578063f2fde38b146101d2576100a7565b80630ecbcdab146100ab5780632f865568146100c7578063371fd8e6146100e3578063715018a6146100ff57806371bf862314610109575b5f5ffd5b6100c560048036038101906100c09190610f92565b6101ee565b005b6100e160048036038101906100dc919061102a565b6105e0565b005b6100fd60048036038101906100f89190611055565b6107be565b005b610107610a88565b005b610111610a9b565b60405161011e919061108f565b60405180910390f35b610141600480360381019061013c919061102a565b610aa1565b60405161015194939291906110c2565b60405180910390f35b610162610ad9565b60405161016f9190611160565b60405180910390f35b610180610afe565b60405161018d9190611188565b60405180910390f35b61019e610b25565b6040516101ab9190611160565b60405180910390f35b6101bc610b4a565b6040516101c9919061108f565b60405180910390f35b6101ec60048036038101906101e7919061102a565b610b50565b005b5f821180156101fc57505f81115b61023b576040517f08c379a0000000000000000000000000000000000000000000000000000000008152600401610232906111fb565b60405180910390fd5b60045f3373ffffffffffffffffffffffffffffffffffffffff1673ffffffffffffffffffffffffffffffffffffffff1681526020019081526020015f206003015f9054906101000a900460ff16156102c8576040517f08c379a00000000000000000000000000000000000000000000000000000000081526004016102bf90611263565b60405180910390fd5b60015f9054906101000a900473ffffffffffffffffffffffffffffffffffffffff1673ffffffffffffffffffffffffffffffffffffffff166323b872dd3330856040518463ffffffff1660e01b815260040161032693929190611281565b6020604051808303815f875af1158015610342573d5f5f3e3d5ffd5b505050506040513d601f19601f8201168201806040525081019061036691906112e0565b508060025f9054906101000a900473ffffffffffffffffffffffffffffffffffffffff1673ffffffffffffffffffffffffffffffffffffffff166370a08231306040518263ffffffff1660e01b81526004016103c29190611188565b602060405180830381865afa1580156103dd573d5f5f3e3d5ffd5b505050506040513d601f19601f82011682018060405250810190610401919061131f565b1015610442576040517f08c379a000000000000000000000000000000000000000000000000000000000815260040161043990611394565b60405180910390fd5b60025f9054906101000a900473ffffffffffffffffffffffffffffffffffffffff1673ffffffffffffffffffffffffffffffffffffffff1663a9059cbb33836040518363ffffffff1660e01b815260040161049e9291906113b2565b6020604051808303815f875af11580156104ba573d5f5f3e3d5ffd5b505050506040513d601f19601f820116820180604052508101906104de91906112e0565b505f6104e8610bd4565b905060405180608001604052808481526020018381526020018281526020016001151581525060045f3373ffffffffffffffffffffffffffffffffffffffff1673ffffffffffffffffffffffffffffffffffffffff1681526020019081526020015f205f820151815f015560208201518160010155604082015181600201556060820151816003015f6101000a81548160ff0219169083151502179055509050503373ffffffffffffffffffffffffffffffffffffffff167fc4381c9c7b508979896c55381c1cb8c2aef28d753cff7661f9cd87b9a14584f88484846040516105d3939291906113d9565b60405180910390a2505050565b6105e8610c30565b5f60045f8373ffffffffffffffffffffffffffffffffffffffff1673ffffffffffffffffffffffffffffffffffffffff1681526020019081526020015f209050806003015f9054906101000a900460ff16610678576040517f08c379a000000000000000000000000000000000000000000000000000000000815260040161066f90611458565b60405180910390fd5b61068182610cb7565b80600201544211801561069757505f8160010154115b156107ba575f815f015490505f826003015f6101000a81548160ff0219169083151502179055505f825f018190555060015f9054906101000a900473ffffffffffffffffffffffffffffffffffffffff1673ffffffffffffffffffffffffffffffffffffffff1663a9059cbb61070b610afe565b836040518363ffffffff1660e01b81526004016107299291906113b2565b6020604051808303815f875af1158015610745573d5f5f3e3d5ffd5b505050506040513d601f19601f8201168201806040525081019061076991906112e0565b508273ffffffffffffffffffffffffffffffffffffffff167fa5ee7a2b0254fce91deed604506790ed7fa072d0b14cba4859c3bc8955b9caac826040516107b0919061108f565b60405180910390a2505b5050565b5f60045f3373ffffffffffffffffffffffffffffffffffffffff1673ffffffffffffffffffffffffffffffffffffffff1681526020019081526020015f209050806003015f9054906101000a900460ff1661084e576040517f08c379a000000000000000000000000000000000000000000000000000000000815260040161084590611458565b60405180910390fd5b61085733610cb7565b5f8211801561086a575080600101548211155b6108a9576040517f08c379a00000000000000000000000000000000000000000000000000000000081526004016108a0906114c0565b60405180910390fd5b60025f9054906101000a900473ffffffffffffffffffffffffffffffffffffffff1673ffffffffffffffffffffffffffffffffffffffff166323b872dd3330856040518463ffffffff1660e01b815260040161090793929190611281565b6020604051808303815f875af1158015610923573d5f5f3e3d5ffd5b505050506040513d601f19601f8201168201806040525081019061094791906112e0565b5081816001015f82825461095b919061150b565b925050819055505f816001015403610a36575f815f015490505f826003015f6101000a81548160ff0219169083151502179055505f825f018190555060015f9054906101000a900473ffffffffffffffffffffffffffffffffffffffff1673ffffffffffffffffffffffffffffffffffffffff1663a9059cbb33836040518363ffffffff1660e01b81526004016109f39291906113b2565b6020604051808303815f875af1158015610a0f573d5f5f3e3d5ffd5b505050506040513d601f19601f82011682018060405250810190610a3391906112e0565b50505b3373ffffffffffffffffffffffffffffffffffffffff167f0516911bcc3a0a7412a44601057c0a0a1ec628bde049a84284bc42886653448883604051610a7c919061108f565b60405180910390a25050565b610a90610c30565b610a995f610da7565b565b61271081565b6004602052805f5260405f205f91509050805f015490806001015490806002015490806003015f9054906101000a900460ff16905084565b60025f9054906101000a900473ffffffffffffffffffffffffffffffffffffffff1681565b5f5f5f9054906101000a900473ffffffffffffffffffffffffffffffffffffffff16905090565b60015f9054906101000a900473ffffffffffffffffffffffffffffffffffffffff1681565b60035481565b610b58610c30565b5f73ffffffffffffffffffffffffffffffffffffffff168173ffffffffffffffffffffffffffffffffffffffff1603610bc8575f6040517f1e4fbdf7000000000000000000000000000000000000000000000000000000008152600401610bbf9190611188565b60405180910390fd5b610bd181610da7565b50565b5f5f5f5f610be142610e68565b92509250925060198110610c1c57600182610bfc919061153e565b9150600c821115610c1b5760019150600183610c18919061153e565b92505b5b610c2883836019610ee3565b935050505090565b610c38610f54565b73ffffffffffffffffffffffffffffffffffffffff16610c56610afe565b73ffffffffffffffffffffffffffffffffffffffff1614610cb557610c79610f54565b6040517f118cdaa7000000000000000000000000000000000000000000000000000000008152600401610cac9190611188565b60405180910390fd5b565b5f60045f8373ffffffffffffffffffffffffffffffffffffffff1673ffffffffffffffffffffffffffffffffffffffff1681526020019081526020015f209050806003015f9054906101000a900460ff168015610d175750806002015442115b15610da3575f600162278d00836002015442610d33919061150b565b610d3d919061159e565b610d47919061153e565b90505f612710826003548560010154610d6091906115ce565b610d6a91906115ce565b610d74919061159e565b905080836001015f828254610d89919061153e565b92505081905550610d98610bd4565b836002018190555050505b5050565b5f5f5f9054906101000a900473ffffffffffffffffffffffffffffffffffffffff169050815f5f6101000a81548173ffffffffffffffffffffffffffffffffffffffff021916908373ffffffffffffffffffffffffffffffffffffffff1602179055508173ffffffffffffffffffffffffffffffffffffffff168173ffffffffffffffffffffffffffffffffffffffff167f8be0079c531659141344cd1fd0a4f28419497f9722a3daafe3b4186f6b6457e060405160405180910390a35050565b5f5f5f6301e1855884610e7b919061159e565b6107b2610e88919061153e565b92506001600c6228207286610e9d919061159e565b610ea7919061160f565b610eb1919061153e565b91506001601e6201518086610ec6919061159e565b610ed0919061160f565b610eda919061153e565b90509193909250565b5f62015180600183610ef5919061150b565b610eff91906115ce565b62282072600185610f10919061150b565b610f1a91906115ce565b6301e185586107b287610f2d919061150b565b610f3791906115ce565b610f41919061153e565b610f4b919061153e565b90509392505050565b5f33905090565b5f5ffd5b5f819050919050565b610f7181610f5f565b8114610f7b575f5ffd5b50565b5f81359050610f8c81610f68565b92915050565b5f5f60408385031215610fa857610fa7610f5b565b5b5f610fb585828601610f7e565b9250506020610fc685828601610f7e565b9150509250929050565b5f73ffffffffffffffffffffffffffffffffffffffff82169050919050565b5f610ff982610fd0565b9050919050565b61100981610fef565b8114611013575f5ffd5b50565b5f8135905061102481611000565b92915050565b5f6020828403121561103f5761103e610f5b565b5b5f61104c84828501611016565b91505092915050565b5f6020828403121561106a57611069610f5b565b5b5f61107784828501610f7e565b91505092915050565b61108981610f5f565b82525050565b5f6020820190506110a25f830184611080565b92915050565b5f8115159050919050565b6110bc816110a8565b82525050565b5f6080820190506110d55f830187611080565b6110e26020830186611080565b6110ef6040830185611080565b6110fc60608301846110b3565b95945050505050565b5f819050919050565b5f61112861112361111e84610fd0565b611105565b610fd0565b9050919050565b5f6111398261110e565b9050919050565b5f61114a8261112f565b9050919050565b61115a81611140565b82525050565b5f6020820190506111735f830184611151565b92915050565b61118281610fef565b82525050565b5f60208201905061119b5f830184611179565b92915050565b5f82825260208201905092915050565b7f496e76616c696420616d6f756e747300000000000000000000000000000000005f82015250565b5f6111e5600f836111a1565b91506111f0826111b1565b602082019050919050565b5f6020820190508181035f830152611212816111d9565b9050919050565b7f4c6f616e206578697374730000000000000000000000000000000000000000005f82015250565b5f61124d600b836111a1565b915061125882611219565b602082019050919050565b5f6020820190508181035f83015261127a81611241565b9050919050565b5f6060820190506112945f830186611179565b6112a16020830185611179565b6112ae6040830184611080565b949350505050565b6112bf816110a8565b81146112c9575f5ffd5b50565b5f815190506112da816112b6565b92915050565b5f602082840312156112f5576112f4610f5b565b5b5f611302848285016112cc565b91505092915050565b5f8151905061131981610f68565b92915050565b5f6020828403121561133457611333610f5b565b5b5f6113418482850161130b565b91505092915050565b7f496e73756666696369656e7420555344524946206c69717569646974790000005f82015250565b5f61137e601d836111a1565b91506113898261134a565b602082019050919050565b5f6020820190508181035f8301526113ab81611372565b9050919050565b5f6040820190506113c55f830185611179565b6113d26020830184611080565b9392505050565b5f6060820190506113ec5f830186611080565b6113f96020830185611080565b6114066040830184611080565b949350505050565b7f4e6f20616374697665206c6f616e0000000000000000000000000000000000005f82015250565b5f611442600e836111a1565b915061144d8261140e565b602082019050919050565b5f6020820190508181035f83015261146f81611436565b9050919050565b7f496e76616c69642072657061796d656e7420616d6f756e7400000000000000005f82015250565b5f6114aa6018836111a1565b91506114b582611476565b602082019050919050565b5f6020820190508181035f8301526114d78161149e565b9050919050565b7f4e487b71000000000000000000000000000000000000000000000000000000005f52601160045260245ffd5b5f61151582610f5f565b915061152083610f5f565b9250828203905081811115611538576115376114de565b5b92915050565b5f61154882610f5f565b915061155383610f5f565b925082820190508082111561156b5761156a6114de565b5b92915050565b7f4e487b71000000000000000000000000000000000000000000000000000000005f52601260045260245ffd5b5f6115a882610f5f565b91506115b383610f5f565b9250826115c3576115c2611571565b5b828204905092915050565b5f6115d882610f5f565b91506115e383610f5f565b92508282026115f181610f5f565b91508282048414831517611608576116076114de565b5b5092915050565b5f61161982610f5f565b915061162483610f5f565b92508261163457611633611571565b5b82820690509291505056fea26469706673582212204bd7037ccc0bf5b64636ec807c3730a558a602a59007e0dd2c65397778a53c0664736f6c634300081e0033",
					"opcodes": "PUSH1 0x80 PUSH1 0x40 MSTORE PUSH2 0x12C PUSH1 0x3 SSTORE CALLVALUE DUP1 ISZERO PUSH2 0x15 JUMPI PUSH0 PUSH0 REVERT JUMPDEST POP PUSH1 0x40 MLOAD PUSH2 0x1946 CODESIZE SUB DUP1 PUSH2 0x1946 DUP4 CODECOPY DUP2 DUP2 ADD PUSH1 0x40 MSTORE DUP2 ADD SWAP1 PUSH2 0x37 SWAP2 SWAP1 PUSH2 0x25E JUMP JUMPDEST CALLER PUSH0 PUSH20 0xFFFFFFFFFFFFFFFFFFFFFFFFFFFFFFFFFFFFFFFF AND DUP2 PUSH20 0xFFFFFFFFFFFFFFFFFFFFFFFFFFFFFFFFFFFFFFFF AND SUB PUSH2 0xA8 JUMPI PUSH0 PUSH1 0x40 MLOAD PUSH32 0x1E4FBDF700000000000000000000000000000000000000000000000000000000 DUP2 MSTORE PUSH1 0x4 ADD PUSH2 0x9F SWAP2 SWAP1 PUSH2 0x2AB JUMP JUMPDEST PUSH1 0x40 MLOAD DUP1 SWAP2 SUB SWAP1 REVERT JUMPDEST PUSH2 0xB7 DUP2 PUSH2 0x13F PUSH1 0x20 SHL PUSH1 0x20 SHR JUMP JUMPDEST POP DUP2 PUSH1 0x1 PUSH0 PUSH2 0x100 EXP DUP2 SLOAD DUP2 PUSH20 0xFFFFFFFFFFFFFFFFFFFFFFFFFFFFFFFFFFFFFFFF MUL NOT AND SWAP1 DUP4 PUSH20 0xFFFFFFFFFFFFFFFFFFFFFFFFFFFFFFFFFFFFFFFF AND MUL OR SWAP1 SSTORE POP DUP1 PUSH1 0x2 PUSH0 PUSH2 0x100 EXP DUP2 SLOAD DUP2 PUSH20 0xFFFFFFFFFFFFFFFFFFFFFFFFFFFFFFFFFFFFFFFF MUL NOT AND SWAP1 DUP4 PUSH20 0xFFFFFFFFFFFFFFFFFFFFFFFFFFFFFFFFFFFFFFFF AND MUL OR SWAP1 SSTORE POP POP POP PUSH2 0x2C4 JUMP JUMPDEST PUSH0 PUSH0 PUSH0 SWAP1 SLOAD SWAP1 PUSH2 0x100 EXP SWAP1 DIV PUSH20 0xFFFFFFFFFFFFFFFFFFFFFFFFFFFFFFFFFFFFFFFF AND SWAP1 POP DUP2 PUSH0 PUSH0 PUSH2 0x100 EXP DUP2 SLOAD DUP2 PUSH20 0xFFFFFFFFFFFFFFFFFFFFFFFFFFFFFFFFFFFFFFFF MUL NOT AND SWAP1 DUP4 PUSH20 0xFFFFFFFFFFFFFFFFFFFFFFFFFFFFFFFFFFFFFFFF AND MUL OR SWAP1 SSTORE POP DUP2 PUSH20 0xFFFFFFFFFFFFFFFFFFFFFFFFFFFFFFFFFFFFFFFF AND DUP2 PUSH20 0xFFFFFFFFFFFFFFFFFFFFFFFFFFFFFFFFFFFFFFFF AND PUSH32 0x8BE0079C531659141344CD1FD0A4F28419497F9722A3DAAFE3B4186F6B6457E0 PUSH1 0x40 MLOAD PUSH1 0x40 MLOAD DUP1 SWAP2 SUB SWAP1 LOG3 POP POP JUMP JUMPDEST PUSH0 PUSH0 REVERT JUMPDEST PUSH0 PUSH20 0xFFFFFFFFFFFFFFFFFFFFFFFFFFFFFFFFFFFFFFFF DUP3 AND SWAP1 POP SWAP2 SWAP1 POP JUMP JUMPDEST PUSH0 PUSH2 0x22D DUP3 PUSH2 0x204 JUMP JUMPDEST SWAP1 POP SWAP2 SWAP1 POP JUMP JUMPDEST PUSH2 0x23D DUP2 PUSH2 0x223 JUMP JUMPDEST DUP2 EQ PUSH2 0x247 JUMPI PUSH0 PUSH0 REVERT JUMPDEST POP JUMP JUMPDEST PUSH0 DUP2 MLOAD SWAP1 POP PUSH2 0x258 DUP2 PUSH2 0x234 JUMP JUMPDEST SWAP3 SWAP2 POP POP JUMP JUMPDEST PUSH0 PUSH0 PUSH1 0x40 DUP4 DUP6 SUB SLT ISZERO PUSH2 0x274 JUMPI PUSH2 0x273 PUSH2 0x200 JUMP JUMPDEST JUMPDEST PUSH0 PUSH2 0x281 DUP6 DUP3 DUP7 ADD PUSH2 0x24A JUMP JUMPDEST SWAP3 POP POP PUSH1 0x20 PUSH2 0x292 DUP6 DUP3 DUP7 ADD PUSH2 0x24A JUMP JUMPDEST SWAP2 POP POP SWAP3 POP SWAP3 SWAP1 POP JUMP JUMPDEST PUSH2 0x2A5 DUP2 PUSH2 0x223 JUMP JUMPDEST DUP3 MSTORE POP POP JUMP JUMPDEST PUSH0 PUSH1 0x20 DUP3 ADD SWAP1 POP PUSH2 0x2BE PUSH0 DUP4 ADD DUP5 PUSH2 0x29C JUMP JUMPDEST SWAP3 SWAP2 POP POP JUMP JUMPDEST PUSH2 0x1675 DUP1 PUSH2 0x2D1 PUSH0 CODECOPY PUSH0 RETURN INVALID PUSH1 0x80 PUSH1 0x40 MSTORE CALLVALUE DUP1 ISZERO PUSH2 0xF JUMPI PUSH0 PUSH0 REVERT JUMPDEST POP PUSH1 0x4 CALLDATASIZE LT PUSH2 0xA7 JUMPI PUSH0 CALLDATALOAD PUSH1 0xE0 SHR DUP1 PUSH4 0x73B4086B GT PUSH2 0x6F JUMPI DUP1 PUSH4 0x73B4086B EQ PUSH2 0x127 JUMPI DUP1 PUSH4 0x84FC77E6 EQ PUSH2 0x15A JUMPI DUP1 PUSH4 0x8DA5CB5B EQ PUSH2 0x178 JUMPI DUP1 PUSH4 0xD37D937A EQ PUSH2 0x196 JUMPI DUP1 PUSH4 0xD5A54A9E EQ PUSH2 0x1B4 JUMPI DUP1 PUSH4 0xF2FDE38B EQ PUSH2 0x1D2 JUMPI PUSH2 0xA7 JUMP JUMPDEST DUP1 PUSH4 0xECBCDAB EQ PUSH2 0xAB JUMPI DUP1 PUSH4 0x2F865568 EQ PUSH2 0xC7 JUMPI DUP1 PUSH4 0x371FD8E6 EQ PUSH2 0xE3 JUMPI DUP1 PUSH4 0x715018A6 EQ PUSH2 0xFF JUMPI DUP1 PUSH4 0x71BF8623 EQ PUSH2 0x109 JUMPI JUMPDEST PUSH0 PUSH0 REVERT JUMPDEST PUSH2 0xC5 PUSH1 0x4 DUP1 CALLDATASIZE SUB DUP2 ADD SWAP1 PUSH2 0xC0 SWAP2 SWAP1 PUSH2 0xF92 JUMP JUMPDEST PUSH2 0x1EE JUMP JUMPDEST STOP JUMPDEST PUSH2 0xE1 PUSH1 0x4 DUP1 CALLDATASIZE SUB DUP2 ADD SWAP1 PUSH2 0xDC SWAP2 SWAP1 PUSH2 0x102A JUMP JUMPDEST PUSH2 0x5E0 JUMP JUMPDEST STOP JUMPDEST PUSH2 0xFD PUSH1 0x4 DUP1 CALLDATASIZE SUB DUP2 ADD SWAP1 PUSH2 0xF8 SWAP2 SWAP1 PUSH2 0x1055 JUMP JUMPDEST PUSH2 0x7BE JUMP JUMPDEST STOP JUMPDEST PUSH2 0x107 PUSH2 0xA88 JUMP JUMPDEST STOP JUMPDEST PUSH2 0x111 PUSH2 0xA9B JUMP JUMPDEST PUSH1 0x40 MLOAD PUSH2 0x11E SWAP2 SWAP1 PUSH2 0x108F JUMP JUMPDEST PUSH1 0x40 MLOAD DUP1 SWAP2 SUB SWAP1 RETURN JUMPDEST PUSH2 0x141 PUSH1 0x4 DUP1 CALLDATASIZE SUB DUP2 ADD SWAP1 PUSH2 0x13C SWAP2 SWAP1 PUSH2 0x102A JUMP JUMPDEST PUSH2 0xAA1 JUMP JUMPDEST PUSH1 0x40 MLOAD PUSH2 0x151 SWAP5 SWAP4 SWAP3 SWAP2 SWAP1 PUSH2 0x10C2 JUMP JUMPDEST PUSH1 0x40 MLOAD DUP1 SWAP2 SUB SWAP1 RETURN JUMPDEST PUSH2 0x162 PUSH2 0xAD9 JUMP JUMPDEST PUSH1 0x40 MLOAD PUSH2 0x16F SWAP2 SWAP1 PUSH2 0x1160 JUMP JUMPDEST PUSH1 0x40 MLOAD DUP1 SWAP2 SUB SWAP1 RETURN JUMPDEST PUSH2 0x180 PUSH2 0xAFE JUMP JUMPDEST PUSH1 0x40 MLOAD PUSH2 0x18D SWAP2 SWAP1 PUSH2 0x1188 JUMP JUMPDEST PUSH1 0x40 MLOAD DUP1 SWAP2 SUB SWAP1 RETURN JUMPDEST PUSH2 0x19E PUSH2 0xB25 JUMP JUMPDEST PUSH1 0x40 MLOAD PUSH2 0x1AB SWAP2 SWAP1 PUSH2 0x1160 JUMP JUMPDEST PUSH1 0x40 MLOAD DUP1 SWAP2 SUB SWAP1 RETURN JUMPDEST PUSH2 0x1BC PUSH2 0xB4A JUMP JUMPDEST PUSH1 0x40 MLOAD PUSH2 0x1C9 SWAP2 SWAP1 PUSH2 0x108F JUMP JUMPDEST PUSH1 0x40 MLOAD DUP1 SWAP2 SUB SWAP1 RETURN JUMPDEST PUSH2 0x1EC PUSH1 0x4 DUP1 CALLDATASIZE SUB DUP2 ADD SWAP1 PUSH2 0x1E7 SWAP2 SWAP1 PUSH2 0x102A JUMP JUMPDEST PUSH2 0xB50 JUMP JUMPDEST STOP JUMPDEST PUSH0 DUP3 GT DUP1 ISZERO PUSH2 0x1FC JUMPI POP PUSH0 DUP2 GT JUMPDEST PUSH2 0x23B JUMPI PUSH1 0x40 MLOAD PUSH32 0x8C379A000000000000000000000000000000000000000000000000000000000 DUP2 MSTORE PUSH1 0x4 ADD PUSH2 0x232 SWAP1 PUSH2 0x11FB JUMP JUMPDEST PUSH1 0x40 MLOAD DUP1 SWAP2 SUB SWAP1 REVERT JUMPDEST PUSH1 0x4 PUSH0 CALLER PUSH20 0xFFFFFFFFFFFFFFFFFFFFFFFFFFFFFFFFFFFFFFFF AND PUSH20 0xFFFFFFFFFFFFFFFFFFFFFFFFFFFFFFFFFFFFFFFF AND DUP2 MSTORE PUSH1 0x20 ADD SWAP1 DUP2 MSTORE PUSH1 0x20 ADD PUSH0 KECCAK256 PUSH1 0x3 ADD PUSH0 SWAP1 SLOAD SWAP1 PUSH2 0x100 EXP SWAP1 DIV PUSH1 0xFF AND ISZERO PUSH2 0x2C8 JUMPI PUSH1 0x40 MLOAD PUSH32 0x8C379A000000000000000000000000000000000000000000000000000000000 DUP2 MSTORE PUSH1 0x4 ADD PUSH2 0x2BF SWAP1 PUSH2 0x1263 JUMP JUMPDEST PUSH1 0x40 MLOAD DUP1 SWAP2 SUB SWAP1 REVERT JUMPDEST PUSH1 0x1 PUSH0 SWAP1 SLOAD SWAP1 PUSH2 0x100 EXP SWAP1 DIV PUSH20 0xFFFFFFFFFFFFFFFFFFFFFFFFFFFFFFFFFFFFFFFF AND PUSH20 0xFFFFFFFFFFFFFFFFFFFFFFFFFFFFFFFFFFFFFFFF AND PUSH4 0x23B872DD CALLER ADDRESS DUP6 PUSH1 0x40 MLOAD DUP5 PUSH4 0xFFFFFFFF AND PUSH1 0xE0 SHL DUP2 MSTORE PUSH1 0x4 ADD PUSH2 0x326 SWAP4 SWAP3 SWAP2 SWAP1 PUSH2 0x1281 JUMP JUMPDEST PUSH1 0x20 PUSH1 0x40 MLOAD DUP1 DUP4 SUB DUP2 PUSH0 DUP8 GAS CALL ISZERO DUP1 ISZERO PUSH2 0x342 JUMPI RETURNDATASIZE PUSH0 PUSH0 RETURNDATACOPY RETURNDATASIZE PUSH0 REVERT JUMPDEST POP POP POP POP PUSH1 0x40 MLOAD RETURNDATASIZE PUSH1 0x1F NOT PUSH1 0x1F DUP3 ADD AND DUP3 ADD DUP1 PUSH1 0x40 MSTORE POP DUP2 ADD SWAP1 PUSH2 0x366 SWAP2 SWAP1 PUSH2 0x12E0 JUMP JUMPDEST POP DUP1 PUSH1 0x2 PUSH0 SWAP1 SLOAD SWAP1 PUSH2 0x100 EXP SWAP1 DIV PUSH20 0xFFFFFFFFFFFFFFFFFFFFFFFFFFFFFFFFFFFFFFFF AND PUSH20 0xFFFFFFFFFFFFFFFFFFFFFFFFFFFFFFFFFFFFFFFF AND PUSH4 0x70A08231 ADDRESS PUSH1 0x40 MLOAD DUP3 PUSH4 0xFFFFFFFF AND PUSH1 0xE0 SHL DUP2 MSTORE PUSH1 0x4 ADD PUSH2 0x3C2 SWAP2 SWAP1 PUSH2 0x1188 JUMP JUMPDEST PUSH1 0x20 PUSH1 0x40 MLOAD DUP1 DUP4 SUB DUP2 DUP7 GAS STATICCALL ISZERO DUP1 ISZERO PUSH2 0x3DD JUMPI RETURNDATASIZE PUSH0 PUSH0 RETURNDATACOPY RETURNDATASIZE PUSH0 REVERT JUMPDEST POP POP POP POP PUSH1 0x40 MLOAD RETURNDATASIZE PUSH1 0x1F NOT PUSH1 0x1F DUP3 ADD AND DUP3 ADD DUP1 PUSH1 0x40 MSTORE POP DUP2 ADD SWAP1 PUSH2 0x401 SWAP2 SWAP1 PUSH2 0x131F JUMP JUMPDEST LT ISZERO PUSH2 0x442 JUMPI PUSH1 0x40 MLOAD PUSH32 0x8C379A000000000000000000000000000000000000000000000000000000000 DUP2 MSTORE PUSH1 0x4 ADD PUSH2 0x439 SWAP1 PUSH2 0x1394 JUMP JUMPDEST PUSH1 0x40 MLOAD DUP1 SWAP2 SUB SWAP1 REVERT JUMPDEST PUSH1 0x2 PUSH0 SWAP1 SLOAD SWAP1 PUSH2 0x100 EXP SWAP1 DIV PUSH20 0xFFFFFFFFFFFFFFFFFFFFFFFFFFFFFFFFFFFFFFFF AND PUSH20 0xFFFFFFFFFFFFFFFFFFFFFFFFFFFFFFFFFFFFFFFF AND PUSH4 0xA9059CBB CALLER DUP4 PUSH1 0x40 MLOAD DUP4 PUSH4 0xFFFFFFFF AND PUSH1 0xE0 SHL DUP2 MSTORE PUSH1 0x4 ADD PUSH2 0x49E SWAP3 SWAP2 SWAP1 PUSH2 0x13B2 JUMP JUMPDEST PUSH1 0x20 PUSH1 0x40 MLOAD DUP1 DUP4 SUB DUP2 PUSH0 DUP8 GAS CALL ISZERO DUP1 ISZERO PUSH2 0x4BA JUMPI RETURNDATASIZE PUSH0 PUSH0 RETURNDATACOPY RETURNDATASIZE PUSH0 REVERT JUMPDEST POP POP POP POP PUSH1 0x40 MLOAD RETURNDATASIZE PUSH1 0x1F NOT PUSH1 0x1F DUP3 ADD AND DUP3 ADD DUP1 PUSH1 0x40 MSTORE POP DUP2 ADD SWAP1 PUSH2 0x4DE SWAP2 SWAP1 PUSH2 0x12E0 JUMP JUMPDEST POP PUSH0 PUSH2 0x4E8 PUSH2 0xBD4 JUMP JUMPDEST SWAP1 POP PUSH1 0x40 MLOAD DUP1 PUSH1 0x80 ADD PUSH1 0x40 MSTORE DUP1 DUP5 DUP2 MSTORE PUSH1 0x20 ADD DUP4 DUP2 MSTORE PUSH1 0x20 ADD DUP3 DUP2 MSTORE PUSH1 0x20 ADD PUSH1 0x1 ISZERO ISZERO DUP2 MSTORE POP PUSH1 0x4 PUSH0 CALLER PUSH20 0xFFFFFFFFFFFFFFFFFFFFFFFFFFFFFFFFFFFFFFFF AND PUSH20 0xFFFFFFFFFFFFFFFFFFFFFFFFFFFFFFFFFFFFFFFF AND DUP2 MSTORE PUSH1 0x20 ADD SWAP1 DUP2 MSTORE PUSH1 0x20 ADD PUSH0 KECCAK256 PUSH0 DUP3 ADD MLOAD DUP2 PUSH0 ADD SSTORE PUSH1 0x20 DUP3 ADD MLOAD DUP2 PUSH1 0x1 ADD SSTORE PUSH1 0x40 DUP3 ADD MLOAD DUP2 PUSH1 0x2 ADD SSTORE PUSH1 0x60 DUP3 ADD MLOAD DUP2 PUSH1 0x3 ADD PUSH0 PUSH2 0x100 EXP DUP2 SLOAD DUP2 PUSH1 0xFF MUL NOT AND SWAP1 DUP4 ISZERO ISZERO MUL OR SWAP1 SSTORE POP SWAP1 POP POP CALLER PUSH20 0xFFFFFFFFFFFFFFFFFFFFFFFFFFFFFFFFFFFFFFFF AND PUSH32 0xC4381C9C7B508979896C55381C1CB8C2AEF28D753CFF7661F9CD87B9A14584F8 DUP5 DUP5 DUP5 PUSH1 0x40 MLOAD PUSH2 0x5D3 SWAP4 SWAP3 SWAP2 SWAP1 PUSH2 0x13D9 JUMP JUMPDEST PUSH1 0x40 MLOAD DUP1 SWAP2 SUB SWAP1 LOG2 POP POP POP JUMP JUMPDEST PUSH2 0x5E8 PUSH2 0xC30 JUMP JUMPDEST PUSH0 PUSH1 0x4 PUSH0 DUP4 PUSH20 0xFFFFFFFFFFFFFFFFFFFFFFFFFFFFFFFFFFFFFFFF AND PUSH20 0xFFFFFFFFFFFFFFFFFFFFFFFFFFFFFFFFFFFFFFFF AND DUP2 MSTORE PUSH1 0x20 ADD SWAP1 DUP2 MSTORE PUSH1 0x20 ADD PUSH0 KECCAK256 SWAP1 POP DUP1 PUSH1 0x3 ADD PUSH0 SWAP1 SLOAD SWAP1 PUSH2 0x100 EXP SWAP1 DIV PUSH1 0xFF AND PUSH2 0x678 JUMPI PUSH1 0x40 MLOAD PUSH32 0x8C379A000000000000000000000000000000000000000000000000000000000 DUP2 MSTORE PUSH1 0x4 ADD PUSH2 0x66F SWAP1 PUSH2 0x1458 JUMP JUMPDEST PUSH1 0x40 MLOAD DUP1 SWAP2 SUB SWAP1 REVERT JUMPDEST PUSH2 0x681 DUP3 PUSH2 0xCB7 JUMP JUMPDEST DUP1 PUSH1 0x2 ADD SLOAD TIMESTAMP GT DUP1 ISZERO PUSH2 0x697 JUMPI POP PUSH0 DUP2 PUSH1 0x1 ADD SLOAD GT JUMPDEST ISZERO PUSH2 0x7BA JUMPI PUSH0 DUP2 PUSH0 ADD SLOAD SWAP1 POP PUSH0 DUP3 PUSH1 0x3 ADD PUSH0 PUSH2 0x100 EXP DUP2 SLOAD DUP2 PUSH1 0xFF MUL NOT AND SWAP1 DUP4 ISZERO ISZERO MUL OR SWAP1 SSTORE POP PUSH0 DUP3 PUSH0 ADD DUP2 SWAP1 SSTORE POP PUSH1 0x1 PUSH0 SWAP1 SLOAD SWAP1 PUSH2 0x100 EXP SWAP1 DIV PUSH20 0xFFFFFFFFFFFFFFFFFFFFFFFFFFFFFFFFFFFFFFFF AND PUSH20 0xFFFFFFFFFFFFFFFFFFFFFFFFFFFFFFFFFFFFFFFF AND PUSH4 0xA9059CBB PUSH2 0x70B PUSH2 0xAFE JUMP JUMPDEST DUP4 PUSH1 0x40 MLOAD DUP4 PUSH4 0xFFFFFFFF AND PUSH1 0xE0 SHL DUP2 MSTORE PUSH1 0x4 ADD PUSH2 0x729 SWAP3 SWAP2 SWAP1 PUSH2 0x13B2 JUMP JUMPDEST PUSH1 0x20 PUSH1 0x40 MLOAD DUP1 DUP4 SUB DUP2 PUSH0 DUP8 GAS CALL ISZERO DUP1 ISZERO PUSH2 0x745 JUMPI RETURNDATASIZE PUSH0 PUSH0 RETURNDATACOPY RETURNDATASIZE PUSH0 REVERT JUMPDEST POP POP POP POP PUSH1 0x40 MLOAD RETURNDATASIZE PUSH1 0x1F NOT PUSH1 0x1F DUP3 ADD AND DUP3 ADD DUP1 PUSH1 0x40 MSTORE POP DUP2 ADD SWAP1 PUSH2 0x769 SWAP2 SWAP1 PUSH2 0x12E0 JUMP JUMPDEST POP DUP3 PUSH20 0xFFFFFFFFFFFFFFFFFFFFFFFFFFFFFFFFFFFFFFFF AND PUSH32 0xA5EE7A2B0254FCE91DEED604506790ED7FA072D0B14CBA4859C3BC8955B9CAAC DUP3 PUSH1 0x40 MLOAD PUSH2 0x7B0 SWAP2 SWAP1 PUSH2 0x108F JUMP JUMPDEST PUSH1 0x40 MLOAD DUP1 SWAP2 SUB SWAP1 LOG2 POP JUMPDEST POP POP JUMP JUMPDEST PUSH0 PUSH1 0x4 PUSH0 CALLER PUSH20 0xFFFFFFFFFFFFFFFFFFFFFFFFFFFFFFFFFFFFFFFF AND PUSH20 0xFFFFFFFFFFFFFFFFFFFFFFFFFFFFFFFFFFFFFFFF AND DUP2 MSTORE PUSH1 0x20 ADD SWAP1 DUP2 MSTORE PUSH1 0x20 ADD PUSH0 KECCAK256 SWAP1 POP DUP1 PUSH1 0x3 ADD PUSH0 SWAP1 SLOAD SWAP1 PUSH2 0x100 EXP SWAP1 DIV PUSH1 0xFF AND PUSH2 0x84E JUMPI PUSH1 0x40 MLOAD PUSH32 0x8C379A000000000000000000000000000000000000000000000000000000000 DUP2 MSTORE PUSH1 0x4 ADD PUSH2 0x845 SWAP1 PUSH2 0x1458 JUMP JUMPDEST PUSH1 0x40 MLOAD DUP1 SWAP2 SUB SWAP1 REVERT JUMPDEST PUSH2 0x857 CALLER PUSH2 0xCB7 JUMP JUMPDEST PUSH0 DUP3 GT DUP1 ISZERO PUSH2 0x86A JUMPI POP DUP1 PUSH1 0x1 ADD SLOAD DUP3 GT ISZERO JUMPDEST PUSH2 0x8A9 JUMPI PUSH1 0x40 MLOAD PUSH32 0x8C379A000000000000000000000000000000000000000000000000000000000 DUP2 MSTORE PUSH1 0x4 ADD PUSH2 0x8A0 SWAP1 PUSH2 0x14C0 JUMP JUMPDEST PUSH1 0x40 MLOAD DUP1 SWAP2 SUB SWAP1 REVERT JUMPDEST PUSH1 0x2 PUSH0 SWAP1 SLOAD SWAP1 PUSH2 0x100 EXP SWAP1 DIV PUSH20 0xFFFFFFFFFFFFFFFFFFFFFFFFFFFFFFFFFFFFFFFF AND PUSH20 0xFFFFFFFFFFFFFFFFFFFFFFFFFFFFFFFFFFFFFFFF AND PUSH4 0x23B872DD CALLER ADDRESS DUP6 PUSH1 0x40 MLOAD DUP5 PUSH4 0xFFFFFFFF AND PUSH1 0xE0 SHL DUP2 MSTORE PUSH1 0x4 ADD PUSH2 0x907 SWAP4 SWAP3 SWAP2 SWAP1 PUSH2 0x1281 JUMP JUMPDEST PUSH1 0x20 PUSH1 0x40 MLOAD DUP1 DUP4 SUB DUP2 PUSH0 DUP8 GAS CALL ISZERO DUP1 ISZERO PUSH2 0x923 JUMPI RETURNDATASIZE PUSH0 PUSH0 RETURNDATACOPY RETURNDATASIZE PUSH0 REVERT JUMPDEST POP POP POP POP PUSH1 0x40 MLOAD RETURNDATASIZE PUSH1 0x1F NOT PUSH1 0x1F DUP3 ADD AND DUP3 ADD DUP1 PUSH1 0x40 MSTORE POP DUP2 ADD SWAP1 PUSH2 0x947 SWAP2 SWAP1 PUSH2 0x12E0 JUMP JUMPDEST POP DUP2 DUP2 PUSH1 0x1 ADD PUSH0 DUP3 DUP3 SLOAD PUSH2 0x95B SWAP2 SWAP1 PUSH2 0x150B JUMP JUMPDEST SWAP3 POP POP DUP2 SWAP1 SSTORE POP PUSH0 DUP2 PUSH1 0x1 ADD SLOAD SUB PUSH2 0xA36 JUMPI PUSH0 DUP2 PUSH0 ADD SLOAD SWAP1 POP PUSH0 DUP3 PUSH1 0x3 ADD PUSH0 PUSH2 0x100 EXP DUP2 SLOAD DUP2 PUSH1 0xFF MUL NOT AND SWAP1 DUP4 ISZERO ISZERO MUL OR SWAP1 SSTORE POP PUSH0 DUP3 PUSH0 ADD DUP2 SWAP1 SSTORE POP PUSH1 0x1 PUSH0 SWAP1 SLOAD SWAP1 PUSH2 0x100 EXP SWAP1 DIV PUSH20 0xFFFFFFFFFFFFFFFFFFFFFFFFFFFFFFFFFFFFFFFF AND PUSH20 0xFFFFFFFFFFFFFFFFFFFFFFFFFFFFFFFFFFFFFFFF AND PUSH4 0xA9059CBB CALLER DUP4 PUSH1 0x40 MLOAD DUP4 PUSH4 0xFFFFFFFF AND PUSH1 0xE0 SHL DUP2 MSTORE PUSH1 0x4 ADD PUSH2 0x9F3 SWAP3 SWAP2 SWAP1 PUSH2 0x13B2 JUMP JUMPDEST PUSH1 0x20 PUSH1 0x40 MLOAD DUP1 DUP4 SUB DUP2 PUSH0 DUP8 GAS CALL ISZERO DUP1 ISZERO PUSH2 0xA0F JUMPI RETURNDATASIZE PUSH0 PUSH0 RETURNDATACOPY RETURNDATASIZE PUSH0 REVERT JUMPDEST POP POP POP POP PUSH1 0x40 MLOAD RETURNDATASIZE PUSH1 0x1F NOT PUSH1 0x1F DUP3 ADD AND DUP3 ADD DUP1 PUSH1 0x40 MSTORE POP DUP2 ADD SWAP1 PUSH2 0xA33 SWAP2 SWAP1 PUSH2 0x12E0 JUMP JUMPDEST POP POP JUMPDEST CALLER PUSH20 0xFFFFFFFFFFFFFFFFFFFFFFFFFFFFFFFFFFFFFFFF AND PUSH32 0x516911BCC3A0A7412A44601057C0A0A1EC628BDE049A84284BC428866534488 DUP4 PUSH1 0x40 MLOAD PUSH2 0xA7C SWAP2 SWAP1 PUSH2 0x108F JUMP JUMPDEST PUSH1 0x40 MLOAD DUP1 SWAP2 SUB SWAP1 LOG2 POP POP JUMP JUMPDEST PUSH2 0xA90 PUSH2 0xC30 JUMP JUMPDEST PUSH2 0xA99 PUSH0 PUSH2 0xDA7 JUMP JUMPDEST JUMP JUMPDEST PUSH2 0x2710 DUP2 JUMP JUMPDEST PUSH1 0x4 PUSH1 0x20 MSTORE DUP1 PUSH0 MSTORE PUSH1 0x40 PUSH0 KECCAK256 PUSH0 SWAP2 POP SWAP1 POP DUP1 PUSH0 ADD SLOAD SWAP1 DUP1 PUSH1 0x1 ADD SLOAD SWAP1 DUP1 PUSH1 0x2 ADD SLOAD SWAP1 DUP1 PUSH1 0x3 ADD PUSH0 SWAP1 SLOAD SWAP1 PUSH2 0x100 EXP SWAP1 DIV PUSH1 0xFF AND SWAP1 POP DUP5 JUMP JUMPDEST PUSH1 0x2 PUSH0 SWAP1 SLOAD SWAP1 PUSH2 0x100 EXP SWAP1 DIV PUSH20 0xFFFFFFFFFFFFFFFFFFFFFFFFFFFFFFFFFFFFFFFF AND DUP2 JUMP JUMPDEST PUSH0 PUSH0 PUSH0 SWAP1 SLOAD SWAP1 PUSH2 0x100 EXP SWAP1 DIV PUSH20 0xFFFFFFFFFFFFFFFFFFFFFFFFFFFFFFFFFFFFFFFF AND SWAP1 POP SWAP1 JUMP JUMPDEST PUSH1 0x1 PUSH0 SWAP1 SLOAD SWAP1 PUSH2 0x100 EXP SWAP1 DIV PUSH20 0xFFFFFFFFFFFFFFFFFFFFFFFFFFFFFFFFFFFFFFFF AND DUP2 JUMP JUMPDEST PUSH1 0x3 SLOAD DUP2 JUMP JUMPDEST PUSH2 0xB58 PUSH2 0xC30 JUMP JUMPDEST PUSH0 PUSH20 0xFFFFFFFFFFFFFFFFFFFFFFFFFFFFFFFFFFFFFFFF AND DUP2 PUSH20 0xFFFFFFFFFFFFFFFFFFFFFFFFFFFFFFFFFFFFFFFF AND SUB PUSH2 0xBC8 JUMPI PUSH0 PUSH1 0x40 MLOAD PUSH32 0x1E4FBDF700000000000000000000000000000000000000000000000000000000 DUP2 MSTORE PUSH1 0x4 ADD PUSH2 0xBBF SWAP2 SWAP1 PUSH2 0x1188 JUMP JUMPDEST PUSH1 0x40 MLOAD DUP1 SWAP2 SUB SWAP1 REVERT JUMPDEST PUSH2 0xBD1 DUP2 PUSH2 0xDA7 JUMP JUMPDEST POP JUMP JUMPDEST PUSH0 PUSH0 PUSH0 PUSH0 PUSH2 0xBE1 TIMESTAMP PUSH2 0xE68 JUMP JUMPDEST SWAP3 POP SWAP3 POP SWAP3 POP PUSH1 0x19 DUP2 LT PUSH2 0xC1C JUMPI PUSH1 0x1 DUP3 PUSH2 0xBFC SWAP2 SWAP1 PUSH2 0x153E JUMP JUMPDEST SWAP2 POP PUSH1 0xC DUP3 GT ISZERO PUSH2 0xC1B JUMPI PUSH1 0x1 SWAP2 POP PUSH1 0x1 DUP4 PUSH2 0xC18 SWAP2 SWAP1 PUSH2 0x153E JUMP JUMPDEST SWAP3 POP JUMPDEST JUMPDEST PUSH2 0xC28 DUP4 DUP4 PUSH1 0x19 PUSH2 0xEE3 JUMP JUMPDEST SWAP4 POP POP POP POP SWAP1 JUMP JUMPDEST PUSH2 0xC38 PUSH2 0xF54 JUMP JUMPDEST PUSH20 0xFFFFFFFFFFFFFFFFFFFFFFFFFFFFFFFFFFFFFFFF AND PUSH2 0xC56 PUSH2 0xAFE JUMP JUMPDEST PUSH20 0xFFFFFFFFFFFFFFFFFFFFFFFFFFFFFFFFFFFFFFFF AND EQ PUSH2 0xCB5 JUMPI PUSH2 0xC79 PUSH2 0xF54 JUMP JUMPDEST PUSH1 0x40 MLOAD PUSH32 0x118CDAA700000000000000000000000000000000000000000000000000000000 DUP2 MSTORE PUSH1 0x4 ADD PUSH2 0xCAC SWAP2 SWAP1 PUSH2 0x1188 JUMP JUMPDEST PUSH1 0x40 MLOAD DUP1 SWAP2 SUB SWAP1 REVERT JUMPDEST JUMP JUMPDEST PUSH0 PUSH1 0x4 PUSH0 DUP4 PUSH20 0xFFFFFFFFFFFFFFFFFFFFFFFFFFFFFFFFFFFFFFFF AND PUSH20 0xFFFFFFFFFFFFFFFFFFFFFFFFFFFFFFFFFFFFFFFF AND DUP2 MSTORE PUSH1 0x20 ADD SWAP1 DUP2 MSTORE PUSH1 0x20 ADD PUSH0 KECCAK256 SWAP1 POP DUP1 PUSH1 0x3 ADD PUSH0 SWAP1 SLOAD SWAP1 PUSH2 0x100 EXP SWAP1 DIV PUSH1 0xFF AND DUP1 ISZERO PUSH2 0xD17 JUMPI POP DUP1 PUSH1 0x2 ADD SLOAD TIMESTAMP GT JUMPDEST ISZERO PUSH2 0xDA3 JUMPI PUSH0 PUSH1 0x1 PUSH3 0x278D00 DUP4 PUSH1 0x2 ADD SLOAD TIMESTAMP PUSH2 0xD33 SWAP2 SWAP1 PUSH2 0x150B JUMP JUMPDEST PUSH2 0xD3D SWAP2 SWAP1 PUSH2 0x159E JUMP JUMPDEST PUSH2 0xD47 SWAP2 SWAP1 PUSH2 0x153E JUMP JUMPDEST SWAP1 POP PUSH0 PUSH2 0x2710 DUP3 PUSH1 0x3 SLOAD DUP6 PUSH1 0x1 ADD SLOAD PUSH2 0xD60 SWAP2 SWAP1 PUSH2 0x15CE JUMP JUMPDEST PUSH2 0xD6A SWAP2 SWAP1 PUSH2 0x15CE JUMP JUMPDEST PUSH2 0xD74 SWAP2 SWAP1 PUSH2 0x159E JUMP JUMPDEST SWAP1 POP DUP1 DUP4 PUSH1 0x1 ADD PUSH0 DUP3 DUP3 SLOAD PUSH2 0xD89 SWAP2 SWAP1 PUSH2 0x153E JUMP JUMPDEST SWAP3 POP POP DUP2 SWAP1 SSTORE POP PUSH2 0xD98 PUSH2 0xBD4 JUMP JUMPDEST DUP4 PUSH1 0x2 ADD DUP2 SWAP1 SSTORE POP POP POP JUMPDEST POP POP JUMP JUMPDEST PUSH0 PUSH0 PUSH0 SWAP1 SLOAD SWAP1 PUSH2 0x100 EXP SWAP1 DIV PUSH20 0xFFFFFFFFFFFFFFFFFFFFFFFFFFFFFFFFFFFFFFFF AND SWAP1 POP DUP2 PUSH0 PUSH0 PUSH2 0x100 EXP DUP2 SLOAD DUP2 PUSH20 0xFFFFFFFFFFFFFFFFFFFFFFFFFFFFFFFFFFFFFFFF MUL NOT AND SWAP1 DUP4 PUSH20 0xFFFFFFFFFFFFFFFFFFFFFFFFFFFFFFFFFFFFFFFF AND MUL OR SWAP1 SSTORE POP DUP2 PUSH20 0xFFFFFFFFFFFFFFFFFFFFFFFFFFFFFFFFFFFFFFFF AND DUP2 PUSH20 0xFFFFFFFFFFFFFFFFFFFFFFFFFFFFFFFFFFFFFFFF AND PUSH32 0x8BE0079C531659141344CD1FD0A4F28419497F9722A3DAAFE3B4186F6B6457E0 PUSH1 0x40 MLOAD PUSH1 0x40 MLOAD DUP1 SWAP2 SUB SWAP1 LOG3 POP POP JUMP JUMPDEST PUSH0 PUSH0 PUSH0 PUSH4 0x1E18558 DUP5 PUSH2 0xE7B SWAP2 SWAP1 PUSH2 0x159E JUMP JUMPDEST PUSH2 0x7B2 PUSH2 0xE88 SWAP2 SWAP1 PUSH2 0x153E JUMP JUMPDEST SWAP3 POP PUSH1 0x1 PUSH1 0xC PUSH3 0x282072 DUP7 PUSH2 0xE9D SWAP2 SWAP1 PUSH2 0x159E JUMP JUMPDEST PUSH2 0xEA7 SWAP2 SWAP1 PUSH2 0x160F JUMP JUMPDEST PUSH2 0xEB1 SWAP2 SWAP1 PUSH2 0x153E JUMP JUMPDEST SWAP2 POP PUSH1 0x1 PUSH1 0x1E PUSH3 0x15180 DUP7 PUSH2 0xEC6 SWAP2 SWAP1 PUSH2 0x159E JUMP JUMPDEST PUSH2 0xED0 SWAP2 SWAP1 PUSH2 0x160F JUMP JUMPDEST PUSH2 0xEDA SWAP2 SWAP1 PUSH2 0x153E JUMP JUMPDEST SWAP1 POP SWAP2 SWAP4 SWAP1 SWAP3 POP JUMP JUMPDEST PUSH0 PUSH3 0x15180 PUSH1 0x1 DUP4 PUSH2 0xEF5 SWAP2 SWAP1 PUSH2 0x150B JUMP JUMPDEST PUSH2 0xEFF SWAP2 SWAP1 PUSH2 0x15CE JUMP JUMPDEST PUSH3 0x282072 PUSH1 0x1 DUP6 PUSH2 0xF10 SWAP2 SWAP1 PUSH2 0x150B JUMP JUMPDEST PUSH2 0xF1A SWAP2 SWAP1 PUSH2 0x15CE JUMP JUMPDEST PUSH4 0x1E18558 PUSH2 0x7B2 DUP8 PUSH2 0xF2D SWAP2 SWAP1 PUSH2 0x150B JUMP JUMPDEST PUSH2 0xF37 SWAP2 SWAP1 PUSH2 0x15CE JUMP JUMPDEST PUSH2 0xF41 SWAP2 SWAP1 PUSH2 0x153E JUMP JUMPDEST PUSH2 0xF4B SWAP2 SWAP1 PUSH2 0x153E JUMP JUMPDEST SWAP1 POP SWAP4 SWAP3 POP POP POP JUMP JUMPDEST PUSH0 CALLER SWAP1 POP SWAP1 JUMP JUMPDEST PUSH0 PUSH0 REVERT JUMPDEST PUSH0 DUP2 SWAP1 POP SWAP2 SWAP1 POP JUMP JUMPDEST PUSH2 0xF71 DUP2 PUSH2 0xF5F JUMP JUMPDEST DUP2 EQ PUSH2 0xF7B JUMPI PUSH0 PUSH0 REVERT JUMPDEST POP JUMP JUMPDEST PUSH0 DUP2 CALLDATALOAD SWAP1 POP PUSH2 0xF8C DUP2 PUSH2 0xF68 JUMP JUMPDEST SWAP3 SWAP2 POP POP JUMP JUMPDEST PUSH0 PUSH0 PUSH1 0x40 DUP4 DUP6 SUB SLT ISZERO PUSH2 0xFA8 JUMPI PUSH2 0xFA7 PUSH2 0xF5B JUMP JUMPDEST JUMPDEST PUSH0 PUSH2 0xFB5 DUP6 DUP3 DUP7 ADD PUSH2 0xF7E JUMP JUMPDEST SWAP3 POP POP PUSH1 0x20 PUSH2 0xFC6 DUP6 DUP3 DUP7 ADD PUSH2 0xF7E JUMP JUMPDEST SWAP2 POP POP SWAP3 POP SWAP3 SWAP1 POP JUMP JUMPDEST PUSH0 PUSH20 0xFFFFFFFFFFFFFFFFFFFFFFFFFFFFFFFFFFFFFFFF DUP3 AND SWAP1 POP SWAP2 SWAP1 POP JUMP JUMPDEST PUSH0 PUSH2 0xFF9 DUP3 PUSH2 0xFD0 JUMP JUMPDEST SWAP1 POP SWAP2 SWAP1 POP JUMP JUMPDEST PUSH2 0x1009 DUP2 PUSH2 0xFEF JUMP JUMPDEST DUP2 EQ PUSH2 0x1013 JUMPI PUSH0 PUSH0 REVERT JUMPDEST POP JUMP JUMPDEST PUSH0 DUP2 CALLDATALOAD SWAP1 POP PUSH2 0x1024 DUP2 PUSH2 0x1000 JUMP JUMPDEST SWAP3 SWAP2 POP POP JUMP JUMPDEST PUSH0 PUSH1 0x20 DUP3 DUP5 SUB SLT ISZERO PUSH2 0x103F JUMPI PUSH2 0x103E PUSH2 0xF5B JUMP JUMPDEST JUMPDEST PUSH0 PUSH2 0x104C DUP5 DUP3 DUP6 ADD PUSH2 0x1016 JUMP JUMPDEST SWAP2 POP POP SWAP3 SWAP2 POP POP JUMP JUMPDEST PUSH0 PUSH1 0x20 DUP3 DUP5 SUB SLT ISZERO PUSH2 0x106A JUMPI PUSH2 0x1069 PUSH2 0xF5B JUMP JUMPDEST JUMPDEST PUSH0 PUSH2 0x1077 DUP5 DUP3 DUP6 ADD PUSH2 0xF7E JUMP JUMPDEST SWAP2 POP POP SWAP3 SWAP2 POP POP JUMP JUMPDEST PUSH2 0x1089 DUP2 PUSH2 0xF5F JUMP JUMPDEST DUP3 MSTORE POP POP JUMP JUMPDEST PUSH0 PUSH1 0x20 DUP3 ADD SWAP1 POP PUSH2 0x10A2 PUSH0 DUP4 ADD DUP5 PUSH2 0x1080 JUMP JUMPDEST SWAP3 SWAP2 POP POP JUMP JUMPDEST PUSH0 DUP2 ISZERO ISZERO SWAP1 POP SWAP2 SWAP1 POP JUMP JUMPDEST PUSH2 0x10BC DUP2 PUSH2 0x10A8 JUMP JUMPDEST DUP3 MSTORE POP POP JUMP JUMPDEST PUSH0 PUSH1 0x80 DUP3 ADD SWAP1 POP PUSH2 0x10D5 PUSH0 DUP4 ADD DUP8 PUSH2 0x1080 JUMP JUMPDEST PUSH2 0x10E2 PUSH1 0x20 DUP4 ADD DUP7 PUSH2 0x1080 JUMP JUMPDEST PUSH2 0x10EF PUSH1 0x40 DUP4 ADD DUP6 PUSH2 0x1080 JUMP JUMPDEST PUSH2 0x10FC PUSH1 0x60 DUP4 ADD DUP5 PUSH2 0x10B3 JUMP JUMPDEST SWAP6 SWAP5 POP POP POP POP POP JUMP JUMPDEST PUSH0 DUP2 SWAP1 POP SWAP2 SWAP1 POP JUMP JUMPDEST PUSH0 PUSH2 0x1128 PUSH2 0x1123 PUSH2 0x111E DUP5 PUSH2 0xFD0 JUMP JUMPDEST PUSH2 0x1105 JUMP JUMPDEST PUSH2 0xFD0 JUMP JUMPDEST SWAP1 POP SWAP2 SWAP1 POP JUMP JUMPDEST PUSH0 PUSH2 0x1139 DUP3 PUSH2 0x110E JUMP JUMPDEST SWAP1 POP SWAP2 SWAP1 POP JUMP JUMPDEST PUSH0 PUSH2 0x114A DUP3 PUSH2 0x112F JUMP JUMPDEST SWAP1 POP SWAP2 SWAP1 POP JUMP JUMPDEST PUSH2 0x115A DUP2 PUSH2 0x1140 JUMP JUMPDEST DUP3 MSTORE POP POP JUMP JUMPDEST PUSH0 PUSH1 0x20 DUP3 ADD SWAP1 POP PUSH2 0x1173 PUSH0 DUP4 ADD DUP5 PUSH2 0x1151 JUMP JUMPDEST SWAP3 SWAP2 POP POP JUMP JUMPDEST PUSH2 0x1182 DUP2 PUSH2 0xFEF JUMP JUMPDEST DUP3 MSTORE POP POP JUMP JUMPDEST PUSH0 PUSH1 0x20 DUP3 ADD SWAP1 POP PUSH2 0x119B PUSH0 DUP4 ADD DUP5 PUSH2 0x1179 JUMP JUMPDEST SWAP3 SWAP2 POP POP JUMP JUMPDEST PUSH0 DUP3 DUP3 MSTORE PUSH1 0x20 DUP3 ADD SWAP1 POP SWAP3 SWAP2 POP POP JUMP JUMPDEST PUSH32 0x496E76616C696420616D6F756E74730000000000000000000000000000000000 PUSH0 DUP3 ADD MSTORE POP JUMP JUMPDEST PUSH0 PUSH2 0x11E5 PUSH1 0xF DUP4 PUSH2 0x11A1 JUMP JUMPDEST SWAP2 POP PUSH2 0x11F0 DUP3 PUSH2 0x11B1 JUMP JUMPDEST PUSH1 0x20 DUP3 ADD SWAP1 POP SWAP2 SWAP1 POP JUMP JUMPDEST PUSH0 PUSH1 0x20 DUP3 ADD SWAP1 POP DUP2 DUP2 SUB PUSH0 DUP4 ADD MSTORE PUSH2 0x1212 DUP2 PUSH2 0x11D9 JUMP JUMPDEST SWAP1 POP SWAP2 SWAP1 POP JUMP JUMPDEST PUSH32 0x4C6F616E20657869737473000000000000000000000000000000000000000000 PUSH0 DUP3 ADD MSTORE POP JUMP JUMPDEST PUSH0 PUSH2 0x124D PUSH1 0xB DUP4 PUSH2 0x11A1 JUMP JUMPDEST SWAP2 POP PUSH2 0x1258 DUP3 PUSH2 0x1219 JUMP JUMPDEST PUSH1 0x20 DUP3 ADD SWAP1 POP SWAP2 SWAP1 POP JUMP JUMPDEST PUSH0 PUSH1 0x20 DUP3 ADD SWAP1 POP DUP2 DUP2 SUB PUSH0 DUP4 ADD MSTORE PUSH2 0x127A DUP2 PUSH2 0x1241 JUMP JUMPDEST SWAP1 POP SWAP2 SWAP1 POP JUMP JUMPDEST PUSH0 PUSH1 0x60 DUP3 ADD SWAP1 POP PUSH2 0x1294 PUSH0 DUP4 ADD DUP7 PUSH2 0x1179 JUMP JUMPDEST PUSH2 0x12A1 PUSH1 0x20 DUP4 ADD DUP6 PUSH2 0x1179 JUMP JUMPDEST PUSH2 0x12AE PUSH1 0x40 DUP4 ADD DUP5 PUSH2 0x1080 JUMP JUMPDEST SWAP5 SWAP4 POP POP POP POP JUMP JUMPDEST PUSH2 0x12BF DUP2 PUSH2 0x10A8 JUMP JUMPDEST DUP2 EQ PUSH2 0x12C9 JUMPI PUSH0 PUSH0 REVERT JUMPDEST POP JUMP JUMPDEST PUSH0 DUP2 MLOAD SWAP1 POP PUSH2 0x12DA DUP2 PUSH2 0x12B6 JUMP JUMPDEST SWAP3 SWAP2 POP POP JUMP JUMPDEST PUSH0 PUSH1 0x20 DUP3 DUP5 SUB SLT ISZERO PUSH2 0x12F5 JUMPI PUSH2 0x12F4 PUSH2 0xF5B JUMP JUMPDEST JUMPDEST PUSH0 PUSH2 0x1302 DUP5 DUP3 DUP6 ADD PUSH2 0x12CC JUMP JUMPDEST SWAP2 POP POP SWAP3 SWAP2 POP POP JUMP JUMPDEST PUSH0 DUP2 MLOAD SWAP1 POP PUSH2 0x1319 DUP2 PUSH2 0xF68 JUMP JUMPDEST SWAP3 SWAP2 POP POP JUMP JUMPDEST PUSH0 PUSH1 0x20 DUP3 DUP5 SUB SLT ISZERO PUSH2 0x1334 JUMPI PUSH2 0x1333 PUSH2 0xF5B JUMP JUMPDEST JUMPDEST PUSH0 PUSH2 0x1341 DUP5 DUP3 DUP6 ADD PUSH2 0x130B JUMP JUMPDEST SWAP2 POP POP SWAP3 SWAP2 POP POP JUMP JUMPDEST PUSH32 0x496E73756666696369656E7420555344524946206C6971756964697479000000 PUSH0 DUP3 ADD MSTORE POP JUMP JUMPDEST PUSH0 PUSH2 0x137E PUSH1 0x1D DUP4 PUSH2 0x11A1 JUMP JUMPDEST SWAP2 POP PUSH2 0x1389 DUP3 PUSH2 0x134A JUMP JUMPDEST PUSH1 0x20 DUP3 ADD SWAP1 POP SWAP2 SWAP1 POP JUMP JUMPDEST PUSH0 PUSH1 0x20 DUP3 ADD SWAP1 POP DUP2 DUP2 SUB PUSH0 DUP4 ADD MSTORE PUSH2 0x13AB DUP2 PUSH2 0x1372 JUMP JUMPDEST SWAP1 POP SWAP2 SWAP1 POP JUMP JUMPDEST PUSH0 PUSH1 0x40 DUP3 ADD SWAP1 POP PUSH2 0x13C5 PUSH0 DUP4 ADD DUP6 PUSH2 0x1179 JUMP JUMPDEST PUSH2 0x13D2 PUSH1 0x20 DUP4 ADD DUP5 PUSH2 0x1080 JUMP JUMPDEST SWAP4 SWAP3 POP POP POP JUMP JUMPDEST PUSH0 PUSH1 0x60 DUP3 ADD SWAP1 POP PUSH2 0x13EC PUSH0 DUP4 ADD DUP7 PUSH2 0x1080 JUMP JUMPDEST PUSH2 0x13F9 PUSH1 0x20 DUP4 ADD DUP6 PUSH2 0x1080 JUMP JUMPDEST PUSH2 0x1406 PUSH1 0x40 DUP4 ADD DUP5 PUSH2 0x1080 JUMP JUMPDEST SWAP5 SWAP4 POP POP POP POP JUMP JUMPDEST PUSH32 0x4E6F20616374697665206C6F616E000000000000000000000000000000000000 PUSH0 DUP3 ADD MSTORE POP JUMP JUMPDEST PUSH0 PUSH2 0x1442 PUSH1 0xE DUP4 PUSH2 0x11A1 JUMP JUMPDEST SWAP2 POP PUSH2 0x144D DUP3 PUSH2 0x140E JUMP JUMPDEST PUSH1 0x20 DUP3 ADD SWAP1 POP SWAP2 SWAP1 POP JUMP JUMPDEST PUSH0 PUSH1 0x20 DUP3 ADD SWAP1 POP DUP2 DUP2 SUB PUSH0 DUP4 ADD MSTORE PUSH2 0x146F DUP2 PUSH2 0x1436 JUMP JUMPDEST SWAP1 POP SWAP2 SWAP1 POP JUMP JUMPDEST PUSH32 0x496E76616C69642072657061796D656E7420616D6F756E740000000000000000 PUSH0 DUP3 ADD MSTORE POP JUMP JUMPDEST PUSH0 PUSH2 0x14AA PUSH1 0x18 DUP4 PUSH2 0x11A1 JUMP JUMPDEST SWAP2 POP PUSH2 0x14B5 DUP3 PUSH2 0x1476 JUMP JUMPDEST PUSH1 0x20 DUP3 ADD SWAP1 POP SWAP2 SWAP1 POP JUMP JUMPDEST PUSH0 PUSH1 0x20 DUP3 ADD SWAP1 POP DUP2 DUP2 SUB PUSH0 DUP4 ADD MSTORE PUSH2 0x14D7 DUP2 PUSH2 0x149E JUMP JUMPDEST SWAP1 POP SWAP2 SWAP1 POP JUMP JUMPDEST PUSH32 0x4E487B7100000000000000000000000000000000000000000000000000000000 PUSH0 MSTORE PUSH1 0x11 PUSH1 0x4 MSTORE PUSH1 0x24 PUSH0 REVERT JUMPDEST PUSH0 PUSH2 0x1515 DUP3 PUSH2 0xF5F JUMP JUMPDEST SWAP2 POP PUSH2 0x1520 DUP4 PUSH2 0xF5F JUMP JUMPDEST SWAP3 POP DUP3 DUP3 SUB SWAP1 POP DUP2 DUP2 GT ISZERO PUSH2 0x1538 JUMPI PUSH2 0x1537 PUSH2 0x14DE JUMP JUMPDEST JUMPDEST SWAP3 SWAP2 POP POP JUMP JUMPDEST PUSH0 PUSH2 0x1548 DUP3 PUSH2 0xF5F JUMP JUMPDEST SWAP2 POP PUSH2 0x1553 DUP4 PUSH2 0xF5F JUMP JUMPDEST SWAP3 POP DUP3 DUP3 ADD SWAP1 POP DUP1 DUP3 GT ISZERO PUSH2 0x156B JUMPI PUSH2 0x156A PUSH2 0x14DE JUMP JUMPDEST JUMPDEST SWAP3 SWAP2 POP POP JUMP JUMPDEST PUSH32 0x4E487B7100000000000000000000000000000000000000000000000000000000 PUSH0 MSTORE PUSH1 0x12 PUSH1 0x4 MSTORE PUSH1 0x24 PUSH0 REVERT JUMPDEST PUSH0 PUSH2 0x15A8 DUP3 PUSH2 0xF5F JUMP JUMPDEST SWAP2 POP PUSH2 0x15B3 DUP4 PUSH2 0xF5F JUMP JUMPDEST SWAP3 POP DUP3 PUSH2 0x15C3 JUMPI PUSH2 0x15C2 PUSH2 0x1571 JUMP JUMPDEST JUMPDEST DUP3 DUP3 DIV SWAP1 POP SWAP3 SWAP2 POP POP JUMP JUMPDEST PUSH0 PUSH2 0x15D8 DUP3 PUSH2 0xF5F JUMP JUMPDEST SWAP2 POP PUSH2 0x15E3 DUP4 PUSH2 0xF5F JUMP JUMPDEST SWAP3 POP DUP3 DUP3 MUL PUSH2 0x15F1 DUP2 PUSH2 0xF5F JUMP JUMPDEST SWAP2 POP DUP3 DUP3 DIV DUP5 EQ DUP4 ISZERO OR PUSH2 0x1608 JUMPI PUSH2 0x1607 PUSH2 0x14DE JUMP JUMPDEST JUMPDEST POP SWAP3 SWAP2 POP POP JUMP JUMPDEST PUSH0 PUSH2 0x1619 DUP3 PUSH2 0xF5F JUMP JUMPDEST SWAP2 POP PUSH2 0x1624 DUP4 PUSH2 0xF5F JUMP JUMPDEST SWAP3 POP DUP3 PUSH2 0x1634 JUMPI PUSH2 0x1633 PUSH2 0x1571 JUMP JUMPDEST JUMPDEST DUP3 DUP3 MOD SWAP1 POP SWAP3 SWAP2 POP POP JUMP INVALID LOG2 PUSH5 0x6970667358 0x22 SLT KECCAK256 0x4B 0xD7 SUB PUSH29 0xCC0BF5B64636EC807C3730A558A602A59007E0DD2C65397778A53C0664 PUSH20 0x6F6C634300081E00330000000000000000000000 "
				},
				"gasEstimates": {
					"creation": {
						"codeDepositCost": "1149800",
						"executionCost": "infinite",
						"totalCost": "infinite"
					},
					"external": {
						"BP_DENOM()": "414",
						"borrow(uint256,uint256)": "infinite",
						"liquidate(address)": "infinite",
						"loans(address)": "infinite",
						"monthlyInterest()": "2513",
						"owner()": "2558",
						"rBTC()": "infinite",
						"renounceOwnership()": "infinite",
						"repay(uint256)": "infinite",
						"transferOwnership(address)": "infinite",
						"usdrif()": "infinite"
					},
					"internal": {
						"_applyInterest(address)": "infinite",
						"_getNextDueDate()": "infinite",
						"_timestampToDate(uint256)": "infinite",
						"_toTimestamp(uint256,uint256,uint256)": "infinite"
					}
				},
				"methodIdentifiers": {
					"BP_DENOM()": "71bf8623",
					"borrow(uint256,uint256)": "0ecbcdab",
					"liquidate(address)": "2f865568",
					"loans(address)": "73b4086b",
					"monthlyInterest()": "d5a54a9e",
					"owner()": "8da5cb5b",
					"rBTC()": "d37d937a",
					"renounceOwnership()": "715018a6",
					"repay(uint256)": "371fd8e6",
					"transferOwnership(address)": "f2fde38b",
					"usdrif()": "84fc77e6"
				}
			},
			"storageLayout": {
				"storage": [
					{
						"astId": 8,
						"contract": "contracts/4_credit.sol:RBTCDebitCard",
						"label": "_owner",
						"offset": 0,
						"slot": "0",
						"type": "t_address"
					},
					{
						"astId": 265,
						"contract": "contracts/4_credit.sol:RBTCDebitCard",
						"label": "rBTC",
						"offset": 0,
						"slot": "1",
						"type": "t_contract(IERC20)225"
					},
					{
						"astId": 268,
						"contract": "contracts/4_credit.sol:RBTCDebitCard",
						"label": "usdrif",
						"offset": 0,
						"slot": "2",
						"type": "t_contract(IERC20)225"
					},
					{
						"astId": 271,
						"contract": "contracts/4_credit.sol:RBTCDebitCard",
						"label": "monthlyInterest",
						"offset": 0,
						"slot": "3",
						"type": "t_uint256"
					},
					{
						"astId": 288,
						"contract": "contracts/4_credit.sol:RBTCDebitCard",
						"label": "loans",
						"offset": 0,
						"slot": "4",
						"type": "t_mapping(t_address,t_struct(Loan)283_storage)"
					}
				],
				"types": {
					"t_address": {
						"encoding": "inplace",
						"label": "address",
						"numberOfBytes": "20"
					},
					"t_bool": {
						"encoding": "inplace",
						"label": "bool",
						"numberOfBytes": "1"
					},
					"t_contract(IERC20)225": {
						"encoding": "inplace",
						"label": "contract IERC20",
						"numberOfBytes": "20"
					},
					"t_mapping(t_address,t_struct(Loan)283_storage)": {
						"encoding": "mapping",
						"key": "t_address",
						"label": "mapping(address => struct RBTCDebitCard.Loan)",
						"numberOfBytes": "32",
						"value": "t_struct(Loan)283_storage"
					},
					"t_struct(Loan)283_storage": {
						"encoding": "inplace",
						"label": "struct RBTCDebitCard.Loan",
						"members": [
							{
								"astId": 276,
								"contract": "contracts/4_credit.sol:RBTCDebitCard",
								"label": "collateral",
								"offset": 0,
								"slot": "0",
								"type": "t_uint256"
							},
							{
								"astId": 278,
								"contract": "contracts/4_credit.sol:RBTCDebitCard",
								"label": "debt",
								"offset": 0,
								"slot": "1",
								"type": "t_uint256"
							},
							{
								"astId": 280,
								"contract": "contracts/4_credit.sol:RBTCDebitCard",
								"label": "lastDueDate",
								"offset": 0,
								"slot": "2",
								"type": "t_uint256"
							},
							{
								"astId": 282,
								"contract": "contracts/4_credit.sol:RBTCDebitCard",
								"label": "active",
								"offset": 0,
								"slot": "3",
								"type": "t_bool"
							}
						],
						"numberOfBytes": "128"
					},
					"t_uint256": {
						"encoding": "inplace",
						"label": "uint256",
						"numberOfBytes": "32"
					}
				}
			},
			"userdoc": {
				"kind": "user",
				"methods": {
					"borrow(uint256,uint256)": {
						"notice": "Borrow USDRIF against rBTC collateral"
					},
					"liquidate(address)": {
						"notice": "Liquidate overdue loan"
					},
					"repay(uint256)": {
						"notice": "Repay debt in USDRIF"
					}
				},
				"notice": "Users can spend, borrow against rBTC, and settle in USDRIF.         Interest of 3% per month is charged if repayment not done before 25th.",
				"version": 1
			}
		}
	}
}